:0400000007EF00F016
:100008005C8221ED0EF073EF11F004012205D8A4F3
:1000180010EF00F012EF00F02BEF00F020511F0B53
:100028000009D8A41AEF00F01CEF00F02BEF00F045
:100038000A8E030E2119D8A424EF00F026EF00F051
:100048002AEF00F0010E296E2BEF00F0296A2251E9
:10005800D8A431EF00F033EF00F08BEF01F020511E
:100068001F0B020AD8A43BEF00F03DEF00F08BEF26
:1000780001F024510F0B0009D8B445EF00F047EF09
:1000880000F08BEF01F024510F0B466E020E466014
:1000980050EF00F052EF00F08BEF01F0200E2C181B
:1000A800D8A459EF00F05BEF00F08BEF01F00A8E57
:1000B80024BF61EF00F063EF00F079EF00F0245106
:1000C8000F0B020DF350110FD96EDA6ADECF4BF029
:1000D800DDCF4CF024510F0B466E4650150FD96EEC
:1000E800DA6ADF504A6E8DEF00F024510F0B020DD3
:1000F800F3500D0FD96EDA6ADECF4BF0DDCF4CF03E
:1001080024510F0B466E4650170FD96EDA6ADF502E
:100118004A6E4AB092EF00F094EF00F09CEF00F0C6
:10012800FB0E4B144B6EFF0E4C144C6EA1EF00F0FF
:10013800040E4B104B6E4C504C6E24BFA6EF00F0D3
:10014800A8EF00F0B5EF00F024510F0B020DF350AB
:10015800110FD96EDA6A4BC0DEFF4CC0DDFFC0EF6D
:1001680000F024510F0B020DF3500D0FD96EDA6A0F
:100178004BC0DEFF4CC0DDFF030E2119D8A4C7EF2A
:1001880000F0C9EF00F0FBEF00F04BC0D9FF4CC006
:10019800DAFFDFAED2EF00F0D4EF00F0EDEF00F0C1
:1001A80024BFD9EF00F0DBEF00F0E5EF00F02451B9
:1001B8000F0B466E4650150FD96EDA6ADF82EDEFE7
:1001C80000F024510F0B466E4650170FD96EDA6AAD
:1001D800DF824BC0D9FF4CC0DAFF000EDB844BC076
:1001E800D9FF4CC0DAFF000EDB8E8BEF01F0040E56
:1001F8004B184B6E4C504C6E4BC0D9FF4CC0DAFFBD
:10020800DFAE09EF01F00BEF01F027EF01F04BC073
:10021800D9FF4CC0DAFF7F0EDF164BC0D9FF4CC0A8
:10022800DAFF000EDB8C000E3F6E050E3E6E4BC0F3
:1002380040F04CC041F0000E436E020E426E04ECDA
:100248000CF02DEF01F04BC0D9FF4CC0DAFF000EC7
:10025800DB8C040E4B184B6E4C504C6E4AB237EF89
:1002680001F039EF01F044EF01F04BC0D9FF4CC069
:10027800DAFFDFAE42EF01F044EF01F074EF01F076
:10028800040124BF4AEF01F04CEF01F056EF01F0F2
:1002980024510F0B466E4650150FD96EDA6ADF925D
:1002A8005EEF01F024510F0B466E4650170FD96EC2
:1002B800DA6ADF924BC0D9FF4CC0DAFF3B0EDF167B
:1002C800000E3F6E050E3E6E4BC040F04CC041F034
:1002D800000E436E020E426E04EC0CF07AEF01F051
:1002E8004BC0D9FF4CC0DAFF3B0EDF160401245186
:1002F8000F0B466E476A700E4624486E0F0E472055
:10030800496E48C0D9FF49C0DAFFFE0EDF16120059
:10031800200E2C6092EF01F094EF01F096EF01F0BF
:10032800B1EF02F06DA29BEF01F09DEF01F0A6EF97
:1003380001F0010EB1EC0DF0B1EF02F07AC076F0E9
:100348007BC077F000017A51761907E17B51771964
:10035800D8A4B1EF01F0B3EF01F0A2EF01F07451AE
:10036800765D8C6F755177598D6F8DBFC0EF01F039
:10037800BEEF01F0CCEF01F07451765D896F7551D5
:1003880077598A6FFF0E89258C6F7F0E8A218D6FB2
:100398008DBFD8EF01F0890E8C5D130E8D59D8A052
:1003A800D8EF01F0DAEF01F0E0EF01F0780E7625F2
:1003B800746FEC0E7721756F68516911D8B4E7EF47
:1003C80001F0E9EF01F0F4EF01F068C0D9FF69C06E
:1003D800DAFFDFBEF2EF01F0F4EF01F08AEF02F08E
:1003E800000E7E6F050E7F6F000E816F000E806F0E
:1003F800000E836F080E826FEEEC10F0010EB1EC68
:100408000DF0E806D8A40BEF02F00DEF02F028EF8C
:1004180002F000016D51D8A414EF02F016EF02F0BB
:100428002AEF02F0010E6D6F6CC002F56C2B280EDE
:100438006C19D8A422EF02F024EF02F02AEF02F0A0
:10044800040E6C6F2AEF02F000016D6B8B6B8E6BE4
:10045800000E8E25D96EDA6A050EDA228E51600FEB
:10046800E16EE26ADE50E618D8B43DEF02F03FEFE5
:1004780002F043EF02F0010E8B6F4CEF02F08E2B6F
:10048800070E8E654AEF02F04CEF02F02CEF02F0F7
:1004980078517911D8B453EF02F055EF02F066EFB6
:1004A80002F078518C5D8D51800A896F7951800AEC
:1004B8008959D8A062EF02F064EF02F066EF02F00B
:1004C800010E8B6F8B05D8A46CEF02F06EEF02F073
:1004D8008AEF02F025EE00F010EE60F0070EDBCF99
:1004E800E3FFE806FCE2010E7E6F000E7F6F050E4B
:1004F800806F080E816F010EEFEC06F07EC068F089
:100508007FC069F076C074F077C075F000016A5159
:100518006B11D8B492EF02F094EF02F09FEF02F063
:100528006AC0D9FF6BC0DAFFDFBE9DEF02F09FEF14
:1005380002F0B1EF02F086EC11F0000E00017E6FC0
:10054800080E7F6F050E806F010E816F010EEFECB4
:1005580006F07EC06AF07FC06BF012002C04D8A4AD
:10056800B8EF02F0BAEF02F0C6EF02F06DBABFEFD3
:1005780002F0C1EF02F0C6EF02F0686A698069888C
:10058800020E2C6E68A4CBEF02F0CDEF02F0D7EF8D
:1005980002F069A4D2EF02F0D4EF02F0D7EF02F034
:1005A80068940BEC11F06DA2DCEF02F0DEEF02F0C4
:1005B800E1EF02F0A19ABBEF03F068A0E6EF02F0CA
:1005C800E8EF02F0F5EF02F069A0EDEF02F0EFEFCF
:1005D80002F0F5EF02F0A2EC08F0A08A040E2C6EEF
:1005E800689068A8FAEF02F0FCEF02F005EF03F05C
:1005F80069A801EF03F003EF03F005EF03F05EECE9
:1006080011F068AC0AEF03F00CEF03F037EF03F0DA
:1006180069AC11EF03F013EF03F021EF03F0000EC4
:100628003F6E730E3E6E000E406E000E416E000E61
:10063800436E010E426E04EC0CF0689C44EC11F021
:100648002550D8B42AEF03F02CEF03F02DEF03F078
:1006580025062550D8A433EF03F035EF03F037EF24
:1006680003F024EC0BF068AA3CEF03F03EEF03F034
:1006780047EF03F069AA43EF03F045EF03F047EFB4
:1006880003F0B5EC0FF068A24CEF03F04EEF03F067
:1006980063EF03F069A253EF03F055EF03F063EF44
:1006A80003F07F0E3F6E3E68000E406E000E416EF6
:1006B800000E436E010E426E04EC0CF06A6A040EE2
:1006C8002C6069EF03F06BEF03F06EEF03F0A19A73
:1006D800BBEF03F069A673EF03F075EF03F0BAEF11
:1006E80003F04F6A68A67BEF03F07DEF03F0BAEFE3
:1006F80003F06CCF2DF02D30E832E8320F0B276E67
:1007080068962DB48AEF03F08CEF03F093EF03F0B3
:100718002750150FD96EDA6ADF7098EF03F027506B
:10072800170FD96EDA6ADF702750D8A49EEF03F04E
:10073800A0EF03F0A4EF03F06EEC0CF0B1EF03F0C0
:10074800000E3F6E720E3E6E2D0E406E416A000E18
:10075800436E000E426E04EC0CF04F2A030E4F64F9
:10076800B8EF03F0BAEF03F076EF03F0A19A1200A6
:1007780020EE01F01B50D9261C50DA22DF50346ECF
:100788003450045C000E0558D8B0CDEF03F0CFEF1D
:1007980003F0D1EF03F004C034F03450045E000ECF
:1007A800055A336AE7EF03F0280E3324D96EDA6A64
:1007B800040EDA2201C0E1FF02C0E2FFDFCFE7FF4B
:1007C800014A022A332A3450335CD8A0EEEF03F0F2
:1007D800F0EF03F0D8EF03F004500510D8B4F7EFAA
:1007E80003F0F9EF03F032EF04F020EE01F01950B6
:1007F800D9261A50DA22080EDF6E20EE02F01950C0
:10080800D9261A50DA22280EDE6E040EDD6E1BC0C1
:10081800D9FF1CC0DAFFDFBC14EF04F016EF04F0B8
:1008280024EF04F019C0D9FF1AC0DAFF480EDF6EB2
:1008380019C0D9FF1AC0DAFF000EDB8E73EF04F07F
:1008480019C0D9FF1AC0DAFF080EDF6E19C0D9FF28
:100858001AC0DAFF000EDB8E73EF04F020EE01F011
:100868001950D9261A50DA22080EDF6E20EE02F04F
:100878001950D9261A50DA22200EDE6E040EDD6ECB
:1008880019C0D9FF1AC0DAFF040EDF6E19C0D9FFEC
:100898001AC0DAFF000EDB8E06500710D8B457EFE7
:1008A80004F059EF04F068EF04F020EE06F002D8E7
:1008B80068EF04F00500FA6EDE50FD6EDE50FE6E45
:1008C800F850FF6EFA501200039E2450D8A46FEF20
:1008D80004F071EF04F073EF04F024EC0BF0120055
:1008E800040120511F0BE806D8B47DEF04F07FEF18
:1008F80004F081EF04F018EF05F02451D8B487EF25
:1009080004F089EF04F08BEF04F018EF05F0060E01
:100918002119D8A492EF04F094EF04F0C5EF04F085
:10092800B6EF04F02F04D8A49CEF04F09EEF04F077
:10093800C5EF04F0B50E086E7F0E096E000E0C6E42
:10094800090E0B6EC00E0A6EC5EF04F0070E086E96
:100958007F0E096E000E0C6E680E0B6EC00E0A6ECE
:10096800C5EF04F02351210AD8B496EF04F0030A26
:10097800D8B4AAEF04F0010AD8B4C5EF04F0C5EF63
:1009880004F02039E832030BE806D8B4CEEF04F0BF
:10099800D0EF04F0FDEF04F018EF05F0A8EC11F02B
:1009A80018EF05F07D0E086E096A000E0C6E010E38
:1009B8000B6EC10E0A6E18EF05F0800E0A6E23C486
:1009C8007DF07DC030F02251B6EC11F018EF05F043
:1009D8007C0E086E096A000E0C6E010E0B6E810EFD
:1009E8000A6E18EF05F0800E0A6E22C47CF018EF2C
:1009F80005F02151010AD8B418EF05F0030AD8B45C
:100A0800D6EF04F0010AD8B4ECEF04F00A0AD8B41F
:100A1800D2EF04F0030AD8B4E1EF04F0010AD8B425
:100A2800F7EF04F018EF05F01200800E040120190A
:100A3800D8A421EF05F023EF05F0BBEF05F0C00EB9
:100A48000A6EACEF05F0E80E086E7F0E096E000E18
:100A58000C6E120E0B6EBBEF05F02251D8A437EFC7
:100A680005F039EF05F077EF05F02251020D050E7C
:100A7800F324F66E7F0EF420F76E0900F5CF08F028
:100A88000A00F5CF09F0020E0824306E000E092086
:100A9800316E30C0F6FF31C0F7FFF86A070EF76411
:100AA80003D00800F55005D0F6CFE1FFF7CFE2FFFD
:100AB800E7500B6E030E0824306E000E0920316ECD
:100AC80030C0F6FF31C0F7FFF86A070EF76403D0AD
:100AD8000800F55005D0F6CFE1FFF7CFE2FFE75069
:100AE8000C6EBBEF05F00A6ABBEF05F0030E22613E
:100AF80080EF05F082EF05F0A6EF05F02251020D18
:100B0800FF0EF324F66E7E0EF420F76E0900F5CF83
:100B180008F00A00F5CF09F008C0F6FF09C0F7FF92
:100B2800F86A070EF76403D00800F55005D0F6CF31
:100B3800E1FFF7CFE2FFE750306E30500B6E0C6AE2
:100B4800BBEF05F00A6ABBEF05F00A6ABBEF05F0D8
:100B58002351010AD8B427EF05F0030AD8B431EFBE
:100B680005F0010AD8B47AEF05F0A9EF05F01200F4
:100B78006D980ABEC2EF05F0C4EF05F007EF06F066
:100B880003AEC9EF05F0CBEF05F0DBEF05F0020E81
:100B98002A6E2050D8A4D3EF05F0D5EF05F0D7EF93
:100BA80005F0CAEC0CF0226A236A55EF06F020EE35
:100BB80001F01950D9261A50DA22080EDF6E20EEFD
:100BC80002F01950D9261A50DA22200EDE6E040ED1
:100BD800DD6E19C0D9FF1AC0DAFF0C0EDF6E19C01E
:100BE800D9FF1AC0DAFF000EDB8E0DC0D9FF0EC088
:100BF800DAFF040EDF6E0DC0D9FF0EC0DAFF000E5B
:100C0800DB8E55EF06F0040120AF0DEF06F00FEF75
:100C180006F029EF06F0010E2A6E2150D8A417EF2E
:100C280006F019EF06F01BEF06F0CAEC0CF0226A8A
:100C3800236A2450D8A423EF06F025EF06F055EFD9
:100C480006F024EC0BF055EF06F0020E2A6E20EEAB
:100C580001F01950D9261A50DA22080EDF6E20EE5C
:100C680002F01950D9261A50DA22200EDE6E040E30
:100C7800DD6E19C0D9FF1AC0DAFF040EDF6E19C085
:100C8800D9FF1AC0DAFF000EDB8E226A236A2450CD
:100C9800D8A451EF06F053EF06F055EF06F025EF14
:100CA80006F012000DC0D9FF0EC0DAFF000EDFBC3F
:100CB800010E336E040E0D180D6E0E500E6E080EDA
:100CC8002C18D8A46AEF06F06CEF06F07EEF06F059
:100CD800040122517F0B6E6E6E50D8B476EF06F089
:100CE80078EF06F07CEF06F0100E2C6E7EEF06F023
:100CF800040E2C6E2A04D8A484EF06F086EF06F0C2
:100D0800CDEF06F020EE02F00D50D9260E50DA2273
:100D1800280EDE6E040EDD6E2AEC09F0020E2B188A
:100D2800D8A499EF06F09BEF06F0A9EF06F00DC0E6
:100D3800D9FF0EC0DAFF040EDF6E0DC0D9FF0EC05A
:100D4800DAFF000EDB8EEEEF06F03350D8A4AFEFDB
:100D580006F0B1EF06F0BFEF06F00DC0D9FF0EC0E8
:100D6800DAFF480EDF6E0DC0D9FF0EC0DAFF000EA5
:100D7800DB8EEEEF06F00DC0D9FF0EC0DAFF080ECD
:100D8800DF6E0DC0D9FF0EC0DAFF000EDB8EEEEF6E
:100D980006F003AED2EF06F0D4EF06F0EDEF06F062
:100DA80006500710D8B4DBEF06F0DDEF06F0ECEFE5
:100DB80006F020EE06F002D8ECEF06F00500FA6E19
:100DC800DE50FD6EDE50FE6EF850FF6EFA501200D7
:100DD800039E2A6A12000001866F00017E51D8B472
:100DE800F8EF06F0FAEF06F006EF07F08651020D6D
:100DF800F3500D0FD96EDA6ADECF87F0DDCF88F0B9
:100E080010EF07F08651020DF350110FD96EDA6A10
:100E1800DECF87F0DDCF88F087518811D8A417EF8F
:100E280007F019EF07F01FEF07F0000E7E6F000EB6
:100E38007F6F83EF07F020EE02F08751D9268851A3
:100E4800DA227FC0DEFF80C0DDFF20EE01F087518F
:100E5800D9268851DA2281C0DFFF87C0D9FF88C030
:100E6800DAFF400EDF1687C0D9FF88C0DAFF000E10
:100E7800DB8687C0D9FF88C0DAFF000EDB8E7E5183
:100E8800D8B449EF07F04BEF07F066EF07F086514B
:100E9800020DF3500D0FD96EDA6ADECF82F0DDCF86
:100EA80083F0040E8219846F8351856F8651020D79
:100EB800F3500D0FD96EDA6A84C0DEFF85C0DDFFFE
:100EC8007FEF07F08651020DF350110FD96EDA6AE1
:100ED800DECF82F0DDCF83F0040E8219846F835158
:100EE800856F8651020DF350110FD96EDA6A84C0EE
:100EF800DEFF85C0DDFF87C07EF088C07FF012006E
:100F0800386E3050D8B48BEF07F08DEF07F099EFBB
:100F180007F03850020DF3500D0FD96EDA6ADECFA4
:100F280039F0DDCF3AF0A3EF07F03850020DF35057
:100F3800110FD96EDA6ADECF39F0DDCF3AF03950C9
:100F48003A10D8A4AAEF07F0ACEF07F0B2EF07F019
:100F5800000E306E000E316E16EF08F020EE02F033
:100F68003950D9263A50DA2231C0DEFF32C0DDFFCF
:100F780020EE01F03950D9263A50DA2233C0DFFF8B
:100F880039C0D9FF3AC0DAFF400EDF1639C0D9FFA1
:100F98003AC0DAFF000EDB8639C0D9FF3AC0DAFF63
:100FA800000EDB8E3050D8B4DCEF07F0DEEF07F030
:100FB800F9EF07F03850020DF3500D0FD96EDA6AC9
:100FC800DECF34F0DDCF35F0040E3418366E3550F0
:100FD800376E3850020DF3500D0FD96EDA6A36C0ED
:100FE800DEFF37C0DDFF12EF08F03850020DF35076
:100FF800110FD96EDA6ADECF34F0DDCF35F0040E8A
:101008003418366E3550376E3850020DF350110FC4
:10101800D96EDA6A36C0DEFF37C0DDFF39C030F07E
:101028003AC031F01200A09A6A6A686A706A710E52
:1010380000017E6F0F0E7F6F000E816F000E806FB4
:10104800000E836F010E826FEEEC10F0160E6F6EBD
:101058009F0E6B6E7B0E696E0001866B8651040DC8
:10106800000EF324D96E040EF420DA6EDE6ADE6A0E
:10107800DE6ADD6A862B070E866545EF08F047EFC6
:1010880008F032EF08F06D8C6E6A6D986D9C68966A
:101098000A6A036A000E056E000E046E68B657EF02
:1010A80008F059EF08F04BEF08F0010E236E010E1F
:1010B800226E216A206A286A0001866B8651020D19
:1010C800F3500D0FD96EDA6ADE6ADD6A8651020DB9
:1010D800F350110FD96EDA6ADE6ADD6A8651170F8E
:1010E800D96EDA6ADF6A8651150FD96EDA6ADF6A55
:1010F800862B010E866583EF08F085EF08F062EF16
:1011080008F0080E0D6E040E0E6E160E706E040EAC
:101118000401036F200E026F080E016F040E006FAA
:10112800008F2F6A000E00016E6F000E6F6F000EA9
:10113800706F000E716F1F6A2C6A1200A09A6A6A9B
:10114800686A706A710E306E0F0E316E000E336E63
:10115800000E326E000E356E010E346E28EC11F062
:10116800160E6F6E9F0E6B6E7B0E696E386A385066
:10117800040D000EF324D96E040EF420DA6EDE6A34
:10118800DE6ADE6ADD6A382A070E3864CEEF08F0B8
:10119800D0EF08F0BBEF08F06D8C6E6A6D986D9C0F
:1011A80068960A6A036A000E056E000E046E68B639
:1011B800E0EF08F0E2EF08F0D4EF08F0010E236E3C
:1011C800010E226E216A206A286A386A3850020D98
:1011D800F3500D0FD96EDA6ADE6ADD6A3850020DF7
:1011E800F350110FD96EDA6ADE6ADD6A3850170FCC
:1011F800D96EDA6ADF6A3850150FD96EDA6ADF6A93
:10120800382A010E38640BEF09F00DEF09F0EAEF08
:1012180008F0080E0D6E040E0E6E160E706E040E9B
:101228000401036F200E026F080E016F040E006F99
:10123800008F2F6A000E00016E6F000E6F6F000E98
:10124800706F000E716F1F6A2C6A1200080E306EE4
:101258000C5007E1080E0B5CD8B035EF09F037EFFA
:1012680009F04FEF09F00BC030F02B50D8A43FEF36
:1012780009F041EF09F045EF09F0010E2B6E4FEF31
:1012880009F02B04D8A44BEF09F04DEF09F04FEF0C
:1012980009F0020E2B6E30500B5E000E0C5A20EE39
:1012A80001F00D50D9260E50DA2230C0DFFF280E8B
:1012B8000001726F040E736F0AB065EF09F067EFF3
:1012C80009F0A9EF09F084EF09F008C0F6FF09C09A
:1012D800F7FFF86A72C0D9FF73C0DAFF070EF76428
:1012E80003D00800F55005D0F6CFE1FFF7CFE2FFB5
:1012F800E750DF6E084A092A0001724B732B30064B
:101308003050D8A48AEF09F08CEF09F069EF09F0A2
:10131800B1EF09F008C0F6FF09C0F7FFF86A72C01C
:10132800D9FF73C0DAFF070EF76403D00800F55041
:1013380005D0F6CFE1FFF7CFE2FFE750DF6E084AAE
:10134800092A0001724B732B30063050D8A4AFEF36
:1013580009F0B1EF09F08EEF09F01200040120390D
:10136800E832030B0009D8B4BCEF09F0BEEF09F06E
:1013780003EF0AF032EF0AF00A8E080E2C6E32EFF5
:101388000AF019EC05F032EF0AF09AEC0BF032EFA4
:101398000AF02F0E086E096A0A80010E0B6E0A8E7B
:1013A80032EF0AF0ADEC0AF032EF0AF009EC00F087
:1013B80032EF0AF024512E0F4D6E4DC008F0096A25
:1013C8000A80010E0B6E0A8E32EF0AF00A8E245143
:1013D8002E0FD96EDA6A22C4DFFF32EF0AF0000E50
:1013E8003F6E020E3E6E000E406E000E416E000E05
:1013F800436E000E426E04EC0CF032EF0AF02151FD
:10140800000AD8B4D6EF09F0010AD8B4DAEF09F027
:10141800020AD8B4DAEF09F0060AD8B4C0EF09F026
:10142800030AD8B4C5EF09F0010AD8B4F3EF09F0FC
:101438000F0AD8B4CDEF09F0010AD8B4C9EF09F002
:10144800030AD8B4DEEF09F0010AD8B4EAEF09F0CC
:10145800070AD8B432EF0AF032EF0AF012006DA290
:1014680038EF0AF03AEF0AF099EF0AF0010E84EC2F
:101478000FF0ACEF0AF01D041E10D8A446EF0AF0D6
:1014880048EF0AF04DEF0AF0010E53EC0FF0AAEF07
:101498000AF04B0E1D181E10D8A455EF0AF057EF8E
:1014A8000AF05CEF0AF0010E84EC0FF0AAEF0AF0E4
:1014B8001E5009E1970E1D5CD8A065EF0AF067EF92
:1014C8000AF06DEF0AF0000E1E6E000E1D6EAAEFF8
:1014D8000AF0AAEF0AF01D041E10D8A476EF0AF04D
:1014E80078EF0AF07DEF0AF0010E53EC0FF0AAEF47
:1014F8000AF0320E1D181E10D8A485EF0AF087EFE7
:101508000AF08CEF0AF0010E84EC0FF0AAEF0AF053
:10151800B70E1D5C030E1E58D8A095EF0AF097EF82
:101528000AF0AAEF0AF067EF0AF02C50336E346A1B
:101538003450000AD8B4A3EF0AF06FEF0AF0335022
:10154800200AD8B43FEF0AF06FEF0AF01D4A1E2AAE
:1015580012000401286B296B05EF0BF00A8E290491
:10156800D8A4B9EF0AF0BBEF0AF015EF0BF0288307
:1015780015EF0BF00A8E15EF0BF00A8E24510F0BA6
:101588000009D8B4CAEF0AF0CCEF0AF015EF0BF057
:1015980024BFD1EF0AF0D3EF0AF0E0EF0AF02451AC
:1015A8000F0B020DF350110FD96EDA6ADECF30F04F
:1015B800DDCF31F0EBEF0AF024510F0B020DF350A1
:1015C8000D0FD96EDA6ADECF30F0DDCF31F030C0E2
:1015D800D9FF31C0DAFFDFAEF4EF0AF0F6EF0AF018
:1015E80015EF0BF030C0D9FF31C0DAFFDFA4FFEFF1
:1015F8000AF001EF0BF015EF0BF0010E286F15EF55
:101608000BF020511F0B000AD8B4B2EF0AF0010A00
:10161800D8B4BEEF0AF0030AD8B4C1EF0AF015EF48
:101628000BF00AAE1AEF0BF01CEF0BF023EF0BF0E8
:10163800280E086E040E096E0A80020E0B6E120048
:101648002350D8A42AEF0BF02CEF0BF099EF0BF0F6
:10165800010E236E2250D8A434EF0BF036EF0BF0B6
:1016680099EF0BF0010E226E020E2A18D8A43FEF54
:101678000BF041EF0BF056EF0BF020EE01F00D50A0
:10168800D9260E50DA22DF6A0DC0D9FF0EC0DAFF64
:10169800480EDF6E0DC0D9FF0EC0DAFF000EDB8EDC
:1016A80099EF0BF02A04D8A45CEF0BF05EEF0BF077
:1016B80099EF0BF0266A20EE01F01B50D9261C503A
:1016C800DA22080EDF6E20EE02F01B50D9261C50DD
:1016D800DA22200EDE6E040EDD6E1BC0D9FF1CC0A0
:1016E800DAFF040EDF6E1BC0D9FF1CC0DAFF000E44
:1016F800DB8E010E266E20EE01F01950D9261A5005
:10170800DA22080EDF6E20EE02F01950D9261A50A0
:10171800DA22200EDE6E040EDD6E19C0D9FF1AC063
:10172800DAFF800EDF6E99EF0BF012000A8E710E51
:10173800306E0F0E316E000E336E000E326E000EDC
:10174800356E010E346E28EC11F0000E306E040E6A
:10175800316E000E336E000E326E000E356E200EA6
:10176800346E28EC11F06D8C466A4650170FD96E0E
:10177800DA6ADF6A4650150FD96EDA6ADF6A462AD6
:10178800010E4664CAEF0BF0CCEF0BF0B9EF0BF08B
:101798002E0E306E316A000E336E000E326E000E61
:1017A800356E010E346E28EC11F06D9C080E0D6E2E
:1017B800040E0E6E000E1B6E040E1C6E1BC019F07C
:1017C8001CC01AF022C42FF02F50D8A4EEEF0BF053
:1017D800F0EF0BF0F4EF0BF0100E2C6E03EF0CF0A3
:1017E800000E3F6E010E3E6E2F0E406E416A000ED7
:1017F800436E010E426E04EC0CF0200E2C6E1200AB
:1018080034EF0CF033EC0AF000017A2909E17F0E7D
:101818007B19D8B412EF0CF014EF0CF018EF0CF0A1
:101828007A4B7B2B6DEF0CF0000E7B6F000E7A6FFE
:101838006DEF0CF033EC0AF0010E37EC10F06DEFA1
:101848000CF033EC0AF0020E37EC10F06DEF0CF0F0
:10185800EFEC0EF06DEF0CF074EC04F06DEF0CF0A3
:101868003EC044F03FC045F04550000AD8B443EFAD
:101878000CF07F0AD8B466EF0CF06DEF0CF0445012
:10188800010AD8B42CEF0CF0030AD8B46DEF0CF0B1
:10189800010AD8B430EF0CF0060AD8B46DEF0CF09A
:1018A800770AD8B46DEF0CF0010AD8B406EF0CF043
:1018B800070AD8B425EF0CF0010AD8B41EEF0CF0D3
:1018C8006DEF0CF04450FF0AD8B46DEF0CF06DEFDB
:1018D8000CF012002D0E256E2DC04EF0FD0E4E168A
:1018E800D8A479EF0CF07BEF0CF0BDEF0CF02DC015
:1018F8004EF0D8904E323F0E4E164E50040D000E4C
:10190800F3241B6E040EF4201C6E1BC019F01CC0BF
:101918001AF0040E1918196E1A501A6E1BC0D9FF46
:101928001CC0DAFFDF30E8320F0B0D0AD8A49FEF96
:101938000CF0A1EF0CF0B9EF0CF0200E306E040E95
:10194800316E20EE02F01B50D9261C50DA22DECF71
:1019580032F0DDCF33F0000E356E080E346E0FEC2A
:1019680010F072EC0DF0C9EF0CF0E9EC0DF0C9EFD6
:101978000CF02D50FD0B040AD8A4C5EF0CF0C7EFEE
:101988000CF0C9EF0CF056EC06F01200216A206A40
:10199800020E2A18D8A4D3EF0CF0D5EF0CF0F5EF0F
:1019A8000CF020EE01F01950D9261A50DA22080E50
:1019B800DF6E20EE02F01950D9261A50DA22280ECE
:1019C800DE6E040EDD6E19C0D9FF1AC0DAFF480EAC
:1019D800DF6E19C0D9FF1AC0DAFF000EDB8E1DEFCB
:1019E8000DF00B500401265D0C502759D8B0FFEFBD
:1019F8000CF001EF0DF005EF0DF026C40BF027C435
:101A08000CF02AEC09F020EE02F00D50D9260E5009
:101A1800DA22280EDE6E040EDD6E0DC0D9FF0EC070
:101A2800DAFF480EDF6E0DC0D9FF0EC0DAFF000ED8
:101A3800DB8E1200376E000E386E040E396E305091
:101A4800316E326AD890313632363750336E346A56
:101A5800D89033363436D890333634363150332430
:101A6800356E32503420366ED89035363636D890AA
:101A780035363636355038263650392238C0D9FFF3
:101A880039C0DAFFDF9E3050D8A44DEF0DF04FEF8C
:101A98000DF05BEF0DF03750020DF350110FD96EBA
:101AA800DA6A38C0DEFF39C0DDFF65EF0DF0375068
:101AB800020DF3500D0FD96EDA6A38C0DEFF39C057
:101AC800DDFF38C0D9FF39C0DAFFDF9C20EE04F013
:101AD8003850D9263950DA22DF8C12002B6A246A52
:101AE800216A206A266A2A6A0DC0D9FF0EC0DAFF69
:101AF8007F0EDF16040E0D180D6E0E500E6E0DC003
:101B0800D9FF0EC0DAFF7F0EDF16040E0D180D6E1A
:101B18000E500E6E19C0D9FF1AC0DAFF7F0EDF16FD
:101B28000A6A000E0C6E000E0B6E036A000E056E3C
:101B3800000E046EB2EC09F0000E3F6E030E3E6E0E
:101B4800000E406E000E416E000E436E000E426E97
:101B580004EC0CF0BCEC05F012000001806FCEEF35
:101B68000DF081A8BAEF0DF0BDEF0DF0010EBEEF3C
:101B78000DF0000EE8EF0DF081AAC5EF0DF0C8EFEB
:101B88000DF0010EC9EF0DF0000EE8EF0DF0000E9C
:101B9800E8EF0DF0000180517E6F7F6B7F51000AE6
:101BA800D8B4D9EF0DF0CBEF0DF07E51000AD8B4C0
:101BB800CBEF0DF0010AD8B4B5EF0DF0030AD8B495
:101BC800C0EF0DF0CBEF0DF01200020E2A18D8A4CA
:101BD800F0EF0DF0F2EF0DF0F6EF0DF0BCEC03F0C6
:101BE80020EF0EF02A6A2650D8A4FDEF0DF0FFEF83
:101BF8000DF01FEF0EF020EE01F01950D9261A5003
:101C0800DA22080EDF6E20EE02F01950D9261A509B
:101C1800DA22200EDE6E040EDD6E19C0D9FF1AC05E
:101C2800DAFF0C0EDF6E19C0D9FF1AC0DAFF000EFA
:101C3800DB8E20EF0EF0266A12000600FACF50F075
:101C4800FBCF51F0E1CF52F0E2CF53F0D9CF54F0AF
:101C5800DACF55F0F3CF56F0F4CF57F0F6CF58F06F
:101C6800F7CF59F0F8CF5AF0F5CF5BF0B2EC02F0AD
:101C78005BC0F5FF5AC0F8FF59C0F7FF58C0F6FF20
:101C880057C0F4FF56C0F3FF55C0DAFF54C0D9FF60
:101C980053C0E2FF52C0E1FF51C0FBFF50C0FAFF42
:101CA8005C9211000001806F66EF0EF0959688EF48
:101CB8000EF0959288EF0EF0959488EF0EF09596B9
:101CC80088EF0EF0000180517E6F7F6B7F51000A14
:101CD800D8B471EF0EF088EF0EF07E51000AD8B438
:101CE80088EF0EF0010AD8B45AEF0EF0030AD8B400
:101CF8005DEF0EF0010AD8B460EF0EF0070AD8B411
:101D080063EF0EF088EF0EF012000001806F99EF7C
:101D18000EF08C86BBEF0EF08C82BBEF0EF08C843D
:101D2800BBEF0EF08C86BBEF0EF0000180517E6F8A
:101D38007F6B7F51000AD8B4A4EF0EF0BBEF0EF012
:101D48007E51000AD8B4BBEF0EF0010AD8B48DEF6B
:101D58000EF0030AD8B490EF0EF0010AD8B493EF4E
:101D68000EF0070AD8B496EF0EF0BBEF0EF0120093
:101D78000001806FCCEF0EF08C96EEEF0EF08C9297
:101D8800EEEF0EF08C94EEEF0EF08C96EEEF0EF078
:101D9800000180517E6F7F6B7F51000AD8B4D7EF66
:101DA8000EF0EEEF0EF07E51000AD8B4EEEF0EF012
:101DB800010AD8B4C0EF0EF0030AD8B4C3EF0EF08E
:101DC800010AD8B4C6EF0EF0070AD8B4C9EF0EF06E
:101DD800EEEF0EF01200000E0001686F000E696F42
:101DE800040E6C6F6D6B010E796FF40E786F01EF56
:101DF8000FF07AC074F07BC075F07A51741907E15E
:101E08007B517519D8A40BEF0FF00DEF0FF0FDEF14
:101E18000EF01E0E3A6E010E5FEC10F0000E306EE2
:101E2800080E316E050E326E010E336E010E84EC13
:101E380007F030C06AF031C06BF01200326E31EF3B
:101E48000FF0959652EF0FF0959252EF0FF0959490
:101E580052EF0FF0959652EF0FF03250306E316A14
:101E68003150000AD8B43BEF0FF052EF0FF030506A
:101E7800000AD8B452EF0FF0010AD8B425EF0FF0DA
:101E8800030AD8B428EF0FF0010AD8B42BEF0FF0EB
:101E9800070AD8B42EEF0FF052EF0FF01200326E8F
:101EA80062EF0FF08C8683EF0FF08C8283EF0FF0D8
:101EB8008C8483EF0FF08C8683EF0FF03250306EF6
:101EC800316A3150000AD8B46CEF0FF083EF0FF08D
:101ED8003050000AD8B483EF0FF0010AD8B456EF97
:101EE8000FF0030AD8B459EF0FF0010AD8B45CEF29
:101EF8000FF0070AD8B45FEF0FF083EF0FF012006E
:101F0800326E93EF0FF08C96B4EF0FF08C92B4EF23
:101F18000FF08C94B4EF0FF08C96B4EF0FF03250B2
:101F2800306E316A3150000AD8B49DEF0FF0B4EF2B
:101F38000FF03050000AD8B4B4EF0FF0010AD8B44B
:101F480087EF0FF0030AD8B48AEF0FF0010AD8B46C
:101F58008DEF0FF0070AD8B490EF0FF0B4EF0FF041
:101F6800120070A0BAEF0FF0BCEF0FF0E3EF0FF024
:101F78001BC0D9FF1CC0DAFF800EDE18D8A4C7EF3B
:101F88000FF0C9EF0FF0E2EF0FF00DC0D9FF0EC050
:101F9800DAFF840EDE18D8A4D4EF0FF0D6EF0FF0D6
:101FA800E2EF0FF01BC0D9FF1CC0DAFF0C0EDF6E8A
:101FB8001BC0D9FF1CC0DAFF000EDB8E7090689A38
:101FC80012000001836FF4EF0FF0010E56EC0EF0D3
:101FD800020E56EC0EF0010E85EC10F00EEF10F02C
:101FE80000018351816F826B8251000AD8B4FFEFE0
:101FF8000FF00EEF10F08151000AD8B4E9EF0FF09E
:10200800010AD8B40EEF10F0030AD8B40EEF10F09E
:102018000EEF10F0120032C038F033C039F030C083
:1020280036F031C037F029EF10F038C0D9FF39C089
:10203800DAFFDF503A6E384A392A36C0D9FF37C03E
:10204800DAFF3AC0DFFF364A372A3406D8A0350609
:10205800342806E13528D8A434EF10F036EF10F014
:1020680019EF10F01200356E45EF10F0010E22EC5A
:102078000FF0020E22EC0FF0010EAAEC10F05EEF4A
:1020880010F03550336E346A3450000AD8B44FEF2C
:1020980010F05EEF10F03350000AD8B43AEF10F0A9
:1020A800010AD8B45EEF10F0030AD8B45EEF10F05E
:1020B8005EEF10F012003D6E3AA465EF10F067EF86
:1020C80010F06CEF10F0000E306E3D501EEC0DF06D
:1020D8003AA271EF10F073EF10F078EF10F0010EE4
:1020E800306E3D501EEC0DF0700E3D243B6E3C6A88
:1020F8000F0E3C223BC0D9FF3CC0DAFF3AC0DFFFDD
:1021080012000001806F8FEF10F09388A9EF10F094
:10211800938AA9EF10F0000180517E6F7F6B7F5189
:10212800000AD8B49AEF10F0A9EF10F07E51000A17
:10213800D8B4A9EF10F0010AD8B489EF10F0030A57
:10214800D8B48CEF10F0A9EF10F01200326EB3EF94
:1021580010F09388CCEF10F0938ACCEF10F0325047
:10216800306E316A3150000AD8B4BDEF10F0CCEFB0
:1021780010F03050000AD8B4CCEF10F0010AD8B4EF
:10218800ADEF10F0030AD8B4B0EF10F0CCEF10F0B8
:1021980012002C50D8A4D3EF10F0D5EF10F0EDEFCB
:1021A80010F06D6A696A160E6F6E9F0E6B6E7B0E6D
:1021B800696ED08EA28AA08AF28EE4EF10F06D8646
:1021C8006DA6E9EF10F0EBEF10F0E3EF10F0010E61
:1021D8002C6E12007EC084F07FC085F0FCEF10F0FA
:1021E80084C0D9FF85C0DAFF80C0DFFF844B852B10
:1021F80000018207D8A08307822906E18329D8A491
:1022080008EF11F00AEF11F0F4EF10F01200286A4D
:10221800000E3F6E740E3E6E000E406E000E416E54
:10222800000E436E000E426E04EC0CF06D92699441
:102238001FEF11F0689468B424EF11F026EF11F045
:102248001EEF11F01F6A120030C036F031C037F0AF
:1022580036EF11F036C0D9FF37C0DAFF32C0DFFFE2
:10226800364A372A3406D8A03506342806E13528F8
:10227800D8A441EF11F043EF11F02EEF11F0120046
:10228800010E00016E27000E6F2370237123285062
:10229800D8A451EF11F053EF11F05DEF11F01F2AA0
:1022A8001F50D8A45AEF11F05CEF11F05DEF11F058
:1022B8001F681200698468986D82010E286E1F6A73
:1022C800000E3F6E750E3E6E000E406E000E416EA3
:1022D800000E436E000E426E04EC0CF0120000EE8D
:1022E80060F01E0EEE6AE806FDE100EE01F02F0E2A
:1022F800EE6AE806FDE15C905C92000EF86E000163
:10230800C4EF11F0050108A38CEF11F08EEF11F066
:1023180093EF11F0020E89EC0EF096EF11F0020E19
:10232800BCEC0EF01200050108A39DEF11F09FEF21
:1023380011F0A4EF11F0020E53EC0FF0A7EF11F01B
:10234800020E84EC0FF01200280E016E040E026ECD
:10235800000E056E080E046EA20E066E230E076EA2
:10236800038E1200316E3150D8A4BDEF11F0BFEFCB
:1023780011F0C3EF11F030C078F00001796B120052
:10238800000EE5EC0FF017EC08F0CDEC10F08CEC3B
:1023980001F0CBEF11F007EF00F028C408F597EC37
:0423A80011F012001E
:107EFE0000FA7F6F7FCC7FA37F05010906A10105E4
:107F0E000719E029E71500250175019508810295ED
:107F1E00017508810395057501050819012905915B
:107F2E0002950175039103950675081500256505E3
:107F3E0007190029658100C0050C0901A101850200
:107F4E00050C150025017501950709B509B609B788
:107F5E0009CD09E209E909EA810295018101C00012
:107F6E000034034D006900630072006F0063006807
:107F7E000069007000200054006500630068006E08
:107F8E00006F006C006F0067007900200049006EE2
:107F9E000063002E0009022900010100C03209040D
:107FAE0000000203010100092111010001226800F5
:107FBE0007058103090001070501030100011C03E8
:107FCE004B006500790062006F0061007200640072
:107FDE002000440065006D006F00120100020000D9
:107FEE000008D80455000100010200010403090431
:017FFE000082
:020000040030CA
:0E000000240E3F1EFF8181FF0FC00FE00F4056
:00000001FF
