:0400000007EF00F016
:0A0008005C8284ED12F0D6EF15F0D3
:1008000000CF44A17805010906A101050719E029D7
:10081000E71500250175019508810295017508818C
:1008200003950575010508190129059102950175C2
:10083000039103950675081500256505071900291C
:10084000658100C034034D006900630072006F00D1
:1008500063006800690070002000540065006300B8
:1008600068006E006F006C006F0067007900200068
:1008700049006E0063002E0009022900010100C03A
:1008800032090400000203010100092111010001E5
:10089000223F000705810308000107050103080046
:1008A000011C034B006500790062006F006100725B
:1008B0000064002000440065006D006F001201001C
:1008C0000200000008D804550001000102000104E4
:1008D0000309040004012205D8A471EF04F073EFAA
:1008E00004F08CEF04F020511F0B0009D8A47BEF1B
:1008F00004F07DEF04F08CEF04F00A8E030E211952
:10090000D8A485EF04F087EF04F08BEF04F0010E1C
:10091000296E8CEF04F0296A2251D8A492EF04F0DA
:1009200094EF04F0ECEF05F020511F0B020AD8A45D
:100930009CEF04F09EEF04F0ECEF05F024510F0B58
:100940000009D8B4A6EF04F0A8EF04F0ECEF05F02E
:1009500024510F0B466E020E4660B1EF04F0B3EF68
:1009600004F0ECEF05F0200E2C18D8A4BAEF04F038
:10097000BCEF04F0ECEF05F00A8E24BFC2EF04F0E8
:10098000C4EF04F0DAEF04F024510F0B020DF35022
:10099000110FD96EDA6ADECF4BF0DDCF4CF0245167
:1009A0000F0B466E4650150FD96EDA6ADF504A6E4D
:1009B000EEEF04F024510F0B020DF3500D0FD96E22
:1009C000DA6ADECF4BF0DDCF4CF024510F0B466ED0
:1009D0004650170FD96EDA6ADF504A6E4AB0F3EF0D
:1009E00004F0F5EF04F0FDEF04F0FB0E4B144B6E3A
:1009F000FF0E4C144C6E02EF05F0040E4B104B6EC4
:100A00004C504C6E24BF07EF05F009EF05F016EFD0
:100A100005F024510F0B020DF350110FD96EDA6A55
:100A20004BC0DEFF4CC0DDFF21EF05F024510F0B62
:100A3000020DF3500D0FD96EDA6A4BC0DEFF4CC0C9
:100A4000DDFF030E2119D8A428EF05F02AEF05F0E9
:100A50005CEF05F04BC0D9FF4CC0DAFFDFAE33EFDF
:100A600005F035EF05F04EEF05F024BF3AEF05F045
:100A70003CEF05F046EF05F024510F0B466E465053
:100A8000150FD96EDA6ADF824EEF05F024510F0B95
:100A9000466E4650170FD96EDA6ADF824BC0D9FF17
:100AA0004CC0DAFF000EDB844BC0D9FF4CC0DAFF2C
:100AB000000EDB8EECEF05F0040E4B184B6E4C5025
:100AC0004C6E4BC0D9FF4CC0DAFFDFAE6AEF05F0C9
:100AD0006CEF05F088EF05F04BC0D9FF4CC0DAFF92
:100AE0007F0EDF164BC0D9FF4CC0DAFF000EDB8C47
:100AF000000E3F6E050E3E6E4BC040F04CC041F004
:100B0000000E436E020E426E67EC10F08EEF05F0A1
:100B10004BC0D9FF4CC0DAFF000EDB8C040E4B1823
:100B20004B6E4C504C6E4AB298EF05F09AEF05F0C0
:100B3000A5EF05F04BC0D9FF4CC0DAFFDFAEA3EF45
:100B400005F0A5EF05F0D5EF05F0040124BFABEFEC
:100B500005F0ADEF05F0B7EF05F024510F0B466E31
:100B60004650150FD96EDA6ADF92BFEF05F02451B7
:100B70000F0B466E4650170FD96EDA6ADF924BC0E4
:100B8000D9FF4CC0DAFF3B0EDF16000E3F6E050E9C
:100B90003E6E4BC040F04CC041F0000E436E020E62
:100BA000426E67EC10F0DBEF05F04BC0D9FF4CC094
:100BB000DAFF3B0EDF16040124510F0B466E476A25
:100BC000700E4624486E0F0E4720496E48C0D9FF6C
:100BD00049C0DAFFFE0EDF161200200E2C60F3EF84
:100BE00005F0F5EF05F0F7EF05F012EF07F06DA255
:100BF000FCEF05F0FEEF05F007EF06F0010E14EC38
:100C000012F012EF07F07AC076F07BC077F00001A7
:100C10007A51761907E17B517719D8A412EF06F0C3
:100C200014EF06F003EF06F07451765D8C6F75518A
:100C300077598D6F8DBF21EF06F01FEF06F02DEF76
:100C400006F07451765D896F755177598A6FFF0E82
:100C500089258C6F7F0E8A218D6F8DBF39EF06F04D
:100C6000890E8C5D130E8D59D8A039EF06F03BEF3D
:100C700006F041EF06F0780E7625746FEC0E7721C2
:100C8000756F68516911D8B448EF06F04AEF06F065
:100C900055EF06F068C0D9FF69C0DAFFDFBE53EF39
:100CA00006F055EF06F0EBEF06F0000E7E6F050E36
:100CB0007F6F000E816F000E806F000E836F080E35
:100CC000826F51EC15F0010E14EC12F0E806D8A476
:100CD0006CEF06F06EEF06F089EF06F000016D5143
:100CE000D8A475EF06F077EF06F08BEF06F0010E53
:100CF0006D6F6CC002F56C2B280E6C19D8A483EFB5
:100D000006F085EF06F08BEF06F0040E6C6F8BEFAC
:100D100006F000016D6B8B6B8E6B000E8E25D96E0D
:100D2000DA6A050EDA228E51600FE16EE26ADE5059
:100D3000E618D8B49EEF06F0A0EF06F0A4EF06F098
:100D4000010E8B6FADEF06F08E2B070E8E65ABEFAD
:100D500006F0ADEF06F08DEF06F078517911D8B4BA
:100D6000B4EF06F0B6EF06F0C7EF06F078518C5DF1
:100D70008D51800A896F7951800A8959D8A0C3EFB3
:100D800006F0C5EF06F0C7EF06F0010E8B6F8B057E
:100D9000D8A4CDEF06F0CFEF06F0EBEF06F025EE8E
:100DA00000F010EE60F0070EDBCFE3FFE806FCE298
:100DB000010E7E6F000E7F6F050E806F080E816F33
:100DC000010E52EC0BF07EC068F07FC069F076C077
:100DD00074F077C075F000016A516B11D8B4F3EF6D
:100DE00006F0F5EF06F000EF07F06AC0D9FF6BC020
:100DF000DAFFDFBEFEEF06F000EF07F012EF07F0BC
:100E0000E9EC15F0000E00017E6F080E7F6F050EF5
:100E1000806F010E816F010E52EC0BF07EC06AF004
:100E20007FC06BF012002C04D8A419EF07F01BEF61
:100E300007F027EF07F06DBA20EF07F022EF07F079
:100E400027EF07F0686A69806988020E2C6E68A433
:100E50002CEF07F02EEF07F038EF07F069A433EF1F
:100E600007F035EF07F038EF07F068946EEC15F0F7
:100E70006DA23DEF07F03FEF07F042EF07F0A19AB8
:100E80001CEF08F068A047EF07F049EF07F056EFB6
:100E900007F069A04EEF07F050EF07F056EF07F0AC
:100EA00005EC0DF0A08A040E2C6E689068A85BEF2C
:100EB00007F05DEF07F066EF07F069A862EF07F053
:100EC00064EF07F066EF07F0C1EC15F068AC6BEF6C
:100ED00007F06DEF07F098EF07F069AC72EF07F0DD
:100EE00074EF07F082EF07F0000E3F6E730E3E6E58
:100EF000000E406E000E416E000E436E010E426EFB
:100F000067EC10F0689CA7EC15F02550D8B48BEF77
:100F100007F08DEF07F08EEF07F025062550D8A4D7
:100F200094EF07F096EF07F098EF07F087EC0FF0DB
:100F300068AA9DEF07F09FEF07F0A8EF07F069AAF6
:100F4000A4EF07F0A6EF07F0A8EF07F018EC14F0F5
:100F500068A2ADEF07F0AFEF07F0C4EF07F069A2AA
:100F6000B4EF07F0B6EF07F0C4EF07F07F0E3F6E67
:100F70003E68000E406E000E416E000E436E010E84
:100F8000426E67EC10F06A6A040E2C60CAEF07F03C
:100F9000CCEF07F0CFEF07F0A19A1CEF08F069A69D
:100FA000D4EF07F0D6EF07F01BEF08F04F6A68A602
:100FB000DCEF07F0DEEF07F01BEF08F06CCF2DF051
:100FC0002D30E832E8320F0B276E68962DB4EBEF28
:100FD00007F0EDEF07F0F4EF07F02750150FD96E8B
:100FE000DA6ADF70F9EF07F02750170FD96EDA6A67
:100FF000DF702750D8A4FFEF07F001EF08F005EFEE
:1010000008F0D1EC10F012EF08F0000E3F6E720EF7
:101010003E6E2D0E406E416A000E436E000E426E13
:1010200067EC10F04F2A030E4F6419EF08F01BEF26
:1010300008F0D7EF07F0A19A120020EE01F01B5044
:10104000D9261C50DA22DF50346E3450045C000E76
:101050000558D8B02EEF08F030EF08F032EF08F066
:1010600004C034F03450045E000E055A336A48EF71
:1010700008F0280E3324D96EDA6A040EDA2201C091
:10108000E1FF02C0E2FFDFCFE7FF014A022A332A75
:101090003450335CD8A04FEF08F051EF08F039EF2F
:1010A00008F004500510D8B458EF08F05AEF08F0D3
:1010B00093EF08F020EE01F01950D9261A50DA22E9
:1010C000080EDF6E20EE02F01950D9261A50DA22EF
:1010D000280EDE6E040EDD6E1BC0D9FF1CC0DAFFC9
:1010E000DFBC75EF08F077EF08F085EF08F019C066
:1010F000D9FF1AC0DAFF480EDF6E19C0D9FF1AC037
:10110000DAFF000EDB8ED4EF08F019C0D9FF1AC049
:10111000DAFF080EDF6E19C0D9FF1AC0DAFF000E21
:10112000DB8ED4EF08F020EE01F01950D9261A50CA
:10113000DA22080EDF6E20EE02F01950D9261A507E
:10114000DA22200EDE6E040EDD6E19C0D9FF1AC041
:10115000DAFF040EDF6E19C0D9FF1AC0DAFF000EE5
:10116000DB8E06500710D8B4B8EF08F0BAEF08F0DD
:10117000C9EF08F020EE06F002D8C9EF08F005002C
:10118000FA6EDE50FD6EDE50FE6EF850FF6EFA50C5
:101190001200039E2450D8A4D0EF08F0D2EF08F03C
:1011A000D4EF08F087EC0FF01200040120511F0B60
:1011B000E806D8B4DEEF08F0E0EF08F0E2EF08F060
:1011C0007DEF09F02451D8B4E8EF08F0EAEF08F019
:1011D000ECEF08F07DEF09F0060E2119D8A4F3EF2B
:1011E00008F0F5EF08F02AEF09F01BEF09F02F04E3
:1011F000D8A4FDEF08F0FFEF08F02AEF09F08A0EFF
:10120000086E0850D8A4080E096E000E0C6E090E68
:101210000B6EC00E0A6E2AEF09F0050E086E08501C
:10122000D8A4080E096E000E0C6E3F0E0B6EC00E99
:101230000A6E2AEF09F02351210AD8B4F7EF08F01B
:10124000030AD8B40DEF09F0010AD8B42AEF09F067
:101250002AEF09F02039E832030BE806D8B433EF5F
:1012600009F035EF09F062EF09F07DEF09F00BECC2
:1012700016F07DEF09F07D0E086E096A000E0C6E07
:10128000010E0B6EC10E0A6E7DEF09F0800E0A6E24
:1012900023C47DF07DC030F0225119EC16F07DEFB3
:1012A00009F07C0E086E096A000E0C6E010E0B6EC2
:1012B000810E0A6E7DEF09F0800E0A6E22C47CF06A
:1012C0007DEF09F02151010AD8B47DEF09F0030A3E
:1012D000D8B43BEF09F0010AD8B451EF09F00A0A7B
:1012E000D8B437EF09F0030AD8B446EF09F0010A81
:1012F000D8B45CEF09F07DEF09F01200800E040114
:101300002019D8A486EF09F088EF09F01EEF0AF043
:10131000C00E0A6E0FEF0AF0BD0E086E0850D8A47A
:10132000080E096E000E0C6E120E0B6E1EEF0AF008
:101330002251D8A49EEF09F0A0EF09F0DCEF09F0EC
:101340002251040F306E30C0F6FF080EF76E090010
:10135000F5CF08F0080E096E020E0824306E000E5C
:101360000920316E30C0F6FF31C0F7FFF86A070E72
:10137000F76403D00800F55005D0F6CFE1FFF7CFB2
:10138000E2FFE7500B6E030E0824306E000E0920BA
:10139000316E30C0F6FF31C0F7FFF86A070EF76410
:1013A00003D00800F55005D0F6CFE1FFF7CFE2FFFC
:1013B000E7500C6E1EEF0AF00A6A1EEF0AF0030EE9
:1013C0002261E5EF09F0E7EF09F009EF0AF0225199
:1013D000010F306E30C0F6FF080EF76E0900F5CF32
:1013E00008F0080E096E08C0F6FF09C0F7FFF86A9A
:1013F000070EF76403D00800F55005D0F6CFE1FFE3
:10140000F7CFE2FFE750306E30500B6E0C6A1EEFE4
:101410000AF00A6A1EEF0AF00A6A1EEF0AF0235168
:10142000010AD8B48CEF09F0030AD8B498EF09F098
:10143000010AD8B4DFEF09F00CEF0AF012006D9842
:101440000ABE25EF0AF027EF0AF06AEF0AF003AEB2
:101450002CEF0AF02EEF0AF03EEF0AF0020E2A6E91
:101460002050D8A436EF0AF038EF0AF03AEF0AF02D
:101470002DEC11F0226A236AB8EF0AF020EE01F099
:101480001950D9261A50DA22080EDF6E20EE02F02B
:101490001950D9261A50DA22200EDE6E040EDD6EA7
:1014A00019C0D9FF1AC0DAFF0C0EDF6E19C0D9FFC0
:1014B0001AC0DAFF000EDB8E0DC0D9FF0EC0DAFFB6
:1014C000040EDF6E0DC0D9FF0EC0DAFF000EDB8EFA
:1014D000B8EF0AF0040120AF70EF0AF072EF0AF0E3
:1014E0008CEF0AF0010E2A6E2150D8A47AEF0AF090
:1014F0007CEF0AF07EEF0AF02DEC11F0226A236AED
:101500002450D8A486EF0AF088EF0AF0B8EF0AF06A
:1015100087EC0FF0B8EF0AF0020E2A6E20EE01F011
:101520001950D9261A50DA22080EDF6E20EE02F08A
:101530001950D9261A50DA22200EDE6E040EDD6E06
:1015400019C0D9FF1AC0DAFF040EDF6E19C0D9FF27
:101550001AC0DAFF000EDB8E226A236A2450D8A458
:10156000B4EF0AF0B6EF0AF0B8EF0AF088EF0AF02D
:1015700012000DC0D9FF0EC0DAFF000EDFBC010E55
:10158000336E040E0D180D6E0E500E6E080E2C18D4
:10159000D8A4CDEF0AF0CFEF0AF0E1EF0AF0040192
:1015A00022517F0B6E6E6E50D8B4D9EF0AF0DBEF8C
:1015B0000AF0DFEF0AF0100E2C6EE1EF0AF0040ED5
:1015C0002C6E2A04D8A4E7EF0AF0E9EF0AF030EF16
:1015D0000BF020EE02F00D50D9260E50DA22280E24
:1015E000DE6E040EDD6E8DEC0DF0020E2B18D8A40D
:1015F000FCEF0AF0FEEF0AF00CEF0BF00DC0D9FF84
:101600000EC0DAFF040EDF6E0DC0D9FF0EC0DAFF88
:10161000000EDB8E51EF0BF03350D8A412EF0BF01D
:1016200014EF0BF022EF0BF00DC0D9FF0EC0DAFF64
:10163000480EDF6E0DC0D9FF0EC0DAFF000EDB8E44
:1016400051EF0BF00DC0D9FF0EC0DAFF080EDF6EB0
:101650000DC0D9FF0EC0DAFF000EDB8E51EF0BF08C
:1016600003AE35EF0BF037EF0BF050EF0BF00650F9
:101670000710D8B43EEF0BF040EF0BF04FEF0BF03C
:1016800020EE06F002D84FEF0BF00500FA6EDE50A8
:10169000FD6EDE50FE6EF850FF6EFA501200039E93
:1016A0002A6A12000001866F00017E51D8B45BEFF8
:1016B0000BF05DEF0BF069EF0BF08651020DF3506C
:1016C0000D0FD96EDA6ADECF87F0DDCF88F073EFC9
:1016D0000BF08651020DF350110FD96EDA6ADECF8E
:1016E00087F0DDCF88F087518811D8A47AEF0BF00E
:1016F0007CEF0BF082EF0BF0000E7E6F000E7F6F21
:10170000E6EF0BF020EE02F08751D9268851DA225D
:101710007FC0DEFF80C0DDFF20EE01F08751D926BB
:101720008851DA2281C0DFFF87C0D9FF88C0DAFF85
:10173000400EDF1687C0D9FF88C0DAFF000EDB86B7
:1017400087C0D9FF88C0DAFF000EDB8E7E51D8B487
:10175000ACEF0BF0AEEF0BF0C9EF0BF08651020DC2
:10176000F3500D0FD96EDA6ADECF82F0DDCF83F051
:10177000040E8219846F8351856F8651020DF350D8
:101780000D0FD96EDA6A84C0DEFF85C0DDFFE2EF9F
:101790000BF08651020DF350110FD96EDA6ADECFCD
:1017A00082F0DDCF83F0040E8219846F8351856F40
:1017B0008651020DF350110FD96EDA6A84C0DEFF34
:1017C00085C0DDFF87C07EF088C07FF01200386ED4
:1017D0003050D8B4EEEF0BF0F0EF0BF0FCEF0BF065
:1017E0003850020DF3500D0FD96EDA6ADECF39F0A2
:1017F000DDCF3AF006EF0CF03850020DF350110F28
:10180000D96EDA6ADECF39F0DDCF3AF039503A10CE
:10181000D8A40DEF0CF00FEF0CF015EF0CF0000E4C
:10182000306E000E316E79EF0CF020EE02F0395080
:10183000D9263A50DA2231C0DEFF32C0DDFF20EE79
:1018400001F03950D9263A50DA2233C0DFFF39C0CF
:10185000D9FF3AC0DAFF400EDF1639C0D9FF3AC0CF
:10186000DAFF000EDB8639C0D9FF3AC0DAFF000E7E
:10187000DB8E3050D8B43FEF0CF041EF0CF05CEF52
:101880000CF03850020DF3500D0FD96EDA6ADECF2E
:1018900034F0DDCF35F0040E3418366E3550376E27
:1018A0003850020DF3500D0FD96EDA6A36C0DEFFE4
:1018B00037C0DDFF75EF0CF03850020DF350110FFB
:1018C000D96EDA6ADECF34F0DDCF35F0040E34188D
:1018D000366E3550376E3850020DF350110FD96EF9
:1018E000DA6A36C0DEFF37C0DDFF39C030F03AC0FB
:1018F00031F01200A09A6A6A686A706A710E00017B
:101900007E6F0F0E7F6F000E816F000E806F000ED6
:10191000836F010E826F51EC15F0160E6F6E9F0EE5
:101920006B6E7B0E696E0001866B8651040D000E96
:10193000F324D96E040EF420DA6EDE6ADE6ADE6A03
:10194000DD6A862B070E8665A8EF0CF0AAEF0CF077
:1019500095EF0CF06D8C6E6A6D986D9C68960A6AB6
:10196000036A000E056E000E046E68B6BAEF0CF046
:10197000BCEF0CF0AEEF0CF0010E236E010E226EE8
:10198000216A206A286A0001866B8651020DF35095
:101990000D0FD96EDA6ADE6ADD6A8651020DF350E8
:1019A000110FD96EDA6ADE6ADD6A8651170FD96EB9
:1019B000DA6ADF6A8651150FD96EDA6ADF6A862B1A
:1019C000010E8665E6EF0CF0E8EF0CF0C5EF0CF0C9
:1019D000080E0D6E040E0E6E160E706E040E0401CF
:1019E000036F200E026F080E016F040E006F008F50
:1019F0002F6A000E00016E6F000E6F6F000E706F89
:101A0000000E716F1F6A2C6A1200A09A6A6A686AD7
:101A1000706A710E306E0F0E316E000E336E000E56
:101A2000326E000E356E010E346E8BEC15F0160E14
:101A30006F6E9F0E6B6E7B0E696E386A3850040DA8
:101A4000000EF324D96E040EF420DA6EDE6ADE6A2C
:101A5000DE6ADD6A382A070E386431EF0DF033EFA5
:101A60000DF01EEF0DF06D8C6E6A6D986D9C689692
:101A70000A6A036A000E056E000E046E68B643EF34
:101A80000DF045EF0DF037EF0DF0010E236E010E56
:101A9000226E216A206A286A386A3850020DF35093
:101AA0000D0FD96EDA6ADE6ADD6A3850020DF35026
:101AB000110FD96EDA6ADE6ADD6A3850170FD96EF7
:101AC000DA6ADF6A3850150FD96EDA6ADF6A382AA7
:101AD000010E38646EEF0DF070EF0DF04DEF0DF06C
:101AE000080E0D6E040E0E6E160E706E040E0401BE
:101AF000036F200E026F080E016F040E006F008F3F
:101B00002F6A000E00016E6F000E6F6F000E706F77
:101B1000000E716F1F6A2C6A1200080E306E0C5096
:101B200007E1080E0B5CD8B098EF0DF09AEF0DF0BE
:101B3000B2EF0DF00BC030F02B50D8A4A2EF0DF097
:101B4000A4EF0DF0A8EF0DF0010E2B6EB2EF0DF02B
:101B50002B04D8A4AEEF0DF0B0EF0DF0B2EF0DF006
:101B6000020E2B6E30500B5E000E0C5A20EE01F070
:101B70000D50D9260E50DA2230C0DFFF280E0001AA
:101B8000726F040E736F0AB0C8EF0DF0CAEF0DF05C
:101B90000CEF0EF0E7EF0DF008C0F6FF09C0F7FFFD
:101BA000F86A72C0D9FF73C0DAFF070EF76403D07A
:101BB0000800F55005D0F6CFE1FFF7CFE2FFE75080
:101BC000DF6E084A092A0001724B732B3006305031
:101BD000D8A4EDEF0DF0EFEF0DF0CCEF0DF014EF1A
:101BE0000EF008C0F6FF09C0F7FFF86A72C0D9FF0F
:101BF00073C0DAFF070EF76403D00800F55005D074
:101C0000F6CFE1FFF7CFE2FFE750DF6E084A092A7F
:101C10000001724B732B30063050D8A412EF0EF037
:101C200014EF0EF0F1EF0DF0120004012039E8324C
:101C3000030B0009D8B41FEF0EF021EF0EF066EF92
:101C40000EF095EF0EF00A8E080E2C6E95EF0EF04A
:101C50007EEC09F095EF0EF0FDEC0FF095EF0EF035
:101C60002F0E086E096A0A80010E0B6E0A8E95EF20
:101C70000EF010EC0FF095EF0EF06AEC04F095EF1B
:101C80000EF024512E0F4D6E4DC008F0096A0A80E7
:101C9000010E0B6E0A8E95EF0EF00A8E24512E0F58
:101CA000D96EDA6A22C4DFFF95EF0EF0000E3F6EA8
:101CB000020E3E6E000E406E000E416E000E436E30
:101CC000000E426E67EC10F095EF0EF02151000A05
:101CD000D8B439EF0EF0010AD8B43DEF0EF0020A85
:101CE000D8B43DEF0EF0060AD8B423EF0EF0030A85
:101CF000D8B428EF0EF0010AD8B456EF0EF00F0A50
:101D0000D8B430EF0EF0010AD8B42CEF0EF0030A6D
:101D1000D8B441EF0EF0010AD8B44DEF0EF0070A27
:101D2000D8B495EF0EF095EF0EF012006DA29BEF78
:101D30000EF09DEF0EF0FCEF0EF0010EE7EC13F04D
:101D40000FEF0FF01D041E10D8A4A9EF0EF0ABEF9B
:101D50000EF0B0EF0EF0010EB6EC13F00DEF0FF039
:101D60004B0E1D181E10D8A4B8EF0EF0BAEF0EF0EF
:101D7000BFEF0EF0010EE7EC13F00DEF0FF01E5069
:101D800009E1970E1D5CD8A0C8EF0EF0CAEF0EF067
:101D9000D0EF0EF0000E1E6E000E1D6E0DEF0FF058
:101DA0000DEF0FF01D041E10D8A4D9EF0EF0DBEFDD
:101DB0000EF0E0EF0EF0010EB6EC13F00DEF0FF0A9
:101DC000320E1D181E10D8A4E8EF0EF0EAEF0EF048
:101DD000EFEF0EF0010EE7EC13F00DEF0FF0B70E82
:101DE0001D5C030E1E58D8A0F8EF0EF0FAEF0EF0AF
:101DF0000DEF0FF0CAEF0EF02C50336E346A3450F2
:101E0000000AD8B406EF0FF0D2EF0EF03350200ADC
:101E1000D8B4A2EF0EF0D2EF0EF01D4A1E2A120027
:101E20000401286B296B68EF0FF00A8E2904D8A4EF
:101E30001CEF0FF01EEF0FF078EF0FF0288378EF14
:101E40000FF00A8E78EF0FF00A8E24510F0B000965
:101E5000D8B42DEF0FF02FEF0FF078EF0FF024BF75
:101E600034EF0FF036EF0FF043EF0FF024510F0B6C
:101E7000020DF350110FD96EDA6ADECF30F0DDCFEC
:101E800031F04EEF0FF024510F0B020DF3500D0FF8
:101E9000D96EDA6ADECF30F0DDCF31F030C0D9FF55
:101EA00031C0DAFFDFAE57EF0FF059EF0FF078EFE8
:101EB0000FF030C0D9FF31C0DAFFDFA462EF0FF0BE
:101EC00064EF0FF078EF0FF0010E286F78EF0FF04E
:101ED00020511F0B000AD8B415EF0FF0010AD8B437
:101EE00021EF0FF0030AD8B424EF0FF078EF0FF0D2
:101EF0000AAE7DEF0FF07FEF0FF086EF0FF0280EA8
:101F0000086E040E096E0A80020E0B6E120023503A
:101F1000D8A48DEF0FF08FEF0FF0FCEF0FF0010E54
:101F2000236E2250D8A497EF0FF099EF0FF0FCEF3B
:101F30000FF0010E226E020E2A18D8A4A2EF0FF0A5
:101F4000A4EF0FF0B9EF0FF020EE01F00D50D926FD
:101F50000E50DA22DF6A0DC0D9FF0EC0DAFF480E3C
:101F6000DF6E0DC0D9FF0EC0DAFF000EDB8EFCEF76
:101F70000FF02A04D8A4BFEF0FF0C1EF0FF0FCEF71
:101F80000FF0266A20EE01F01B50D9261C50DA22F1
:101F9000080EDF6E20EE02F01B50D9261C50DA220C
:101FA000200EDE6E040EDD6E1BC0D9FF1CC0DAFFF2
:101FB000040EDF6E1BC0D9FF1CC0DAFF000EDB8EE3
:101FC000010E266E20EE01F01950D9261A50DA22A1
:101FD000080EDF6E20EE02F01950D9261A50DA22D0
:101FE000200EDE6E040EDD6E19C0D9FF1AC0DAFFB6
:101FF000800EDF6EFCEF0FF012000A8E710E306E55
:102000000F0E316E000E336E000E326E000E356E06
:10201000010E346E8BEC15F0000E306E040E316E36
:10202000000E336E000E326E000E356E200E346ED2
:102030008BEC15F06D8C466A4650170FD96EDA6A34
:10204000DF6A4650150FD96EDA6ADF6A462A010E3A
:1020500046642DEF10F02FEF10F01CEF10F02E0E55
:10206000306E316A000E336E000E326E000E356E29
:10207000010E346E8BEC15F06D9C080E0D6E040E87
:102080000E6E000E1B6E040E1C6E1BC019F01CC0E1
:102090001AF022C42FF02F50D8A451EF10F053EFB4
:1020A00010F057EF10F0100E2C6E66EF10F0000ECF
:1020B0003F6E010E3E6E2F0E406E416A000E436E63
:1020C000010E426E67EC10F0200E2C6E120097EF9E
:1020D00010F096EC0EF000017A2909E17F0E7B19D1
:1020E000D8B475EF10F077EF10F07BEF10F07A4B6B
:1020F0007B2BD0EF10F0000E7B6F000E7A6FD0EFCD
:1021000010F096EC0EF0010E9AEC14F0D0EF10F0F7
:1021100096EC0EF0020E9AEC14F0D0EF10F052ECA8
:1021200013F0D0EF10F0D5EC08F0D0EF10F03EC077
:1021300044F03FC045F04550000AD8B4A6EF10F077
:102140007F0AD8B4C9EF10F0D0EF10F04450010A64
:10215000D8B48FEF10F0030AD8B4D0EF10F0010A12
:10216000D8B493EF10F0060AD8B4D0EF10F0770A85
:10217000D8B4D0EF10F0010AD8B469EF10F0070A14
:10218000D8B488EF10F0010AD8B481EF10F0D0EF86
:1021900010F04450FF0AD8B4D0EF10F0D0EF10F098
:1021A00012002D0E256E2DC04EF0FD0E4E16D8A439
:1021B000DCEF10F0DEEF10F020EF11F02DC04EF04C
:1021C000D8904E323F0E4E164E50040D000EF324A2
:1021D0001B6E040EF4201C6E1BC019F01CC01AF0FC
:1021E000040E1918196E1A501A6E1BC0D9FF1CC0A4
:1021F000DAFFDF30E8320F0B0D0AD8A402EF11F03E
:1022000004EF11F01CEF11F0200E306E040E316E51
:1022100020EE02F01B50D9261C50DA22DECF32F01D
:10222000DDCF33F0000E356E080E346E72EC14F014
:10223000D5EC11F02CEF11F04CEC12F02CEF11F06A
:102240002D50FD0B040AD8A428EF11F02AEF11F04D
:102250002CEF11F0B9EC0AF01200216A206A020E8C
:102260002A18D8A436EF11F038EF11F058EF11F01A
:1022700020EE01F01950D9261A50DA22080EDF6E2E
:1022800020EE02F01950D9261A50DA22280EDE6EFE
:10229000040EDD6E19C0D9FF1AC0DAFF480EDF6EDA
:1022A00019C0D9FF1AC0DAFF000EDB8E80EF11F0E3
:1022B0000B500401265D0C502759D8B062EF11F085
:1022C00064EF11F068EF11F026C40BF027C40CF096
:1022D0008DEC0DF020EE02F00D50D9260E50DA22D2
:1022E000280EDE6E040EDD6E0DC0D9FF0EC0DAFFC3
:1022F000480EDF6E0DC0D9FF0EC0DAFF000EDB8E78
:102300001200376E000E386E040E396E3050316E8A
:10231000326AD890313632363750336E346AD890BC
:1023200033363436D8903336343631503324356E24
:1023300032503420366ED89035363636D890353611
:102340003636355038263650392238C0D9FF39C094
:10235000DAFFDF9E3050D8A4B0EF11F0B2EF11F0E9
:10236000BEEF11F03750020DF350110FD96EDA6A3B
:1023700038C0DEFF39C0DDFFC8EF11F03750020D65
:10238000F3500D0FD96EDA6A38C0DEFF39C0DDFFB9
:1023900038C0D9FF39C0DAFFDF9C20EE04F0385096
:1023A000D9263950DA22DF8C12002B6A246A216A7E
:1023B000206A266A2A6A0DC0D9FF0EC0DAFF7F0E96
:1023C000DF16040E0D180D6E0E500E6E0DC0D9FFE7
:1023D0000EC0DAFF7F0EDF16040E0D180D6E0E50C4
:1023E0000E6E19C0D9FF1AC0DAFF7F0EDF160A6A17
:1023F000000E0C6E000E0B6E036A000E056E000ED2
:10240000046E15EC0EF0000E3F6E030E3E6E000ED5
:10241000406E000E416E000E436E000E426E67EC81
:1024200010F01FEC0AF012000001806F31EF12F083
:1024300081A81DEF12F020EF12F0010E21EF12F033
:10244000000E4BEF12F081AA28EF12F02BEF12F0E2
:10245000010E2CEF12F0000E4BEF12F0000E4BEFBE
:1024600012F0000180517E6F7F6B7F51000AD8B45B
:102470003CEF12F02EEF12F07E51000AD8B42EEF8E
:1024800012F0010AD8B418EF12F0030AD8B423EFFF
:1024900012F02EEF12F01200020E2A18D8A453EFF9
:1024A00012F055EF12F059EF12F01DEC08F083EF27
:1024B00012F02A6A2650D8A460EF12F062EF12F0F0
:1024C00082EF12F020EE01F01950D9261A50DA22CC
:1024D000080EDF6E20EE02F01950D9261A50DA22CB
:1024E000200EDE6E040EDD6E19C0D9FF1AC0DAFFB1
:1024F0000C0EDF6E19C0D9FF1AC0DAFF000EDB8E9A
:1025000083EF12F0266A12000600FACF50F0FBCFDC
:1025100051F0E1CF52F0E2CF53F0D9CF54F0DACFFF
:1025200055F0F3CF56F0F4CF57F0F6CF58F0F7CF81
:1025300059F0F8CF5AF0F5CF5BF013EC07F05BC021
:10254000F5FF5AC0F8FF59C0F7FF58C0F6FF57C053
:10255000F4FF56C0F3FF55C0DAFF54C0D9FF53C093
:10256000E2FF52C0E1FF51C0FBFF50C0FAFF5C9296
:1025700011000001806FC9EF12F09596EBEF12F099
:102580009592EBEF12F09594EBEF12F09596EBEF3E
:1025900012F0000180517E6F7F6B7F51000AD8B42A
:1025A000D4EF12F0EBEF12F07E51000AD8B4EBEF4B
:1025B00012F0010AD8B4BDEF12F0030AD8B4C0EF8C
:1025C00012F0010AD8B4C3EF12F0070AD8B4C6EF6C
:1025D00012F0EBEF12F012000001806FFCEF12F02E
:1025E0008C861EEF13F08C821EEF13F08C841EEF8E
:1025F00013F08C861EEF13F0000180517E6F7F6B0D
:102600007F51000AD8B407EF13F01EEF13F07E518C
:10261000000AD8B41EEF13F0010AD8B4F0EF12F09C
:10262000030AD8B4F3EF12F0010AD8B4F6EF12F0AF
:10263000070AD8B4F9EF12F01EEF13F012000001F0
:10264000806F2FEF13F08C9651EF13F08C9251EFB7
:1026500013F08C9451EF13F08C9651EF13F00001AE
:1026600080517E6F7F6B7F51000AD8B43AEF13F030
:1026700051EF13F07E51000AD8B451EF13F0010A64
:10268000D8B423EF13F0030AD8B426EF13F0010AED
:10269000D8B429EF13F0070AD8B42CEF13F051EF98
:1026A00013F01200000E0001686F000E696F040E37
:1026B0006C6F6D6B010E796FF40E786F64EF13F031
:1026C0007AC074F07BC075F07A51741907E17B51C0
:1026D0007519D8A46EEF13F070EF13F060EF13F0DC
:1026E0001E0E3A6E010EC2EC14F0000E306E080E93
:1026F000316E050E326E010E336E010EE7EC0BF0FB
:1027000030C06AF031C06BF01200326E94EF13F0FB
:102710009596B5EF13F09592B5EF13F09594B5EF4C
:1027200013F09596B5EF13F03250306E316A315098
:10273000000AD8B49EEF13F0B5EF13F03050000A42
:10274000D8B4B5EF13F0010AD8B488EF13F0030A38
:10275000D8B48BEF13F0010AD8B48EEF13F0070A48
:10276000D8B491EF13F0B5EF13F01200326EC5EF4D
:1027700013F08C86E6EF13F08C82E6EF13F08C8476
:10278000E6EF13F08C86E6EF13F03250306E316ACC
:102790003150000AD8B4CFEF13F0E6EF13F0305009
:1027A000000AD8B4E6EF13F0010AD8B4B9EF13F079
:1027B000030AD8B4BCEF13F0010AD8B4BFEF13F08A
:1027C000070AD8B4C2EF13F0E6EF13F01200326E2E
:1027D000F6EF13F08C9617EF14F08C9217EF14F0BD
:1027E0008C9417EF14F08C9617EF14F03250306E73
:1027F000316A3150000AD8B400EF14F017EF14F02A
:102800003050000AD8B417EF14F0010AD8B4EAEF38
:1028100013F0030AD8B4EDEF13F0010AD8B4F0EFC7
:1028200013F0070AD8B4F3EF13F017EF14F0120007
:1028300070A01DEF14F01FEF14F046EF14F01BC052
:10284000D9FF1CC0DAFF800EDE18D8A42AEF14F0DE
:102850002CEF14F045EF14F00DC0D9FF0EC0DAFFD5
:10286000840EDE18D8A437EF14F039EF14F045EFDA
:1028700014F01BC0D9FF1CC0DAFF0C0EDF6E1BC0AA
:10288000D9FF1CC0DAFF000EDB8E7090689A120030
:102890000001836F57EF14F0010EB9EC12F0020E35
:1028A000B9EC12F0010EE8EC14F071EF14F0000135
:1028B0008351816F826B8251000AD8B462EF14F0A9
:1028C00071EF14F08151000AD8B44CEF14F0010AF2
:1028D000D8B471EF14F0030AD8B471EF14F071EFAB
:1028E00014F0120032C038F033C039F030C036F086
:1028F00031C037F08CEF14F038C0D9FF39C0DAFF9F
:10290000DF503A6E384A392A36C0D9FF37C0DAFF6D
:102910003AC0DFFF364A372A3406D8A035063428B5
:1029200006E13528D8A497EF14F099EF14F07CEF66
:1029300014F01200356EA8EF14F0010E85EC13F0C0
:10294000020E85EC13F0010E0DEC15F0C1EF14F042
:102950003550336E346A3450000AD8B4B2EF14F0F4
:10296000C1EF14F03350000AD8B49DEF14F0010AFF
:10297000D8B4C1EF14F0030AD8B4C1EF14F0C1EF1A
:1029800014F012003D6E3AA4C8EF14F0CAEF14F030
:10299000CFEF14F0000E306E3D5081EC11F03AA2F2
:1029A000D4EF14F0D6EF14F0DBEF14F0010E306E1C
:1029B0003D5081EC11F0700E3D243B6E3C6A0F0ED1
:1029C0003C223BC0D9FF3CC0DAFF3AC0DFFF120017
:1029D0000001806FF2EF14F093880CEF15F0938AEA
:1029E0000CEF15F0000180517E6F7F6B7F51000A64
:1029F000D8B4FDEF14F00CEF15F07E51000AD8B4F6
:102A00000CEF15F0010AD8B4ECEF14F0030AD8B4B7
:102A1000EFEF14F00CEF15F01200326E16EF15F018
:102A200093882FEF15F0938A2FEF15F03250306E08
:102A3000316A3150000AD8B420EF15F02FEF15F0AD
:102A40003050000AD8B42FEF15F0010AD8B410EFB7
:102A500015F0030AD8B413EF15F02FEF15F012009C
:102A60002C50D8A436EF15F038EF15F050EF15F0D4
:102A70006D6A696A160E6F6E9F0E6B6E7B0E696EC5
:102A8000D08EA28AA08AF28E47EF15F06D866DA6D1
:102A90004CEF15F04EEF15F046EF15F0010E2C6ED1
:102AA00012007EC084F07FC085F05FEF15F084C017
:102AB000D9FF85C0DAFF80C0DFFF844B852B000182
:102AC0008207D8A08307822906E18329D8A46BEF67
:102AD00015F06DEF15F057EF15F01200286A000E93
:102AE0003F6E740E3E6E000E406E000E416E000E84
:102AF000436E000E426E67EC10F06D92699482EFA7
:102B000015F0689468B487EF15F089EF15F081EF40
:102B100015F01F6A120030C036F031C037F099EF5F
:102B200015F036C0D9FF37C0DAFF32C0DFFF364AB2
:102B3000372A3406D8A03506342806E13528D8A42B
:102B4000A4EF15F0A6EF15F091EF15F01200010EAD
:102B500000016E27000E6F23702371232850D8A424
:102B6000B4EF15F0B6EF15F0C0EF15F01F2A1F50A7
:102B7000D8A4BDEF15F0BFEF15F0C0EF15F01F683A
:102B80001200698468986D82010E286E1F6A000E1B
:102B90003F6E750E3E6E000E406E000E416E000ED2
:102BA000436E000E426E67EC10F0120000EE60F013
:102BB0001E0EEE6AE806FDE100EE01F02F0EEE6A51
:102BC000E806FDE15C905C92000EF86E000127EFD4
:102BD00016F0050108A3EFEF15F0F1EF15F0F6EF91
:102BE00015F0020EECEC12F0F9EF15F0020E1FECEE
:102BF00013F01200050108A300EF16F002EF16F023
:102C000007EF16F0020EB6EC13F00AEF16F0020E04
:102C1000E7EC13F01200280E016E040E026E000E97
:102C2000056E080E046E680E066E2C0E076E038E7F
:102C30001200316E3150D8A420EF16F022EF16F0BA
:102C400026EF16F030C078F00001796B1200000E0C
:102C500048EC14F07AEC0CF030EC15F0EDEC05F0EB
:102C60002EEF16F007EF00F028C408F5FAEC15F087
:022C7000120050
:020000040030CA
:0E000000240E3F1EFF8181FF0FC00FE00F4056
:00000001FF
