:0400000007EF00F016
:0A0008005682F2ED14F0E2EF16F05C
:100800000000FF0100010000FFFF0000010001FFE8
:1008100000F350AB1509023B00020100C0FA0904C5
:10082000000001030000000921110100012227003E
:100830000705810302000109040100010301010011
:10084000092111010001221800070582030200019D
:1008500034034D006900630072006F00630068009C
:1008600069007000200054006500630068006E009D
:100870006F006C006F0067007900200049006E0077
:1008800063002E00050C0901A1018501050C15006E
:1008900025017501950709B509B609B709CD09E222
:1008A00009E909EA810295018101C01E0356006F22
:1008B000006C0075006D006500200043006F006E45
:1008C00000740072006F006C0005010906A10105AB
:1008D00007190029FF150026FF00750895068100FD
:1008E000C01201000200000008D8045500010001F8
:1008F000020001040309040004013205D8A483EFB7
:1009000004F085EF04F09EEF04F030511F0B000956
:10091000D8A48DEF04F08FEF04F09EEF04F0108E5A
:10092000030E3119D8A497EF04F099EF04F09DEF6E
:1009300004F0010E266E9EEF04F0266A3251D8A410
:10094000A4EF04F0A6EF04F002EF06F030511F0B05
:10095000020AD8A4AEEF04F0B0EF04F002EF06F004
:1009600034510F0B0009D8B4B8EF04F0BAEF04F01B
:1009700002EF06F034510F0B426E030E4260C3EFDC
:1009800004F0C5EF04F002EF06F0200E2918D8A4F9
:10099000CCEF04F0CEEF04F002EF06F0108E34BF7F
:1009A000D4EF04F0D6EF04F0ECEF04F034510F0B69
:1009B000020DF350720FD96EDA6ADECF47F0DDCF49
:1009C00048F034510F0B426E42507C0FD96EDA6AF8
:1009D000DF50466E00EF05F034510F0B020DF3505F
:1009E000080FD96EDA6ADECF47F0DDCF48F0345118
:1009F0000F0B426E42507F0FD96EDA6ADF50466E9F
:100A000046B005EF05F007EF05F00FEF05F0FB0E20
:100A10004714476EFF0E4814486E14EF05F0040E9D
:100A20004710476E4850486E34BF19EF05F01BEF72
:100A300005F028EF05F034510F0B020DF350720F43
:100A4000D96EDA6A47C0DEFF48C0DDFF33EF05F03C
:100A500034510F0B020DF350080FD96EDA6A47C0FC
:100A6000DEFF48C0DDFF030E3119D8A43AEF05F0D0
:100A70003CEF05F070EF05F047C0D9FF48C0DAFF42
:100A8000DFAE45EF05F047EF05F062EF05F034BF4C
:100A90004CEF05F04EEF05F059EF05F034510F0B18
:100AA000426E42507C0FD96EDA6A0001DF8262EF3B
:100AB00005F034510F0B426E42507F0FD96EDA6A47
:100AC0000001DF8247C0D9FF48C0DAFF000EDB8497
:100AD00047C0D9FF48C0DAFF000EDB8E02EF06F0F8
:100AE000040E4718476E4850486E47C0D9FF48C0AB
:100AF000DAFFDFAE7EEF05F080EF05F09CEF05F04A
:100B000047C0D9FF48C0DAFF7F0EDF1647C0D9FFC4
:100B100048C0DAFF000EDB8C000E3B6E050E3A6E0D
:100B200047C03CF048C03DF0000E3F6E020E3E6EE6
:100B30000BEC10F0A2EF05F047C0D9FF48C0DAFF78
:100B4000000EDB8C040E4718476E4850486E46B2C4
:100B5000ACEF05F0AEEF05F0B9EF05F047C0D9FFF7
:100B600048C0DAFFDFAEB7EF05F0B9EF05F0EBEF05
:100B700005F0040134BFBFEF05F0C1EF05F0CCEF85
:100B800005F034510F0B426E42507C0FD96EDA6A79
:100B90000001DF92D5EF05F034510F0B426E425049
:100BA0007F0FD96EDA6A0001DF9247C0D9FF48C0D3
:100BB000DAFF3B0EDF16000E3B6E050E3A6E47C0A5
:100BC0003CF048C03DF0000E3F6E020E3E6E0BEC56
:100BD00010F0F1EF05F047C0D9FF48C0DAFF3B0E37
:100BE000DF16040134510F0B426E436A700E42242B
:100BF000446E0F0E4320456E44C0D9FF45C0DAFF56
:100C0000FE0EDF1612002904D8A409EF06F00BEF40
:100C100006F017EF06F06DBA10EF06F012EF06F0CF
:100C200017EF06F0686A69806988020E296E68A469
:100C30001CEF06F01EEF06F028EF06F069A423EF84
:100C400006F025EF06F028EF06F0689460EC16F049
:100C50006DA22DEF06F02FEF06F032EF06F0A19A0D
:100C60000EEF07F068A037EF06F039EF06F046EF19
:100C700006F069A03EEF06F040EF06F046EF06F002
:100C800028EC0CF0A08A040E296E689068A84BEF3F
:100C900006F04DEF06F056EF06F069A852EF06F0A9
:100CA00054EF06F056EF06F0CDEC16F068AC5BEFB3
:100CB00006F05DEF06F088EF06F069AC62EF06F033
:100CC00064EF06F072EF06F0000E3B6E730E3A6EA4
:100CD000000E3C6E000E3D6E000E3F6E010E3E6E2D
:100CE0000BEC10F0689CB3EC16F02250D8B47BEFFC
:100CF00006F07DEF06F07EEF06F022062250D8A423
:100D000084EF06F086EF06F088EF06F02BEC0FF08C
:100D100068AA8DEF06F08FEF06F098EF06F069AA4B
:100D200094EF06F096EF06F098EF06F094EC14F0CE
:100D300068A29DEF06F09FEF06F0B4EF06F069A2FF
:100D4000A4EF06F0A6EF06F0B4EF06F07F0E3B6EC0
:100D50003A68000E3C6E000E3D6E000E3F6E010EB6
:100D60003E6E0BEC10F06A6A040E2960BAEF06F0D2
:100D7000BCEF06F0BFEF06F0A19A0EEF07F069A6F0
:100D8000C4EF06F0C6EF06F00DEF07F04B6A68A659
:100D9000CCEF06F0CEEF06F00DEF07F06CCF2AF0A7
:100DA0002A30E832E8320F0B246E68962AB4DBEF63
:100DB00006F0DDEF06F0E5EF06F024507C0FD96E6B
:100DC000DA6A0001DF70EBEF06F024507F0FD96E76
:100DD000DA6A0001DF702450D8A4F1EF06F0F3EFD7
:100DE00006F0F7EF06F0D5EC10F004EF07F0000E78
:100DF0003B6E720E3A6E2A0E3C6E3D6A000E3F6EDE
:100E0000000E3E6E0BEC10F04B2A030E4B640BEF02
:100E100007F00DEF07F0C7EF06F0A19A12000401EA
:100E200030511F0BE806D8B418EF07F01AEF07F09F
:100E30001CEF07F0F2EF07F03451D8B422EF07F0BF
:100E400024EF07F02EEF07F03405D8B42AEF07F0AF
:100E50002CEF07F02EEF07F0F2EF07F0060E311936
:100E6000D8A435EF07F037EF07F0A8EF07F099EFB8
:100E700007F02B04D8A43FEF07F041EF07F0A8EFED
:100E800007F03451D8A447EF07F049EF07F057EFC8
:100E900007F0270E0E6E0E50D8A4080E0F6E000E2F
:100EA000126E090E116EC00E106EA8EF07F0340519
:100EB000D8A45DEF07F05FEF07F0A8EF07F0400E52
:100EC0000E6E0E50D8A4080E0F6E000E126E090E94
:100ED000116EC00E106EA8EF07F03451D8A473EF56
:100EE00007F075EF07F083EF07F0840E0E6E0E50DB
:100EF000D8A4080E0F6E000E126E270E116EC00ED3
:100F0000106EA8EF07F03405D8A489EF07F08BEF37
:100F100007F0A8EF07F0C90E0E6E0E50D8A4080E09
:100F20000F6E000E126E180E116EC00E106EA8EF2E
:100F300007F03351210AD8B439EF07F0030AD8B4C7
:100F40006DEF07F0010AD8B4A8EF07F0A8EF07F09B
:100F50003039E832030BE806D8B4B1EF07F0B3EF4D
:100F600007F0D7EF07F0F2EF07F09D0E0E6E0F6A55
:100F7000000E126E010E116EC10E106EF2EF07F030
:100F8000800E106E33C49DF0F2EF07F09C0E0E6ED3
:100F90000F6A000E126E010E116E810E106EF2EFCE
:100FA00007F0800E106E32C49CF0F2EF07F0315162
:100FB000010AD8B4F2EF07F0030AD8B4B5EF07F08E
:100FC000010AD8B4C6EF07F00A0AD8B4F2EF07F066
:100FD000030AD8B4C0EF07F0010AD8B4D1EF07F084
:100FE000F2EF07F01200030E3AEC13F0020E6DEC74
:100FF00013F0000182518311D8B401EF08F003EF20
:1010000008F00EEF08F082C0D9FF83C0DAFFDFBE20
:101010000CEF08F00EEF08F0A4EF08F0940E9E6FAE
:101020009F6B000EA16F000EA06F000EA36F060E47
:10103000A26F43EC16F0E0EC15F00001AA6FAA5184
:10104000D8B425EF08F027EF08F02AEF08F0020ED9
:1010500007EC13F0940E00019E6F9F6B000EA16FC2
:10106000000EA06F000EA36F060EA26F43EC16F0E9
:101070000001A96BAA05D8B440EF08F042EF08F0D0
:101080004BEF08F0020EAA19D8A449EF08F04BEF75
:1010900008F069EF08F06651D8A451EF08F053EF5B
:1010A00008F085EF08F0AA05D8A459EF08F05BEF27
:1010B00008F05FEF08F0520E946F61EF08F0510EE8
:1010C000946F010E666F030E676F010EA96F85EFB7
:1010D00008F06651D8B46FEF08F071EF08F085EFB3
:1010E00008F06751D8B477EF08F079EF08F085EF92
:1010F00008F067076751D8A480EF08F082EF08F086
:1011000085EF08F0666B010EA96FA905D8A48BEFD7
:1011100008F08DEF08F0A4EF08F020EE94F010EE48
:101120006CF0050EDBCFE3FFE806FCE2010E9E6FDC
:10113000940E9F6FA06B060EA16F020E80EC0AF05A
:101140009EC082F09FC083F01200800E040130190F
:10115000D8A4ADEF08F0AFEF08F045EF09F0C00EEE
:10116000106E36EF09F0E10E0E6E0E50D8A4080E88
:101170000F6E000E126E120E116E45EF09F0325115
:10118000D8A4C5EF08F0C7EF08F003EF09F032511B
:10119000140F2C6E2CC0F6FF080EF76E0900F5CF69
:1011A0000EF0080E0F6E020E0E242C6E000E0F2095
:1011B0002D6E2CC0F6FF2DC0F7FFF86A070EF764FE
:1011C00003D00800F55005D0F6CFE1FFF7CFE2FFDE
:1011D000E750116E030E0E242C6E000E0F202D6EA4
:1011E0002CC0F6FF2DC0F7FFF86A070EF76403D096
:1011F0000800F55005D0F6CFE1FFF7CFE2FFE7504A
:10120000126E45EF09F0106A45EF09F0030E3261E6
:101210000CEF09F00EEF09F030EF09F03251110F29
:101220002C6E2CC0F6FF080EF76E0900F5CF0EF0FD
:10123000080E0F6E0EC0F6FF0FC0F7FFF86A070E1C
:10124000F76403D00800F55005D0F6CFE1FFF7CFE3
:10125000E2FFE7502C6E2C50116E126A45EF09F038
:10126000106A45EF09F0106A45EF09F03351010AA1
:10127000D8B4B3EF08F0030AD8B4BFEF08F0010AFE
:10128000D8B406EF09F033EF09F0120020EE01F0B8
:101290001750D9261850DA22DF502D6E2D50045CDD
:1012A000000E0558D8B057EF09F059EF09F05BEF81
:1012B00009F004C02DF02D50045E000E055A2C6A72
:1012C00071EF09F0380E2C24D96EDA6A040EDA2296
:1012D00001C0E1FF02C0E2FFDFCFE7FF014A022ABF
:1012E0002C2A2D502C5CD8A078EF09F07AEF09F069
:1012F00062EF09F004500510D8B481EF09F083EFD4
:1013000009F0BCEF09F020EE01F01550D926165077
:10131000DA22080EDF6E20EE02F01550D9261650A4
:10132000DA22380EDE6E040EDD6E17C0D9FF18C04B
:10133000DAFFDFBC9EEF09F0A0EF09F0AEEF09F095
:1013400015C0D9FF16C0DAFF480EDF6E15C0D9FFF1
:1013500016C0DAFF000EDB8EE5EF09F015C0D9FFED
:1013600016C0DAFF080EDF6E15C0D9FF16C0DAFF0F
:10137000000EDB8EE5EF09F020EE01F01550D926C6
:101380001650DA22080EDF6E20EE02F01550D92634
:101390001650DA22300EDE6E040EDD6E15C0D9FF57
:1013A00016C0DAFF040EDF6E15C0D9FF16C0DAFFD3
:1013B000000EDB8E039E2150D8A4E1EF09F0E3EF8D
:1013C00009F0E5EF09F02BEC0FF012006D9810BE5C
:1013D000ECEF09F0EEEF09F031EF0AF003AEF3EFB6
:1013E00009F0F5EF09F005EF0AF0020E276E1D5027
:1013F000D8A4FDEF09F0FFEF09F001EF0AF031EC9E
:1014000011F01F6A206A7FEF0AF020EE01F01550FC
:10141000D9261650DA22080EDF6E20EE02F01550A3
:10142000D9261650DA22300EDE6E040EDD6E15C09F
:10143000D9FF16C0DAFF0C0EDF6E15C0D9FF16C03B
:10144000DAFF000EDB8E08C0D9FF09C0DAFF040EF8
:10145000DF6E08C0D9FF09C0DAFF000EDB8E7FEF18
:101460000AF0040130AF37EF0AF039EF0AF053EF1A
:101470000AF0010E276E1E50D8A441EF0AF043EF88
:101480000AF045EF0AF031EC11F01F6A206A215092
:10149000D8A44DEF0AF04FEF0AF07FEF0AF02BECE3
:1014A0000FF07FEF0AF0020E276E20EE01F01550CC
:1014B000D9261650DA22080EDF6E20EE02F0155003
:1014C000D9261650DA22300EDE6E040EDD6E15C0FF
:1014D000D9FF16C0DAFF040EDF6E15C0D9FF16C0A3
:1014E000DAFF000EDB8E1F6A206A2150D8A47BEF42
:1014F0000AF07DEF0AF07FEF0AF04FEF0AF01200DA
:101500000001A66F00019E51D8B489EF0AF08BEF5D
:101510000AF097EF0AF0A651020DF350080FD96EAA
:10152000DA6ADECFA7F0DDCFA8F0A1EF0AF0A6516E
:10153000020DF350720FD96EDA6ADECFA7F0DDCF5D
:10154000A8F0A751A811D8A4A8EF0AF0AAEF0AF0B2
:10155000B0EF0AF0000E9E6F000E9F6F14EF0BF0BD
:1015600020EE02F0A751D926A851DA229FC0DEFF53
:10157000A0C0DDFF20EE01F0A751D926A851DA2244
:10158000A1C0DFFFA7C0D9FFA8C0DAFF400EDF1659
:10159000A7C0D9FFA8C0DAFF000EDB86A7C0D9FF1D
:1015A000A8C0DAFF000EDB8E9E51D8B4DAEF0AF045
:1015B000DCEF0AF0F7EF0AF0A651020DF350080F26
:1015C000D96EDA6ADECFA2F0DDCFA3F0040EA21945
:1015D000A46FA351A56FA651020DF350080FD96E49
:1015E000DA6AA4C0DEFFA5C0DDFF10EF0BF0A65144
:1015F000020DF350720FD96EDA6ADECFA2F0DDCFA2
:10160000A3F0040EA219A46FA351A56FA651020D59
:10161000F350720FD96EDA6AA4C0DEFFA5C0DDFFF9
:10162000A7C09EF0A8C09FF01200A09A6A6A686ADC
:10163000706A710E00019E6F0F0E9F6F000EA16FFA
:10164000000EA06F000EA36F020EA26F43EC16F007
:10165000160E6F6E9F0E6B6E7B0E696E0001A66B91
:10166000A651040D000EF324D96E040EF420DA6E98
:10167000DE6ADE6ADE6ADD6AA62B0B0EA66543EF24
:101680000BF045EF0BF030EF0BF06D8C6E6A6D9840
:101690006D9C6896106A036A000E056E000E046E5B
:1016A00068B655EF0BF057EF0BF049EF0BF0010E5A
:1016B000206E010E1F6E1E6A1D6A256A0001A66B50
:1016C000A651020DF350080FD96EDA6ADE6ADD6AA0
:1016D000A651020DF350720FD96EDA6ADE6ADD6A26
:1016E000A6517F0FD96EDA6ADF6AA6517C0FD96ED8
:1016F000DA6ADF6AA62B020EA66581EF0BF083EF94
:101700000BF060EF0BF0080E086E040E096E160E5B
:10171000706E040E0401036F300E026F080E016F2D
:10172000040E006F008F2B6A000E0001786F000E10
:10173000796F000E7A6F000E7B6F1C6A296A1200A7
:10174000020E3AEC13F0030E6DEC13F0000184511D
:101750008511D8B4AEEF0BF0B0EF0BF0BBEF0BF090
:1017600084C0D9FF85C0DAFFDFBEB9EF0BF0BBEF55
:101770000BF027EF0CF0000E9E6F050E9F6F000E12
:10178000A16F000EA06F000EA36F020EA26F43ECBC
:1017900016F0010E0501006FE0EC15F00001AC6FD2
:1017A000AC05D8A4D6EF0BF0D8EF0BF0DDEF0BF0C3
:1017B0000501016B018BE9EF0BF0020EAC19D8A407
:1017C000E4EF0BF0E6EF0BF0E9EF0BF00501016B36
:1017D000018D0001AB6BAD6B000EAD25D96EDA6AE1
:1017E000050EDA22AD518A0FE16EE26ADE50E6188C
:1017F000D8B4FDEF0BF0FFEF0BF003EF0CF0010E90
:10180000AB6F0CEF0CF0AD2B010EAD650AEF0CF0D9
:101810000CEF0CF0ECEF0BF0AB05D8A412EF0CF0D2
:1018200014EF0CF027EF0CF000C58AF001C58BF027
:10183000010E9E6F000E9F6F050EA06F020EA16F2E
:10184000010E80EC0AF09EC084F09FC085F012006B
:10185000A09A6A6A686A706A710E2C6E0F0E2D6EFD
:10186000000E2F6E000E2E6E000E316E020E306EC8
:101870007DEC16F0160E6F6E9F0E6B6E7B0E696E12
:10188000346A3450040D000EF324D96E040EF42093
:10189000DA6EDE6ADE6ADE6ADD6A342A0B0E3464D2
:1018A00054EF0CF056EF0CF041EF0CF06D8C6E6ABB
:1018B0006D986D9C6896106A036A000E056E000EA6
:1018C000046E68B666EF0CF068EF0CF05AEF0CF09F
:1018D000010E206E010E1F6E1E6A1D6A256A346A93
:1018E0003450020DF350080FD96EDA6ADE6ADD6AF1
:1018F0003450020DF350720FD96EDA6ADE6ADD6A77
:1019000034507F0FD96EDA6ADF6A34507C0FD96E9B
:10191000DA6ADF6A342A020E346491EF0CF093EF36
:101920000CF070EF0CF0080E086E040E096E160E27
:10193000706E040E0401036F300E026F080E016F0B
:10194000040E006F008F2B6A000E0001786F000EEE
:10195000796F000E7A6F000E7B6F1C6A296A120085
:10196000080E2C6E125007E1080E115CD8B0BBEFC8
:101970000CF0BDEF0CF0D5EF0CF011C02CF028509E
:10198000D8A4C5EF0CF0C7EF0CF0CBEF0CF0010EB4
:10199000286ED5EF0CF02804D8A4D1EF0CF0D3EFCB
:1019A0000CF0D5EF0CF0020E286E2C50115E000EDC
:1019B000125A20EE01F00850D9260950DA222CC024
:1019C000DFFF380E00018C6F040E8D6F10B0EBEF4F
:1019D0000CF0EDEF0CF02FEF0DF00AEF0DF00EC054
:1019E000F6FF0FC0F7FFF86A8CC0D9FF8DC0DAFF91
:1019F000070EF76403D00800F55005D0F6CFE1FFDD
:101A0000F7CFE2FFE750DF6E0E4A0F2A00018C4B42
:101A10008D2B2C062C50D8A410EF0DF012EF0DF0EA
:101A2000EFEF0CF037EF0DF00EC0F6FF0FC0F7FF31
:101A3000F86A8CC0D9FF8DC0DAFF070EF76403D0B7
:101A40000800F55005D0F6CFE1FFF7CFE2FFE750F1
:101A5000DF6E0E4A0F2A00018C4B8D2B2C062C506A
:101A6000D8A435EF0DF037EF0DF014EF0DF01200A4
:101A700004013039E832030B0009D8B442EF0DF00D
:101A800044EF0DF089EF0DF0B8EF0DF0108E080E59
:101A9000296EB8EF0DF0A5EC08F0B8EF0DF0A1EC51
:101AA0000FF0B8EF0DF02B0E0E6E0F6A1080010EC6
:101AB000116E108EB8EF0DF0B4EC0EF0B8EF0DF023
:101AC0007CEC04F0B8EF0DF034519A0F496E49C028
:101AD0000EF00F6A1080010E116E108EB8EF0DF02F
:101AE000108E34519A0FD96EDA6A32C4DFFFB8EF24
:101AF0000DF0000E3B6E020E3A6E000E3C6E000EB4
:101B00003D6E000E3F6E000E3E6E0BEC10F0B8EF17
:101B10000DF03151000AD8B45CEF0DF0010AD8B4D1
:101B200060EF0DF0020AD8B460EF0DF0060AD8B4E9
:101B300046EF0DF0030AD8B44BEF0DF0010AD8B40C
:101B400079EF0DF00F0AD8B453EF0DF0010AD8B4B5
:101B50004FEF0DF0030AD8B464EF0DF0010AD8B4CA
:101B600070EF0DF0070AD8B4B8EF0DF0B8EF0DF034
:101B7000120008C0D9FF09C0DAFF000EDFBC010E59
:101B80002D6E040E0818086E0950096E080E2918EB
:101B9000D8A4CDEF0DF0CFEF0DF0E1EF0DF0040183
:101BA00032517F0B6E6E6E50D8B4D9EF0DF0DBEF73
:101BB0000DF0DFEF0DF0100E296EE1EF0DF0040EC9
:101BC000296E2704D8A4E7EF0DF0E9EF0DF030EF10
:101BD0000EF020EE02F00850D9260950DA22380E15
:101BE000DE6E040EDD6EB0EC0CF0020E2818D8A4E8
:101BF000FCEF0DF0FEEF0DF00CEF0EF008C0D9FF7A
:101C000009C0DAFF040EDF6E08C0D9FF09C0DAFF91
:101C1000000EDB8E39EF0EF02D50D8A412EF0EF02F
:101C200014EF0EF022EF0EF008C0D9FF09C0DAFF62
:101C3000480EDF6E08C0D9FF09C0DAFF000EDB8E48
:101C400039EF0EF008C0D9FF09C0DAFF080EDF6EC9
:101C500008C0D9FF09C0DAFF000EDB8E39EF0EF0A5
:101C600003AE35EF0EF037EF0EF038EF0EF0039EB7
:101C7000276A12006DA23FEF0EF041EF0EF0A0EFC9
:101C80000EF0010E02EC14F0B3EF0EF019041A106E
:101C9000D8A44DEF0EF04FEF0EF054EF0EF0010E02
:101CA000D1EC13F0B1EF0EF04B0E19181A10D8A4A6
:101CB0005CEF0EF05EEF0EF063EF0EF0010E02EC43
:101CC00014F0B1EF0EF01A5009E1970E195CD8A08C
:101CD0006CEF0EF06EEF0EF074EF0EF0000E1A6E59
:101CE000000E196EB1EF0EF0B1EF0EF019041A10DC
:101CF000D8A47DEF0EF07FEF0EF084EF0EF0010E12
:101D0000D1EC13F0B1EF0EF0320E19181A10D8A45E
:101D10008CEF0EF08EEF0EF093EF0EF0010E02EC52
:101D200014F0B1EF0EF0B70E195C030E1A58D8A0DC
:101D30009CEF0EF09EEF0EF0B1EF0EF06EEF0EF096
:101D400029502F6E306A3050000AD8B4AAEF0EF036
:101D500076EF0EF02F50200AD8B446EF0EF076EF53
:101D60000EF0194A1A2A12000401386B396B0CEF75
:101D70000FF0108E2604D8A4C0EF0EF0C2EF0EF0C4
:101D80001CEF0FF038831CEF0FF0108E1CEF0FF0DC
:101D9000108E34510F0B0009D8B4D1EF0EF0D3EFF1
:101DA0000EF01CEF0FF034BFD8EF0EF0DAEF0EF0AC
:101DB000E7EF0EF034510F0B020DF350720FD96E96
:101DC000DA6ADECF2CF0DDCF2DF0F2EF0EF03451D9
:101DD0000F0B020DF350080FD96EDA6ADECF2CF02C
:101DE000DDCF2DF02CC0D9FF2DC0DAFFDFAEFBEF29
:101DF0000EF0FDEF0EF01CEF0FF02CC0D9FF2DC040
:101E0000DAFFDFA406EF0FF008EF0FF01CEF0FF082
:101E1000010E386F1CEF0FF030511F0B000AD8B4C1
:101E2000B9EF0EF0010AD8B4C5EF0EF0030AD8B42A
:101E3000C8EF0EF01CEF0FF010AE21EF0FF023EF04
:101E40000FF02AEF0FF0380E0E6E040E0F6E10809A
:101E5000020E116E12002050D8A431EF0FF033EFB4
:101E60000FF0A0EF0FF0010E206E1F50D8A43BEF33
:101E70000FF03DEF0FF0A0EF0FF0010E1F6E020EFE
:101E80002718D8A446EF0FF048EF0FF05DEF0FF0E2
:101E900020EE01F00850D9260950DA22DF6A08C086
:101EA000D9FF09C0DAFF480EDF6E08C0D9FF09C0AC
:101EB000DAFF000EDB8EA0EF0FF02704D8A463EF4B
:101EC0000FF065EF0FF0A0EF0FF0236A20EE01F0A6
:101ED0001750D9261850DA22080EDF6E20EE02F0D5
:101EE0001750D9261850DA22300EDE6E040EDD6E41
:101EF00017C0D9FF18C0DAFF040EDF6E17C0D9FF74
:101F000018C0DAFF000EDB8E010E236E20EE01F00A
:101F10001550D9261650DA22080EDF6E20EE02F098
:101F20001550D9261650DA22300EDE6E040EDD6E04
:101F300015C0D9FF16C0DAFF800EDF6EA0EF0FF0DC
:101F40001200108E710E2C6E0F0E2D6E000E2F6E65
:101F5000000E2E6E000E316E020E306E7DEC16F00D
:101F6000000E2C6E040E2D6E000E2F6E000E2E6EC7
:101F7000000E316E300E306E7DEC16F06D8C426AC4
:101F800042507F0FD96EDA6ADF6A42507C0FD96EF9
:101F9000DA6ADF6A422A020E4264D1EF0FF0D3EF11
:101FA0000FF0C0EF0FF09A0E2C6E2D6A000E2F6E00
:101FB000000E2E6E000E316E020E306E7DEC16F0AD
:101FC0006D9C080E086E040E096E000E176E040E4E
:101FD000186E17C015F018C016F032C42BF02B5035
:101FE000D8A4F5EF0FF0F7EF0FF0FBEF0FF0100EA6
:101FF000296E0AEF10F0000E3B6E010E3A6E2B0EAA
:102000003C6E3D6A000E3F6E010E3E6E0BEC10F012
:10201000200E296E12003AEF10F03AEC0EF0132861
:1020200009E17F0E1418D8B418EF10F01AEF10F071
:102030001EEF10F0134A142A73EF10F0000E146E06
:10204000000E136E73EF10F03AEC0EF0010EBBECC5
:1020500015F073EF10F03AEC0EF0020EBBEC15F039
:1020600073EF10F063EC12F073EF10F00FEC07F069
:1020700073EF10F03AC040F03BC041F04150000A0D
:10208000D8B449EF10F07F0AD8B46CEF10F073EFBA
:1020900010F04050010AD8B432EF10F0030AD8B45F
:1020A00073EF10F0010AD8B436EF10F0060AD8B476
:1020B00073EF10F0770AD8B473EF10F0010AD8B4B8
:1020C0000DEF10F0070AD8B42BEF10F0010AD8B4C6
:1020D00024EF10F073EF10F04050FF0AD8B473EF04
:1020E00010F073EF10F0120081B879EF10F07EEF6E
:1020F00010F000019E6B9E2B80EF10F000019E6B94
:1021000081B685EF10F089EF10F09F6B9F2B8BEF5E
:1021100010F000019F6BD8909F359E11A16F8E51DA
:10212000A119D8A496EF10F098EF10F09BEF10F0E3
:102130008F6BD4EF10F08F2B020E8F61A2EF10F097
:10214000A4EF10F0A6EF10F0D4EF10F08F6B9051C9
:10215000040DF350010FA1259E6F9EC0F6FF080EDF
:10216000F76E0800F5CFA0F0A0511B261B50800A87
:102170006B0FD8A0BEEF10F0C0EF10F0C4EF10F05E
:10218000140E1B6ED0EF10F01B50800A940FD8B0C5
:10219000CCEF10F0CEEF10F0D0EF10F0EC0E1B6E85
:1021A000A1C090F0A1C08EF012002D0E226E2AC0A8
:1021B0004AF0FD0E4A16D8A4E0EF10F0E2EF10F05E
:1021C00024EF11F02AC04AF0D8904A323F0E4A1646
:1021D0004A50040D000EF324176E040EF420186EFE
:1021E00017C015F018C016F0040E1518156E16500D
:1021F000166E17C0D9FF18C0DAFFDF30E8320F0BB8
:102200000D0AD8A406EF11F008EF11F020EF11F03D
:10221000300E2C6E040E2D6E20EE02F01750D926D3
:102220001850DA22DECF2EF0DDCF2FF0000E316E07
:10223000080E306E1FEC15F024EC12F030EF11F0A8
:102240009CEC12F030EF11F02A50FD0B040AD8A4D8
:102250002CEF11F02EEF11F030EF11F0B9EC0DF082
:1022600012001E6A1D6A020E2718D8A43AEF11F058
:102270003CEF11F05CEF11F020EE01F01550D92683
:102280001650DA22080EDF6E20EE02F01550D92625
:102290001650DA22380EDE6E040EDD6E15C0D9FF40
:1022A00016C0DAFF480EDF6E15C0D9FF16C0DAFF80
:1022B000000EDB8E84EF11F011500401365D1250D8
:1022C0003759D8B066EF11F068EF11F06CEF11F0EC
:1022D00036C411F037C412F0B0EC0CF020EE02F06E
:1022E0000850D9260950DA22380EDE6E040EDD6E53
:1022F00008C0D9FF09C0DAFF480EDF6E08C0D9FF59
:1023000009C0DAFF000EDB8E1200336E000E346E51
:10231000040E356E2C502D6E2E6AD8902D362E362A
:1023200033502F6E306AD8902F363036D8902F36F3
:1023300030362D502F24316E2E503020326ED890F2
:1023400031363236D890313632363150342632502A
:10235000352234C0D9FF35C0DAFFDF9E2C50D8A417
:10236000B4EF11F0B6EF11F0C2EF11F03350020DDF
:10237000F350720FD96EDA6A34C0DEFF35C0DDFF6C
:10238000CCEF11F03350020DF350080FD96EDA6A1A
:1023900034C0DEFF35C0DDFF34C0D9FF35C0DAFF01
:1023A000DF9C20EE04F03450D9263550DA22DF8C41
:1023B00012000001A06F01EF12F081A6E2EF11F010
:1023C000E5EF11F0010EE6EF11F0000E23EF12F031
:1023D00081A8EDEF11F0F0EF11F0010EF1EF11F027
:1023E000000E23EF12F081AAF8EF11F0FBEF11F0CD
:1023F000010EFCEF11F0000E23EF12F0000E23EFA0
:1024000012F00001A0519E6F9F6B9F51000AD8B43B
:102410000CEF12F0FEEF11F09E51000AD8B4FEEF5F
:1024200011F0010AD8B4DDEF11F0030AD8B4E8EFD7
:1024300011F0010AD8B4FEEF11F0070AD8B4F3EF97
:1024400011F0FEEF11F01200286A216A1E6A1D6A5F
:10245000236A276A08C0D9FF09C0DAFF7F0EDF169A
:10246000040E0818086E0950096E08C0D9FF09C08B
:10247000DAFF7F0EDF16040E0818086E0950096E89
:1024800015C0D9FF16C0DAFF7F0EDF16106A000EE6
:10249000126E000E116E036A000E056E000E046EC1
:1024A00038EC0DF0000E3B6E030E3A6E000E3C6EE3
:1024B000000E3D6E000E3F6E000E3E6E0BEC10F0F7
:1024C000E6EC09F01200000E0001846F000E856F2B
:1024D000000E826F000E836F72EF12F013C086F051
:1024E00014C087F01350861907E114508719D8A437
:1024F0007CEF12F07EEF12F06EEF12F01A0E366ED5
:10250000010E95EC15F01A0E366E020E95EC15F0D4
:1025100023EC16F0040EC4EC14F0F5EC16F0030EE8
:1025200033EC14F0020E33EC14F0030E02EC14F052
:10253000020ED1EC13F01200020E2718D8A4A3EF5C
:1025400012F0A5EF12F0A9EF12F046EC09F0D3EF6C
:1025500012F0276A2350D8A4B0EF12F0B2EF12F0B5
:10256000D2EF12F020EE01F01550D9261650DA22E3
:10257000080EDF6E20EE02F01550D9261650DA2232
:10258000300EDE6E040EDD6E15C0D9FF16C0DAFF08
:102590000C0EDF6E15C0D9FF16C0DAFF000EDB8E01
:1025A000D3EF12F0236A12000001A06FE4EF12F0E3
:1025B000929006EF13F0929206EF13F0929406EFCA
:1025C00013F0929606EF13F00001A0519E6F9F6BDF
:1025D0009F51000AD8B4EFEF12F006EF13F09E51AE
:1025E000000AD8B406EF13F0010AD8B4D8EF12F0FD
:1025F000030AD8B4DBEF12F0010AD8B4DEEF12F010
:10260000070AD8B4E1EF12F006EF13F01200000150
:10261000A06F17EF13F0897039EF13F0897239EF5B
:1026200013F0897439EF13F0897639EF13F0000154
:10263000A0519E6F9F6B9F51000AD8B422EF13F0F8
:1026400039EF13F09E51000AD8B439EF13F0010AA4
:10265000D8B40BEF13F0030AD8B40EEF13F0010A4D
:10266000D8B411EF13F0070AD8B414EF13F039EF10
:1026700013F012000001A06F4AEF13F089806CEF95
:1026800013F089826CEF13F089846CEF13F0898664
:102690006CEF13F00001A0519E6F9F6B9F51000AD9
:1026A000D8B455EF13F06CEF13F09E51000AD8B474
:1026B0006CEF13F0010AD8B43EEF13F0030AD8B45C
:1026C00041EF13F0010AD8B444EF13F0070AD8B46D
:1026D00047EF13F06CEF13F012000001A06F7DEFD5
:1026E00013F089909FEF13F089929FEF13F0899474
:1026F0009FEF13F089969FEF13F00001A0519E6F9A
:102700009F6B9F51000AD8B488EF13F09FEF13F02E
:102710009E51000AD8B49FEF13F0010AD8B471EFAC
:1027200013F0030AD8B474EF13F0010AD8B477EFAA
:1027300013F0070AD8B47AEF13F09FEF13F01200EA
:10274000040ED9EC11F00001A16FA151D8B4ABEF88
:1027500013F0ADEF13F0CEEF13F09251D8A4B3EF16
:1027600013F0B5EF13F0CEEF13F09351D8A4BBEFF5
:1027700013F0BDEF13F0C7EF13F0010E936F030ECC
:102780003AEC13F0020E6DEC13F0CEEF13F0936BF6
:10279000030E6DEC13F0020E3AEC13F0A1C092F0B0
:1027A00012002E6EE0EF13F0898001EF14F08982A1
:1027B00001EF14F0898401EF14F0898601EF14F021
:1027C0002E502C6E2D6A2D50000AD8B4EAEF13F06B
:1027D00001EF14F02C50000AD8B401EF14F0010AF4
:1027E000D8B4D4EF13F0030AD8B4D7EF13F0010A2A
:1027F000D8B4DAEF13F0070AD8B4DDEF13F001EF25
:1028000014F012002E6E11EF14F0899032EF14F0D4
:10281000899232EF14F0899432EF14F0899632EFF6
:1028200014F02E502C6E2D6A2D50000AD8B41BEFD8
:1028300014F032EF14F02C50000AD8B432EF14F038
:10284000010AD8B405EF14F0030AD8B408EF14F065
:10285000010AD8B40BEF14F0070AD8B40EEF14F045
:1028600032EF14F012002E6E42EF14F0929063EFEC
:1028700014F0929263EF14F0929463EF14F0929636
:1028800063EF14F02E502C6E2D6A2D50000AD8B430
:102890004CEF14F063EF14F02C50000AD8B463EF3F
:1028A00014F0010AD8B436EF14F0030AD8B439EFA3
:1028B00014F0010AD8B43CEF14F0070AD8B43FEF83
:1028C00014F063EF14F012000001A06F71EF14F028
:1028D000938693EF14F0938893EF14F0938A93EF19
:1028E00014F00001A0519E6F9F6B9F51000AD8B455
:1028F0007CEF14F093EF14F09E51000AD8B493EFDC
:1029000014F0010AD8B468EF14F0030AD8B46BEFDE
:1029100014F0010AD8B493EF14F0070AD8B46EEF9C
:1029200014F093EF14F0120070A099EF14F09BEFE5
:1029300014F0C2EF14F017C0D9FF18C0DAFF800EF0
:10294000DE18D8A4A6EF14F0A8EF14F0C1EF14F02D
:1029500008C0D9FF09C0DAFF840EDE18D8A4B3EF8F
:1029600014F0B5EF14F0C1EF14F017C0D9FF18C080
:10297000DAFF0C0EDF6E17C0D9FF18C0DAFF000EA9
:10298000DB8E7090689A12002E6ED0EF14F0938652
:10299000F1EF14F09388F1EF14F0938AF1EF14F053
:1029A0002E502C6E2D6A2D50000AD8B4DAEF14F098
:1029B000F1EF14F02C50000AD8B4F1EF14F0010A32
:1029C000D8B4C7EF14F0030AD8B4CAEF14F0010A60
:1029D000D8B4F1EF14F0070AD8B4CDEF14F0F1EF4A
:1029E00014F012000600E1CF4CF0E2CF4DF0D9CF49
:1029F0004EF0DACF4FF0F3CF50F0F4CF51F0F6CFE6
:102A000052F0F7CF53F0F8CF54F0F5CF55F003EC78
:102A100006F055C0F5FF54C0F8FF53C0F7FF52C091
:102A2000F6FF51C0F4FF50C0F3FF4FC0DAFF4EC0B5
:102A3000D9FF4DC0E2FF4CC0E1FF569211002EC0FD
:102A400034F02FC035F02CC032F02DC033F039EF08
:102A500015F034C0D9FF35C0DAFFDF50366E344A86
:102A6000352A32C0D9FF33C0DAFF36C0DFFF324A21
:102A7000332A3006D8A03106302806E13128D8A400
:102A800044EF15F046EF15F029EF15F012000001A4
:102A9000A36F53EF15F0010ED4EC12F0020E64ECAC
:102AA00014F06DEF15F00001A351A16FA26BA251BC
:102AB000000AD8B45EEF15F06DEF15F0A151000AD1
:102AC000D8B44BEF15F0010AD8B46DEF15F0030A36
:102AD000D8B46DEF15F06DEF15F01200200E2960DF
:102AE00074EF15F076EF15F078EF15F094EF15F020
:102AF00074EC10F0A0EC13F06DA281EF15F083EFF1
:102B000015F085EF15F094EF15F000019351D8A45E
:102B10008CEF15F08EEF15F092EF15F0A0EC0BF0A6
:102B200094EF15F0F3EC07F01200396E36A49BEF2A
:102B300015F09DEF15F0A2EF15F0000E2C6E395038
:102B400085EC11F036A2A7EF15F0A9EF15F0AEEF66
:102B500015F0010E2C6E395085EC11F0700E3924F1
:102B6000376E386A0F0E382237C0D9FF38C0DAFF07
:102B700036C0DFFF1200316EC6EF15F0010E33ECE8
:102B800014F0020EC4EC14F0DFEF15F031502F6E8C
:102B9000306A3050000AD8B4D0EF15F0DFEF15F0EE
:102BA0002F50000AD8B4BEEF15F0010AD8B4DFEFF9
:102BB00015F0030AD8B4DFEF15F0DFEF15F01200BF
:102BC00000019E6B1B50800A7C0FD8A0EAEF15F025
:102BD000ECEF15F0F2EF15F0010E9E6FFC0E1B26C8
:102BE00000EF16F01B50800A830FD8B0FAEF15F0F3
:102BF000FCEF15F000EF16F0020E9E6F040E1B2680
:102C00009E5112002950D8A408EF16F00AEF16F0D2
:102C100022EF16F06D6A696A160E6F6E9F0E6B6E6C
:102C20007B0E696ED08EA28AA08AF28E19EF16F002
:102C30006D866DA61EEF16F020EF16F018EF16F059
:102C4000010E296E12009386938881B82AEF16F040
:102C50002EEF16F02C6A2C2A2FEF16F02C6A81B674
:102C600034EF16F038EF16F02D6A2D2A39EF16F0F2
:102C70002D6AD8902D342C100001906F90C08EF0EA
:102C80001B6A8F6B12009EC0A4F09FC0A5F051EF8D
:102C900016F0A4C0D9FFA5C0DAFFA0C0DFFFA44B87
:102CA000A52B0001A207D8A0A307A22906E1A3290A
:102CB000D8A45DEF16F05FEF16F049EF16F01200A2
:102CC000256A000E3B6E740E3A6E000E3C6E000ECE
:102CD0003D6E000E3F6E000E3E6E0BEC10F06D92DE
:102CE000699474EF16F0689468B479EF16F07BEF8E
:102CF00016F073EF16F01C6A12002CC032F02DC0D3
:102D000033F08BEF16F032C0D9FF33C0DAFF2EC09C
:102D1000DFFF324A332A3006D8A03106302806E1D8
:102D20003128D8A496EF16F098EF16F083EF16F03E
:102D30001200000E47EC15F00D0E0001AF6FAF0E44
:102D4000AE6FB60EE82EFED7AE2FFCD7AF2FFAD758
:102D5000000015EC0BF002EC16F06EEC15F0ADEF88
:102D600016F007EF00F0010E00017827000E79231E
:102D70007A237B232550D8A4C0EF16F0C2EF16F0BB
:102D8000CCEF16F01C2A1C50D8A4C9EF16F0CBEFDC
:102D900016F0CCEF16F01C681200698468986D82FA
:102DA000010E256E1C6A000E3B6E750E3A6E000E0B
:102DB0003C6E000E3D6E000E3F6E000E3E6E0BEC44
:102DC00010F0120000EE60F03E0EEE6AE806FDE143
:102DD00000EE01F02B0EEE6AE806FDE156905692E9
:102DE000000EF86E000199EF16F0000E0001686FFA
:102DF000000E696F606B000E646F000E636F010E52
:082E0000656F666B676B120041
:020000040030CA
:0E000000240E3F1EFF8181FF0FC00FE00F4056
:00000001FF
