:0400000007EF00F016
:100008005C8244ED0EF096EF11F004012205D8A4AD
:1000180010EF00F012EF00F02BEF00F020511F0B53
:100028000009D8A41AEF00F01CEF00F02BEF00F045
:100038000A8E030E2119D8A424EF00F026EF00F051
:100048002AEF00F0010E296E2BEF00F0296A2251E9
:10005800D8A431EF00F033EF00F08BEF01F020511E
:100068001F0B020AD8A43BEF00F03DEF00F08BEF26
:1000780001F024510F0B0009D8B445EF00F047EF09
:1000880000F08BEF01F024510F0B466E020E466014
:1000980050EF00F052EF00F08BEF01F0200E2C181B
:1000A800D8A459EF00F05BEF00F08BEF01F00A8E57
:1000B80024BF61EF00F063EF00F079EF00F0245106
:1000C8000F0B020DF350110FD96EDA6ADECF4BF029
:1000D800DDCF4CF024510F0B466E4650150FD96EEC
:1000E800DA6ADF504A6E8DEF00F024510F0B020DD3
:1000F800F3500D0FD96EDA6ADECF4BF0DDCF4CF03E
:1001080024510F0B466E4650170FD96EDA6ADF502E
:100118004A6E4AB092EF00F094EF00F09CEF00F0C6
:10012800FB0E4B144B6EFF0E4C144C6EA1EF00F0FF
:10013800040E4B104B6E4C504C6E24BFA6EF00F0D3
:10014800A8EF00F0B5EF00F024510F0B020DF350AB
:10015800110FD96EDA6A4BC0DEFF4CC0DDFFC0EF6D
:1001680000F024510F0B020DF3500D0FD96EDA6A0F
:100178004BC0DEFF4CC0DDFF030E2119D8A4C7EF2A
:1001880000F0C9EF00F0FBEF00F04BC0D9FF4CC006
:10019800DAFFDFAED2EF00F0D4EF00F0EDEF00F0C1
:1001A80024BFD9EF00F0DBEF00F0E5EF00F02451B9
:1001B8000F0B466E4650150FD96EDA6ADF82EDEFE7
:1001C80000F024510F0B466E4650170FD96EDA6AAD
:1001D800DF824BC0D9FF4CC0DAFF000EDB844BC076
:1001E800D9FF4CC0DAFF000EDB8E8BEF01F0040E56
:1001F8004B184B6E4C504C6E4BC0D9FF4CC0DAFFBD
:10020800DFAE09EF01F00BEF01F027EF01F04BC073
:10021800D9FF4CC0DAFF7F0EDF164BC0D9FF4CC0A8
:10022800DAFF000EDB8C000E3F6E050E3E6E4BC0F3
:1002380040F04CC041F0000E436E020E426E27ECB7
:100248000CF02DEF01F04BC0D9FF4CC0DAFF000EC7
:10025800DB8C040E4B184B6E4C504C6E4AB237EF89
:1002680001F039EF01F044EF01F04BC0D9FF4CC069
:10027800DAFFDFAE42EF01F044EF01F074EF01F076
:10028800040124BF4AEF01F04CEF01F056EF01F0F2
:1002980024510F0B466E4650150FD96EDA6ADF925D
:1002A8005EEF01F024510F0B466E4650170FD96EC2
:1002B800DA6ADF924BC0D9FF4CC0DAFF3B0EDF167B
:1002C800000E3F6E050E3E6E4BC040F04CC041F034
:1002D800000E436E020E426E27EC0CF07AEF01F02E
:1002E8004BC0D9FF4CC0DAFF3B0EDF160401245186
:1002F8000F0B466E476A700E4624486E0F0E472055
:10030800496E48C0D9FF49C0DAFFFE0EDF16120059
:10031800200E2C6092EF01F094EF01F096EF01F0BF
:10032800D4EF02F06DA29BEF01F09DEF01F0A6EF74
:1003380001F0010ED4EC0DF0D4EF02F07BC077F0A1
:100348007CC078F000017B51771907E17C5178195E
:10035800D8A4B1EF01F0B3EF01F0A2EF01F07551AD
:10036800775D8D6F765178598E6F8EBFC0EF01F033
:10037800BEEF01F0CCEF01F07551775D8A6F7651D1
:1003880078598B6FFF0E8A258D6F7F0E8B218E6FAC
:100398008EBFD8EF01F0890E8D5D130E8E59D8A04F
:1003A800D8EF01F0DAEF01F0E0EF01F0780E7725F1
:1003B800756FEC0E7821766F69516A11D8B4E7EF42
:1003C80001F0E9EF01F0F4EF01F069C0D9FF6AC06C
:1003D800DAFFDFBEF2EF01F0F4EF01F0ADEF02F06B
:1003E800000E7F6F050E806F000E826F000E816F0A
:1003F800000E846F090E836F11EC11F0010E0501D8
:10040800006F010ED4EC0DF0E806D8A40EEF02F050
:1004180010EF02F035EF02F000016E51D8A417EF8B
:1004280002F019EF02F037EF02F0010E6E6F010EC5
:100438000501006F6DC003F500016D2B020E05016B
:100448000A6F0B6B0B8B280E00016D19D8A42FEFC8
:1004580002F031EF02F037EF02F0040E6D6F37EF64
:1004680002F000016E6B8C6B8F6B000E8F25D96EBE
:10047800DA6A050EDA228F51600FE16EE26ADE5009
:10048800E618D8B44AEF02F04CEF02F050EF02F051
:10049800010E8C6F59EF02F08F2B080E8F6557EF06
:1004A80002F059EF02F039EF02F079517A11D8B41D
:1004B80060EF02F062EF02F073EF02F079518D5DA8
:1004C8008E51800A8A6F7A51800A8A59D8A06FEFB4
:1004D80002F071EF02F073EF02F0010E8C6F8C05E1
:1004E800D8A479EF02F07BEF02F0ADEF02F025EE31
:1004F80000F010EE60F0080EDBCFE3FFE806FCE248
:10050800010E7F6F000E806F050E816F090E826FDE
:10051800010E12EC07F07FC069F080C06AF0050197
:100528000BAB99EF02F09BEF02F0A9EF02F0010E7E
:1005380000017F6F0A0E806F050E816F020E826FB9
:10054800010E12EC07F005010B9B77C075F078C01F
:1005580076F000016B516C11D8B4B5EF02F0B7EF2B
:1005680002F0C2EF02F06BC0D9FF6CC0DAFFDFBE49
:10057800C0EF02F0C2EF02F0D4EF02F0A9EC11F0E4
:10058800000E00017F6F090E806F050E816F010E4E
:10059800826F010E12EC07F07FC06BF080C06CF028
:1005A80012002C04D8A4DBEF02F0DDEF02F0E9EF33
:1005B80002F06DBAE2EF02F0E4EF02F0E9EF02F0C8
:1005C800686A69806988020E2C6E68A4EEEF02F0F2
:1005D800F0EF02F0FAEF02F069A4F5EF02F0F7EF9E
:1005E80002F0FAEF02F068942EEC11F06DA2FFEF22
:1005F80002F001EF03F004EF03F0A19ADEEF03F03D
:1006080068A009EF03F00BEF03F018EF03F069A0FF
:1006180010EF03F012EF03F018EF03F0C5EC08F049
:10062800A08A040E2C6E689068A81DEF03F01FEFD7
:1006380003F028EF03F069A824EF03F026EF03F096
:1006480028EF03F081EC11F068AC2DEF03F02FEFE9
:1006580003F05AEF03F069AC34EF03F036EF03F020
:1006680044EF03F0000E3F6E730E3E6E000E406EB8
:10067800000E416E000E436E010E426E27EC0CF028
:10068800689C67EC11F02550D8B44DEF03F04FEF9C
:1006980003F050EF03F025062550D8A456EF03F0D9
:1006A80058EF03F05AEF03F047EC0BF068AA5FEF3E
:1006B80003F061EF03F06AEF03F069AA66EF03F055
:1006C80068EF03F06AEF03F0D8EC0FF068A26FEF61
:1006D80003F071EF03F086EF03F069A276EF03F001
:1006E80078EF03F086EF03F07F0E3F6E3E68000E52
:1006F800406E000E416E000E436E010E426E27ECF6
:100708000CF06A6A040E2C608CEF03F08EEF03F095
:1007180091EF03F0A19ADEEF03F069A696EF03F0DC
:1007280098EF03F0DDEF03F04F6A68A69EEF03F041
:10073800A0EF03F0DDEF03F06CCF2DF02D30E832A1
:10074800E8320F0B276E68962DB4ADEF03F0AFEFCC
:1007580003F0B6EF03F02750150FD96EDA6ADF7091
:10076800BBEF03F02750170FD96EDA6ADF702750F6
:10077800D8A4C1EF03F0C3EF03F0C7EF03F091EC87
:100788000CF0D4EF03F0000E3F6E720E3E6E2D0E8D
:10079800406E416A000E436E000E426E27EC0CF06C
:1007A8004F2A030E4F64DBEF03F0DDEF03F099EF00
:1007B80003F0A19A120020EE01F01B50D9261C501C
:1007C800DA22DF50346E3450045C000E0558D8B07D
:1007D800F0EF03F0F2EF03F0F4EF03F004C034F0AD
:1007E8003450045E000E055A336A0AEF04F0280EEE
:1007F8003324D96EDA6A040EDA2201C0E1FF02C09E
:10080800E2FFDFCFE7FF014A022A332A3450335C84
:10081800D8A011EF04F013EF04F0FBEF03F004503D
:100828000510D8B41AEF04F01CEF04F055EF04F0EB
:1008380020EE01F01950D9261A50DA22080EDF6E80
:1008480020EE02F01950D9261A50DA22280EDE6E50
:10085800040EDD6E1BC0D9FF1CC0DAFFDFBC37EF0A
:1008680004F039EF04F047EF04F019C0D9FF1AC0BB
:10087800DAFF480EDF6E19C0D9FF1AC0DAFF000E82
:10088800DB8E96EF04F019C0D9FF1AC0DAFF080E04
:10089800DF6E19C0D9FF1AC0DAFF000EDB8E96EFA3
:1008A80004F020EE01F01950D9261A50DA22080E69
:1008B800DF6E20EE02F01950D9261A50DA22200EE7
:1008C800DE6E040EDD6E19C0D9FF1AC0DAFF040E01
:1008D800DF6E19C0D9FF1AC0DAFF000EDB8E065092
:1008E8000710D8B47AEF04F07CEF04F08BEF04F033
:1008F80020EE06F002D88BEF04F00500FA6EDE5009
:10090800FD6EDE50FE6EF850FF6EFA501200039E28
:100918002450D8A492EF04F094EF04F096EF04F07A
:1009280047EC0BF01200040120511F0BE806D8B465
:10093800A0EF04F0A2EF04F0A4EF04F03BEF05F001
:100948002451D8B4AAEF04F0ACEF04F0AEEF04F0F1
:100958003BEF05F0060E2119D8A4B5EF04F0B7EF68
:1009680004F0E8EF04F0D9EF04F02F04D8A4BFEFA7
:1009780004F0C1EF04F0E8EF04F0B50E086E7F0E46
:10098800096E000E0C6E090E0B6EC00E0A6EE8EFB3
:1009980004F0070E086E7F0E096E000E0C6E680ECE
:1009A8000B6EC00E0A6EE8EF04F02351210AD8B48A
:1009B800B9EF04F0030AD8B4CDEF04F0010AD8B4B3
:1009C800E8EF04F0E8EF04F02039E832030BE8061A
:1009D800D8B4F1EF04F0F3EF04F020EF05F03BEFAB
:1009E80005F0CBEC11F03BEF05F07E0E086E096ABE
:1009F800000E0C6E010E0B6EC10E0A6E3BEF05F079
:100A0800800E0A6E23C47EF07EC030F02251D9ECED
:100A180011F03BEF05F07D0E086E096A000E0C6EB2
:100A2800010E0B6E810E0A6E3BEF05F0800E0A6E0A
:100A380022C47DF03BEF05F02151010AD8B43BEF09
:100A480005F0030AD8B4F9EF04F0010AD8B40FEF9F
:100A580005F00A0AD8B4F5EF04F0030AD8B404EF95
:100A680005F0010AD8B41AEF05F03BEF05F01200C3
:100A7800800E04012019D8A444EF05F046EF05F0D4
:100A8800DEEF05F0C00E0A6ECFEF05F0E80E086E37
:100A98007F0E096E000E0C6E120E0B6EDEEF05F067
:100AA8002251D8A45AEF05F05CEF05F09AEF05F053
:100AB8002251020D050EF324F66E7F0EF420F76E18
:100AC8000900F5CF08F00A00F5CF09F0020E082456
:100AD800306E000E0920316E30C0F6FF31C0F7FFCE
:100AE800F86A070EF76403D00800F55005D0F6CF72
:100AF800E1FFF7CFE2FFE7500B6E030E0824306EDC
:100B0800000E0920316E30C0F6FF31C0F7FFF86AD9
:100B1800070EF76403D00800F55005D0F6CFE1FFC3
:100B2800F7CFE2FFE7500C6EDEEF05F00A6ADEEF62
:100B380005F0030E2261A3EF05F0A5EF05F0C9EF5C
:100B480005F02251020DFF0EF324F66E7E0EF420FE
:100B5800F76E0900F5CF08F00A00F5CF09F008C0D4
:100B6800F6FF09C0F7FFF86A070EF76403D008001C
:100B7800F55005D0F6CFE1FFF7CFE2FFE750306E32
:100B880030500B6E0C6ADEEF05F00A6ADEEF05F0F6
:100B98000A6ADEEF05F02351010AD8B44AEF05F0DE
:100BA800030AD8B454EF05F0010AD8B49DEF05F054
:100BB800CCEF05F012006D980ABEE5EF05F0E7EFFF
:100BC80005F02AEF06F003AEECEF05F0EEEF05F0C6
:100BD800FEEF05F0020E2A6E2050D8A4F6EF05F0BD
:100BE800F8EF05F0FAEF05F0EDEC0CF0226A236A55
:100BF80078EF06F020EE01F01950D9261A50DA22C3
:100C0800080EDF6E20EE02F01950D9261A50DA22AB
:100C1800200EDE6E040EDD6E19C0D9FF1AC0DAFF91
:100C28000C0EDF6E19C0D9FF1AC0DAFF000EDB8E7A
:100C38000DC0D9FF0EC0DAFF040EDF6E0DC0D9FF5C
:100C48000EC0DAFF000EDB8E78EF06F0040120AF4D
:100C580030EF06F032EF06F04CEF06F0010E2A6E88
:100C68002150D8A43AEF06F03CEF06F03EEF06F02C
:100C7800EDEC0CF0226A236A2450D8A446EF06F063
:100C880048EF06F078EF06F047EC0BF078EF06F047
:100C9800020E2A6E20EE01F01950D9261A50DA22D7
:100CA800080EDF6E20EE02F01950D9261A50DA220B
:100CB800200EDE6E040EDD6E19C0D9FF1AC0DAFFF1
:100CC800040EDF6E19C0D9FF1AC0DAFF000EDB8EE2
:100CD800226A236A2450D8A474EF06F076EF06F04F
:100CE80078EF06F048EF06F012000DC0D9FF0EC0ED
:100CF800DAFF000EDFBC010E336E040E0D180D6E08
:100D08000E500E6E080E2C18D8A48DEF06F08FEF3B
:100D180006F0A1EF06F0040122517F0B6E6E6E50B3
:100D2800D8B499EF06F09BEF06F09FEF06F0100E8F
:100D38002C6EA1EF06F0040E2C6E2A04D8A4A7EF9F
:100D480006F0A9EF06F0F0EF06F020EE02F00D50E5
:100D5800D9260E50DA22280EDE6E040EDD6E4DEC1A
:100D680009F0020E2B18D8A4BCEF06F0BEEF06F06F
:100D7800CCEF06F00DC0D9FF0EC0DAFF040EDF6E0F
:100D88000DC0D9FF0EC0DAFF000EDB8E11EF07F0A1
:100D98003350D8A4D2EF06F0D4EF06F0E2EF06F015
:100DA8000DC0D9FF0EC0DAFF480EDF6E0DC0D9FFA7
:100DB8000EC0DAFF000EDB8E11EF07F00DC0D9FF71
:100DC8000EC0DAFF080EDF6E0DC0D9FF0EC0DAFFC5
:100DD800000EDB8E11EF07F003AEF5EF06F0F7EF2C
:100DE80006F010EF07F006500710D8B4FEEF06F033
:100DF80000EF07F00FEF07F020EE06F002D80FEF34
:100E080007F00500FA6EDE50FD6EDE50FE6EF850FB
:100E1800FF6EFA501200039E2A6A12000001876FC3
:100E280000017F51D8B41BEF07F01DEF07F029EF41
:100E380007F08751020DF3500D0FD96EDA6ADECF35
:100E480088F0DDCF89F033EF07F08751020DF350BA
:100E5800110FD96EDA6ADECF88F0DDCF89F08851BC
:100E68008911D8A43AEF07F03CEF07F042EF07F0FA
:100E7800000E7F6F000E806FA6EF07F020EE02F0E5
:100E88008851D9268951DA2280C0DEFF81C0DDFF72
:100E980020EE01F08851D9268951DA2282C0DFFF7D
:100EA80088C0D9FF89C0DAFF400EDF1688C0D9FF95
:100EB80089C0DAFF000EDB8688C0D9FF89C0DAFF57
:100EC800000EDB8E7F51D8B46CEF07F06EEF07F0A1
:100ED80089EF07F08751020DF3500D0FD96EDA6ACA
:100EE800DECF83F0DDCF84F0040E8319856F845143
:100EF800866F8751020DF3500D0FD96EDA6A85C0DF
:100F0800DEFF86C0DDFFA2EF07F08751020DF35028
:100F1800110FD96EDA6ADECF83F0DDCF84F0040ECC
:100F28008319856F8451866F8751020DF350110F15
:100F3800D96EDA6A85C0DEFF86C0DDFF88C07FF023
:100F480089C080F01200386E3050D8B4AEEF07F088
:100F5800B0EF07F0BCEF07F03850020DF3500D0F5B
:100F6800D96EDA6ADECF39F0DDCF3AF0C6EF07F096
:100F78003850020DF350110FD96EDA6ADECF39F00E
:100F8800DDCF3AF039503A10D8A4CDEF07F0CFEFC3
:100F980007F0D5EF07F0000E306E000E316E39EF16
:100FA80008F020EE02F03950D9263A50DA2231C042
:100FB800DEFF32C0DDFF20EE01F03950D9263A506D
:100FC800DA2233C0DFFF39C0D9FF3AC0DAFF400E5A
:100FD800DF1639C0D9FF3AC0DAFF000EDB8639C008
:100FE800D9FF3AC0DAFF000EDB8E3050D8B4FFEFDD
:100FF80007F001EF08F01CEF08F03850020DF3502D
:101008000D0FD96EDA6ADECF34F0DDCF35F0040E7D
:101018003418366E3550376E3850020DF3500D0FB8
:10102800D96EDA6A36C0DEFF37C0DDFF35EF08F06B
:101038003850020DF350110FD96EDA6ADECF34F052
:10104800DDCF35F0040E3418366E3550376E385013
:10105800020DF350110FD96EDA6A36C0DEFF37C0C1
:10106800DDFF39C030F03AC031F01200A09A6A6A48
:10107800686A706A710E00017F6F0F0E806F000E34
:10108800826F000E816F000E846F010E836F11EC6A
:1010980011F0160E6F6E9F0E6B6E7B0E696E00015F
:1010A800876B8751040D000EF324D96E040EF420CB
:1010B800DA6EDE6ADE6ADE6ADD6A872B070E87650E
:1010C80068EF08F06AEF08F055EF08F06D8C6E6A6B
:1010D8006D986D9C68960A6A036A000E056E000E8C
:1010E800046E68B67AEF08F07CEF08F06EEF08F04F
:1010F800010E236E010E226E216A206A286A000101
:10110800876B8751020DF3500D0FD96EDA6ADE6ACC
:10111800DD6A8751020DF350110FD96EDA6ADE6A63
:10112800DD6A8751170FD96EDA6ADF6A8751150FA2
:10113800D96EDA6ADF6A872B010E8765A6EF08F099
:10114800A8EF08F085EF08F0080E0D6E040E0E6E7D
:10115800160E706E040E0401036F200E026F080E47
:10116800016F040E006F008F2F6A000E00016F6F71
:10117800000E706F000E716F000E726F1F6A2C6A7E
:101188001200A09A6A6A686A706A710E306E0F0E51
:10119800316E000E336E000E326E000E356E010E8B
:1011A800346E4BEC11F0160E6F6E9F0E6B6E7B0E4D
:1011B800696E386A3850040D000EF324D96E040E97
:1011C800F420DA6EDE6ADE6ADE6ADD6A382A070E25
:1011D8003864F1EF08F0F3EF08F0DEEF08F06D8CFB
:1011E8006E6A6D986D9C68960A6A036A000E056EB1
:1011F800000E046E68B603EF09F005EF09F0F7EF8B
:1012080008F0010E236E010E226E216A206A286AF8
:10121800386A3850020DF3500D0FD96EDA6ADE6A5B
:10122800DD6A3850020DF350110FD96EDA6ADE6AA2
:10123800DD6A3850170FD96EDA6ADF6A3850150F31
:10124800D96EDA6ADF6A382A010E38642EEF09F09F
:1012580030EF09F00DEF09F0080E0D6E040E0E6E5A
:10126800160E706E040E0401036F200E026F080E36
:10127800016F040E006F008F2F6A000E00016F6F60
:10128800000E706F000E716F000E726F1F6A2C6A6D
:101298001200080E306E0C5007E1080E0B5CD8B037
:1012A80058EF09F05AEF09F072EF09F00BC030F06F
:1012B8002B50D8A462EF09F064EF09F068EF09F049
:1012C800010E2B6E72EF09F02B04D8A46EEF09F013
:1012D80070EF09F072EF09F0020E2B6E30500B5EC2
:1012E800000E0C5A20EE01F00D50D9260E50DA22CD
:1012F80030C0DFFF280E0001736F040E746F0AB050
:1013080088EF09F08AEF09F0CCEF09F0A7EF09F0B0
:1013180008C0F6FF09C0F7FFF86A73C0D9FF74C0A8
:10132800DAFF070EF76403D00800F55005D0F6CFB2
:10133800E1FFF7CFE2FFE750DF6E084A092A000114
:10134800734B742B30063050D8A4ADEF09F0AFEFD3
:1013580009F08CEF09F0D4EF09F008C0F6FF09C0D6
:10136800F7FFF86A73C0D9FF74C0DAFF070EF76495
:1013780003D00800F55005D0F6CFE1FFF7CFE2FF24
:10138800E750DF6E084A092A0001734B742B3006B8
:101398003050D8A4D2EF09F0D4EF09F0B1EF09F03A
:1013A800120004012039E832030B0009D8B4DFEF3A
:1013B80009F0E1EF09F026EF0AF055EF0AF00A8E7E
:1013C800080E2C6E55EF0AF03CEC05F055EF0AF0CC
:1013D800BDEC0BF055EF0AF02F0E086E096A0A8073
:1013E800010E0B6E0A8E55EF0AF0D0EC0AF055EF9D
:1013F8000AF009EC00F055EF0AF024512E0F4D6E5B
:101408004DC008F0096A0A80010E0B6E0A8E55EF6E
:101418000AF00A8E24512E0FD96EDA6A22C4DFFF31
:1014280055EF0AF0000E3F6E020E3E6E000E406E43
:10143800000E416E000E436E000E426E27EC0CF05B
:1014480055EF0AF02151000AD8B4F9EF09F0010A62
:10145800D8B4FDEF09F0020AD8B4FDEF09F0060A86
:10146800D8B4E3EF09F0030AD8B4E8EF09F0010AA9
:10147800D8B416EF0AF00F0AD8B4F0EF09F0010A51
:10148800D8B4ECEF09F0030AD8B401EF0AF0010A66
:10149800D8B40DEF0AF0070AD8B455EF0AF055EFA3
:1014A8000AF012006DA25BEF0AF05DEF0AF0BCEFE4
:1014B8000AF0010EA7EC0FF0CFEF0AF01D041E1082
:1014C800D8A469EF0AF06BEF0AF070EF0AF0010E8A
:1014D80076EC0FF0CDEF0AF04B0E1D181E10D8A4B5
:1014E80078EF0AF07AEF0AF07FEF0AF0010EA7EC26
:1014F8000FF0CDEF0AF01E5009E1970E1D5CD8A041
:1015080088EF0AF08AEF0AF090EF0AF0000E1E6EDC
:10151800000E1D6ECDEF0AF0CDEF0AF01D041E106F
:10152800D8A499EF0AF09BEF0AF0A0EF0AF0010E99
:1015380076EC0FF0CDEF0AF0320E1D181E10D8A46D
:10154800A8EF0AF0AAEF0AF0AFEF0AF0010EA7EC35
:101558000FF0CDEF0AF0B70E1D5C030E1E58D8A091
:10156800B8EF0AF0BAEF0AF0CDEF0AF08AEF0AF006
:101578002C50336E346A3450000AD8B4C6EF0AF0DF
:1015880092EF0AF03350200AD8B462EF0AF092EFD3
:101598000AF01D4A1E2A12000401286B296B28EF45
:1015A8000BF00A8E2904D8A4DCEF0AF0DEEF0AF06B
:1015B80038EF0BF0288338EF0BF00A8E38EF0BF07A
:1015C8000A8E24510F0B0009D8B4EDEF0AF0EFEFA3
:1015D8000AF038EF0BF024BFF4EF0AF0F6EF0AF048
:1015E80003EF0BF024510F0B020DF350110FD96EBE
:1015F800DA6ADECF30F0DDCF31F00EEF0BF0245198
:101608000F0B020DF3500D0FD96EDA6ADECF30F0F2
:10161800DDCF31F030C0D9FF31C0DAFFDFAE17EFD0
:101628000BF019EF0BF038EF0BF030C0D9FF31C0D9
:10163800DAFFDFA422EF0BF024EF0BF038EF0BF00A
:10164800010E286F38EF0BF020511F0B000AD8B499
:10165800D5EF0AF0010AD8B4E1EF0AF0030AD8B4CA
:10166800E4EF0AF038EF0BF00AAE3DEF0BF03FEF76
:101678000BF046EF0BF0280E086E040E096E0A8078
:10168800020E0B6E12002350D8A44DEF0BF04FEF53
:101698000BF0BCEF0BF0010E236E2250D8A457EFCD
:1016A8000BF059EF0BF0BCEF0BF0010E226E020E9F
:1016B8002A18D8A462EF0BF064EF0BF079EF0BF067
:1016C80020EE01F00D50D9260E50DA22DF6A0DC047
:1016D800D9FF0EC0DAFF480EDF6E0DC0D9FF0EC06D
:1016E800DAFF000EDB8EBCEF0BF02A04D8A47FEFE4
:1016F8000BF081EF0BF0BCEF0BF0266A20EE01F047
:101708001B50D9261C50DA22080EDF6E20EE02F09C
:101718001B50D9261C50DA22200EDE6E040EDD6E18
:101728001BC0D9FF1CC0DAFF040EDF6E1BC0D9FF37
:101738001CC0DAFF000EDB8E010E266E20EE01F0D3
:101748001950D9261A50DA22080EDF6E20EE02F060
:101758001950D9261A50DA22200EDE6E040EDD6EDC
:1017680019C0D9FF1AC0DAFF800EDF6EBCEF0BF08C
:1017780012000A8E710E306E0F0E316E000E336E2F
:10178800000E326E000E356E010E346E4BEC11F009
:10179800000E306E040E316E000E336E000E326E87
:1017A800000E356E200E346E4BEC11F06D8C466ACF
:1017B8004650170FD96EDA6ADF6A4650150FD96E90
:1017C800DA6ADF6A462A010E4664EDEF0BF0EFEFA6
:1017D8000BF0DCEF0BF02E0E306E316A000E336E1C
:1017E800000E326E000E356E010E346E4BEC11F0A9
:1017F8006D9C080E0D6E040E0E6E000E1B6E040E10
:101808001C6E1BC019F01CC01AF022C42FF02F50F8
:10181800D8A411EF0CF013EF0CF017EF0CF0100E2A
:101828002C6E26EF0CF0000E3F6E010E3E6E2F0E52
:10183800406E416A000E436E010E426E27EC0CF0BA
:10184800200E2C6E120057EF0CF056EC0AF0000137
:101858007B2909E17F0E7C19D8B435EF0CF037EFFE
:101868000CF03BEF0CF07B4B7C2B90EF0CF0000E58
:101878007C6F000E7B6F90EF0CF056EC0AF0010EB7
:101888005AEC10F090EF0CF056EC0AF0020E5AECFD
:1018980010F090EF0CF012EC0FF090EF0CF097ECCA
:1018A80004F090EF0CF03EC044F03FC045F04550C6
:1018B800000AD8B466EF0CF07F0AD8B489EF0CF0B0
:1018C80090EF0CF04450010AD8B44FEF0CF0030A23
:1018D800D8B490EF0CF0010AD8B453EF0CF0060A14
:1018E800D8B490EF0CF0770AD8B490EF0CF0010A56
:1018F800D8B429EF0CF0070AD8B448EF0CF0010A65
:10190800D8B441EF0CF090EF0CF04450FF0AD8B473
:1019180090EF0CF090EF0CF012002D0E256E2DC0FC
:101928004EF0FD0E4E16D8A49CEF0CF09EEF0CF076
:10193800E0EF0CF02DC04EF0D8904E323F0E4E1610
:101948004E50040D000EF3241B6E040EF4201C6E82
:101958001BC019F01CC01AF0040E1918196E1A5081
:101968001A6E1BC0D9FF1CC0DAFFDF30E8320F0B3C
:101978000D0AD8A4C2EF0CF0C4EF0CF0DCEF0CF0A9
:10198800200E306E040E316E20EE02F01B50D92668
:101998001C50DA22DECF32F0DDCF33F0000E356E88
:1019A800080E346E32EC10F095EC0DF0ECEF0CF004
:1019B8000CEC0EF0ECEF0CF02D50FD0B040AD8A443
:1019C800E8EF0CF0EAEF0CF0ECEF0CF079EC06F035
:1019D8001200216A206A020E2A18D8A4F6EF0CF029
:1019E800F8EF0CF018EF0DF020EE01F01950D926A1
:1019F8001A50DA22080EDF6E20EE02F01950D926AE
:101A08001A50DA22280EDE6E040EDD6E19C0D9FFD8
:101A18001AC0DAFF480EDF6E19C0D9FF1AC0DAFF04
:101A2800000EDB8E40EF0DF00B500401265D0C50CC
:101A38002759D8B022EF0DF024EF0DF028EF0DF064
:101A480026C40BF027C40CF04DEC09F020EE02F090
:101A58000D50D9260E50DA22280EDE6E040EDD6EE9
:101A68000DC0D9FF0EC0DAFF480EDF6E0DC0D9FFDA
:101A78000EC0DAFF000EDB8E1200376E000E386ED5
:101A8800040E396E3050316E326AD89031363236A3
:101A98003750336E346AD89033363436D89033366C
:101AA800343631503324356E32503420366ED89067
:101AB80035363636D890353636363550382636509F
:101AC800392238C0D9FF39C0DAFFDF9E3050D8A498
:101AD80070EF0DF072EF0DF07EEF0DF03750020D44
:101AE800F350110FD96EDA6A38C0DEFF39C0DDFF56
:101AF80088EF0DF03750020DF3500D0FD96EDA6AEA
:101B080038C0DEFF39C0DDFF38C0D9FF39C0DAFF81
:101B1800DF9C20EE04F03850D9263950DA22DF8CC9
:101B280012002B6A246A216A206A266A2A6A0DC072
:101B3800D9FF0EC0DAFF7F0EDF16040E0D180D6EEA
:101B48000E500E6E0DC0D9FF0EC0DAFF7F0EDF16E5
:101B5800040E0D180D6E0E500E6E19C0D9FF1AC066
:101B6800DAFF7F0EDF160A6A000E0C6E000E0B6E8F
:101B7800036A000E056E000E046ED5EC09F0000E27
:101B88003F6E030E3E6E000E406E000E416E000E5C
:101B9800436E000E426E27EC0CF0DFEC05F01200ED
:101BA8000001816FF1EF0DF081A8DDEF0DF0E0EF9E
:101BB8000DF0010EE1EF0DF0000E0BEF0EF081AA13
:101BC800E8EF0DF0EBEF0DF0010EECEF0DF0000E6D
:101BD8000BEF0EF0000E0BEF0EF0000181517F6F3E
:101BE800806B8051000AD8B4FCEF0DF0EEEF0DF0D9
:101BF8007F51000AD8B4EEEF0DF0010AD8B4D8EF3F
:101C08000DF0030AD8B4E3EF0DF0EEEF0DF012007B
:101C1800020E2A18D8A413EF0EF015EF0EF019EFE4
:101C28000EF0DFEC03F043EF0EF02A6A2650D8A43A
:101C380020EF0EF022EF0EF042EF0EF020EE01F052
:101C48001950D9261A50DA22080EDF6E20EE02F05B
:101C58001950D9261A50DA22200EDE6E040EDD6ED7
:101C680019C0D9FF1AC0DAFF0C0EDF6E19C0D9FFF0
:101C78001AC0DAFF000EDB8E43EF0EF0266A120060
:101C88000600FACF50F0FBCF51F0E1CF52F0E2CF8F
:101C980053F0D9CF54F0DACF55F0F3CF56F0F4CF54
:101CA80057F0F6CF58F0F7CF59F0F8CF5AF0F5CFF4
:101CB8005BF0D5EC02F05BC0F5FF5AC0F8FF59C0E5
:101CC800F7FF58C0F6FF57C0F4FF56C0F3FF55C0E2
:101CD800DAFF54C0D9FF53C0E2FF52C0E1FF51C040
:101CE800FBFF50C0FAFF5C9211000001816F89EF81
:101CF8000EF09596ABEF0EF09592ABEF0EF0959433
:101D0800ABEF0EF09596ABEF0EF0000181517F6FAF
:101D1800806B8051000AD8B494EF0EF0ABEF0EF050
:101D28007F51000AD8B4ABEF0EF0010AD8B47DEFAA
:101D38000EF0030AD8B480EF0EF0010AD8B483EF8E
:101D48000EF0070AD8B486EF0EF0ABEF0EF01200D3
:101D58000001816FBCEF0EF08C86DEEF0EF08C82F6
:101D6800DEEF0EF08C84DEEF0EF08C86DEEF0EF0E8
:101D7800000181517F6F806B8051000AD8B4C7EF92
:101D88000EF0DEEF0EF07F51000AD8B4DEEF0EF051
:101D9800010AD8B4B0EF0EF0030AD8B4B3EF0EF0CE
:101DA800010AD8B4B6EF0EF0070AD8B4B9EF0EF0AE
:101DB800DEEF0EF012000001816FEFEF0EF08C964F
:101DC80011EF0FF08C9211EF0FF08C9411EF0FF0D0
:101DD8008C9611EF0FF0000181517F6F806B80515D
:101DE800000AD8B4FAEF0EF011EF0FF07F51000A95
:101DF800D8B411EF0FF0010AD8B4E3EF0EF0030ADC
:101E0800D8B4E6EF0EF0010AD8B4E9EF0EF0070AED
:101E1800D8B4ECEF0EF011EF0FF01200000E000135
:101E2800696F000E6A6F040E6D6F6E6B010E7A6F2C
:101E3800F40E796F24EF0FF07BC075F07CC076F05C
:101E48007B51751907E17C517619D8A42EEF0FF054
:101E580030EF0FF020EF0FF01E0E3A6E010E82ECFD
:101E680010F0000E306E090E316E050E326E010E46
:101E7800336E010EA7EC07F030C06BF031C06CF088
:101E88001200326E54EF0FF0959675EF0FF09592A1
:101E980075EF0FF0959475EF0FF0959675EF0FF0BD
:101EA8003250306E316A3150000AD8B45EEF0FF00C
:101EB80075EF0FF03050000AD8B475EF0FF0010A33
:101EC800D8B448EF0FF0030AD8B44BEF0FF0010A6B
:101ED800D8B44EEF0FF0070AD8B451EF0FF075EFF2
:101EE8000FF01200326E85EF0FF08C86A6EF0FF020
:101EF8008C82A6EF0FF08C84A6EF0FF08C86A6EFED
:101F08000FF03250306E316A3150000AD8B48FEF7A
:101F18000FF0A6EF0FF03050000AD8B4A6EF0FF07C
:101F2800010AD8B479EF0FF0030AD8B47CEF0FF0A8
:101F3800010AD8B47FEF0FF0070AD8B482EF0FF088
:101F4800A6EF0FF01200326EB6EF0FF08C96D7EFB7
:101F58000FF08C92D7EF0FF08C94D7EF0FF08C9690
:101F6800D7EF0FF03250306E316A3150000AD8B4D2
:101F7800C0EF0FF0D7EF0FF03050000AD8B4D7EF0A
:101F88000FF0010AD8B4AAEF0FF0030AD8B4ADEFE6
:101F98000FF0010AD8B4B0EF0FF0070AD8B4B3EFC6
:101FA8000FF0D7EF0FF0120070A0DDEF0FF0DFEFAA
:101FB8000FF006EF10F01BC0D9FF1CC0DAFF800E2F
:101FC800DE18D8A4EAEF0FF0ECEF0FF005EF10F0F1
:101FD8000DC0D9FF0EC0DAFF840EDE18D8A4F7EFC3
:101FE8000FF0F9EF0FF005EF10F01BC0D9FF1CC080
:101FF800DAFF0C0EDF6E1BC0D9FF1CC0DAFF000E23
:10200800DB8E7090689A12000001846F17EF10F051
:10201800010E79EC0EF0020E79EC0EF0010EA8EC30
:1020280010F031EF10F000018451826F836B8351FF
:10203800000AD8B422EF10F031EF10F08251000AF4
:10204800D8B40CEF10F0010AD8B431EF10F0030A3D
:10205800D8B431EF10F031EF10F0120032C038F080
:1020680033C039F030C036F031C037F04CEF10F0E3
:1020780038C0D9FF39C0DAFFDF503A6E384A392AFA
:1020880036C0D9FF37C0DAFF3AC0DFFF364A372AF1
:102098003406D8A03506342806E13528D8A457EFE9
:1020A80010F059EF10F03CEF10F01200356E68EFA9
:1020B80010F0010E45EC0FF0020E45EC0FF0010E8A
:1020C800CDEC10F081EF10F03550336E346A345097
:1020D800000AD8B472EF10F081EF10F03350000A04
:1020E800D8B45DEF10F0010AD8B481EF10F0030AFC
:1020F800D8B481EF10F081EF10F012003D6E3AA4D1
:1021080088EF10F08AEF10F08FEF10F0000E306EAD
:102118003D5041EC0DF03AA294EF10F096EF10F01C
:102128009BEF10F0010E306E3D5041EC0DF0700E3B
:102138003D243B6E3C6A0F0E3C223BC0D9FF3CC09D
:10214800DAFF3AC0DFFF12000001816FB2EF10F032
:102158009388CCEF10F0938ACCEF10F000018151F6
:102168007F6F806B8051000AD8B4BDEF10F0CCEFC0
:1021780010F07F51000AD8B4CCEF10F0010AD8B49F
:10218800ACEF10F0030AD8B4AFEF10F0CCEF10F0BA
:102198001200326ED6EF10F09388EFEF10F0938AAA
:1021A800EFEF10F03250306E316A3150000AD8B477
:1021B800E0EF10F0EFEF10F03050000AD8B4EFEF76
:1021C80010F0010AD8B4D0EF10F0030AD8B4D3EF56
:1021D80010F0EFEF10F012002C50D8A4F6EF10F02A
:1021E800F8EF10F010EF11F06D6A696A160E6F6E55
:1021F8009F0E6B6E7B0E696ED08EA28AA08AF28EBD
:1022080007EF11F06D866DA60CEF11F00EEF11F0CF
:1022180006EF11F0010E2C6E12007FC085F080C011
:1022280086F01FEF11F085C0D9FF86C0DAFF81C0A4
:10223800DFFF854B862B00018307D8A084078329FD
:1022480006E18429D8A42BEF11F02DEF11F017EF38
:1022580011F01200286A000E3F6E740E3E6E000EDA
:10226800406E000E416E000E436E000E426E27EC6B
:102278000CF06D92699442EF11F0689468B447EFDE
:1022880011F049EF11F041EF11F01F6A120030C050
:1022980036F031C037F059EF11F036C0D9FF37C0EA
:1022A800DAFF32C0DFFF364A372A3406D8A03506AF
:1022B800342806E13528D8A464EF11F066EF11F050
:1022C80051EF11F01200010E00016F27000E70236C
:1022D800712372232850D8A474EF11F076EF11F00F
:1022E80080EF11F01F2A1F50D8A47DEF11F07FEF67
:1022F80011F080EF11F01F681200698468986D82F0
:10230800010E286E1F6A000E3F6E750E3E6E000E9F
:10231800406E000E416E000E436E000E426E27ECBA
:102328000CF0120000EE60F01F0EEE6AE806FDE108
:1023380000EE01F02F0EEE6AE806FDE15C905C927B
:10234800000EF86E0001E7EF11F0050109A3AFEFE9
:1023580011F0B1EF11F0B6EF11F0020EACEC0EF087
:10236800B9EF11F0020EDFEC0EF01200050109A31F
:10237800C0EF11F0C2EF11F0C7EF11F0020E76ECCA
:102388000FF0CAEF11F0020EA7EC0FF01200280EA2
:10239800016E040E026E000E056E080E046EE80E45
:1023A800066E230E076E038E1200316E3150D8A4CC
:1023B800E0EF11F0E2EF11F0E6EF11F030C079F044
:1023C80000017A6B1200000E08EC10F03AEC08F0ED
:1023D800F0EC10F08CEC01F0EEEF11F007EF00F0EC
:0A23E80028C409F5BAEC11F0120048
:107EFE0000FA7F6F7FCC7FA37F05010906A1018564
:107F0E0001050719E029E71500250175019508817E
:107F1E00029501750881039505750105081901295A
:107F2E0005910295017503910395067508150025B7
:107F3E00650507190029658100C0050C0901A1011D
:107F4E008502050C150025017501950709B509B6C1
:107F5E0009B709CD09E209E909EA81029501810112
:107F6E00C034034D006900630072006F0063006847
:107F7E000069007000200054006500630068006E08
:107F8E00006F006C006F0067007900200049006EE2
:107F9E000063002E0009022900010100C03209040D
:107FAE0000000203010100092111010001226800F5
:107FBE0007058103090001070501030100011C03E8
:107FCE0056006F006C0075006D006500000000002B
:107FDE00000000000000000000001201000200007E
:107FEE000008D80455000100010200010403090431
:017FFE000082
:020000040030CA
:0E000000240E3F1EFF8181FF0FC00FE00F4056
:00000001FF
