:0400000007EF00F016
:100008005C825DED0FF0BFEF12F0200E2C600FEF59
:1000180000F011EF00F013EF00F0C7EF01F007EC6C
:100028000DF06DA21AEF00F01CEF00F025EF00F0C4
:10003800020EEDEC0EF0C7EF01F085C07FF086C030
:1000480080F0000185517F1907E186518019D8A4F5
:1000580030EF00F032EF00F021EF00F07D517F5DCE
:100068009F6F7E518059A06FA0BF3FEF00F03DEF1A
:1000780000F04BEF00F07D517F5D9A6F7E51805903
:100088009B6FFF0E9A259F6F7F0E9B21A06FA0BFCD
:1000980057EF00F0890E9F5D130EA059D8A057EFB7
:1000A80000F059EF00F05FEF00F0780E7F257D6FCC
:1000B800EC0E80217E6F6F517011D8B466EF00F09E
:1000C80068EF00F073EF00F06FC0D9FF70C0DAFF7F
:1000D800DFBE71EF00F073EF00F0A0EF01F0000E4B
:1000E8008F6F050E906F000E926F000E916F000ECD
:1000F800946F090E936F3AEC12F0010E0501006F30
:10010800030EEDEC0EF0E806D8A48DEF00F08FEFAB
:1001180000F0B9EF00F0030EEDEC0EF00009D8A4E2
:1001280098EF00F09AEF00F0B9EF00F00001745179
:10013800D8A4A1EF00F0A3EF00F0BBEF00F0010E90
:10014800746F010E0501006F73C003F50001732B76
:10015800280E7319D8A4B3EF00F0B5EF00F0BBEF89
:1001680000F0040E736FBBEF00F00001746B9D6B21
:10017800A16B000EA125D96EDA6A050EDA22A1510B
:10018800600FE16EE26ADE50E618D8B4CEEF00F0F8
:10019800D0EF00F0D4EF00F0010E9D6FDDEF00F01E
:1001A800A12B080EA165DBEF00F0DDEF00F0BDEF3D
:1001B80000F081518211D8B4E4EF00F0E6EF00F0CE
:1001C800F7EF00F081519F5DA051800A9A6F82512C
:1001D800800A9A59D8A0F3EF00F0F5EF00F0F7EF96
:1001E80000F0010E9D6F9D05D8A4FDEF00F0FFEF14
:1001F80000F01BEF01F025EE00F010EE60F0080EA5
:10020800DBCFE3FFE806FCE2010E8F6F000E906F74
:10021800050E916F090E926F010E88EC07F08FC0E2
:100228006FF090C070F07FC07DF080C07EF000015C
:1002380069516A11D8B423EF01F025EF01F030EFCE
:1002480001F069C0D9FF6AC0DAFFDFBE2EEF01F006
:1002580030EF01F0A0EF01F00A0E8F6F050E906FDE
:10026800000E926F000E916F000E946F020E936F46
:100278003AEC12F0020E05010A6FD6EC11F00001FB
:100288009E6F9E05D8A44BEF01F04DEF01F054EF9F
:1002980001F0020E05010A6F0B6B0B8B62EF01F088
:1002A800020E9E19D8A45BEF01F05DEF01F062EF3A
:1002B80001F0020E05010A6F0B6B0B8D00019C6BA0
:1002C800A16B0A0EA125D96EDA6A050EDA22A151B0
:1002D800830FE16EE26ADE50E618D8B476EF01F0DB
:1002E80078EF01F07CEF01F0010E9C6F85EF01F0D3
:1002F800A12B010EA16583EF01F085EF01F065EFF9
:1003080001F09C05D8A48BEF01F08DEF01F0A0EF70
:1003180001F00AC583F00BC584F0010E8F6F0A0E39
:10032800906F050E916F020E926F010E88EC07F028
:100338008FC069F090C06AF0000171517211D8B491
:10034800A8EF01F0AAEF01F0B5EF01F071C0D9FFF5
:1003580072C0DAFFDFBEB3EF01F0B5EF01F0C7EF0F
:1003680001F0D2EC12F0000E00018F6F090E906FB1
:10037800050E916F010E926F010E88EC07F08FC089
:1003880071F090C072F0120004012205D8A4CFEFDA
:1003980001F0D1EF01F0EAEF01F020511F0B000945
:1003A800D8A4D9EF01F0DBEF01F0EAEF01F00A8EF3
:1003B800030E2119D8A4E3EF01F0E5EF01F0E9EF0E
:1003C80001F0010E296EEAEF01F0296A2251D8A442
:1003D800F0EF01F0F2EF01F04AEF03F020511F0BAC
:1003E800020AD8A4FAEF01F0FCEF01F04AEF03F09B
:1003F80024510F0B0009D8B404EF02F006EF02F005
:100408004AEF03F024510F0B466E020E46600FEFC1
:1004180002F011EF02F04AEF03F0200E2C18D8A4D6
:1004280018EF02F01AEF02F04AEF03F00A8E24BF29
:1004380020EF02F022EF02F038EF02F024510F0B08
:10044800020DF350110FD96EDA6ADECF4BF0DDCF13
:100458004CF024510F0B466E4650150FD96EDA6AD0
:10046800DF504A6E4CEF02F024510F0B020DF3508F
:100478000D0FD96EDA6ADECF4BF0DDCF4CF0245188
:100488000F0B466E4650170FD96EDA6ADF504A6E68
:100498004AB051EF02F053EF02F05BEF02F0FB0EAF
:1004A8004B144B6EFF0E4C144C6E60EF02F0040EB2
:1004B8004B104B6E4C504C6E24BF65EF02F067EF4B
:1004C80002F074EF02F024510F0B020DF350110FDC
:1004D800D96EDA6A4BC0DEFF4CC0DDFF7FEF02F059
:1004E80024510F0B020DF3500D0FD96EDA6A4BC071
:1004F800DEFF4CC0DDFF030E2119D8A486EF02F001
:1005080088EF02F0BAEF02F04BC0D9FF4CC0DAFF17
:10051800DFAE91EF02F093EF02F0ACEF02F024BFF0
:1005280098EF02F09AEF02F0A4EF02F024510F0BBB
:10053800466E4650150FD96EDA6ADF82ACEF02F0CC
:1005480024510F0B466E4650170FD96EDA6ADF82B8
:100558004BC0D9FF4CC0DAFF000EDB844BC0D9FF7B
:100568004CC0DAFF000EDB8E4AEF03F0040E4B1886
:100578004B6E4C504C6E4BC0D9FF4CC0DAFFDFAE0F
:10058800C8EF02F0CAEF02F0E6EF02F04BC0D9FF65
:100598004CC0DAFF7F0EDF164BC0D9FF4CC0DAFF24
:1005A800000EDB8C000E3F6E050E3E6E4BC040F019
:1005B8004CC041F0000E436E020E426E9DEC0CF0F2
:1005C800ECEF02F04BC0D9FF4CC0DAFF000EDB8C19
:1005D800040E4B184B6E4C504C6E4AB2F6EF02F0BC
:1005E800F8EF02F003EF03F04BC0D9FF4CC0DAFF7D
:1005F800DFAE01EF03F003EF03F033EF03F0040184
:1006080024BF09EF03F00BEF03F015EF03F02451BB
:100618000F0B466E4650150FD96EDA6ADF921DEF42
:1006280003F024510F0B466E4650170FD96EDA6A45
:10063800DF924BC0D9FF4CC0DAFF3B0EDF16000E2D
:100648003F6E050E3E6E4BC040F04CC041F0000EB0
:10065800436E020E426E9DEC0CF039EF03F04BC076
:10066800D9FF4CC0DAFF3B0EDF16040124510F0BF3
:10067800466E476A700E4624486E0F0E4720496E34
:1006880048C0D9FF49C0DAFFFE0EDF1612002C045D
:10069800D8A451EF03F053EF03F05FEF03F06DBA06
:1006A80058EF03F05AEF03F05FEF03F0686A6980D0
:1006B8006988020E2C6E68A464EF03F066EF03F0FD
:1006C80070EF03F069A46BEF03F06DEF03F070EFC8
:1006D80003F0689457EC12F06DA275EF03F077EF12
:1006E80003F07AEF03F0A19A54EF04F068A07FEFCB
:1006F80003F081EF03F08EEF03F069A086EF03F0BB
:1007080088EF03F08EEF03F03BEC09F0A08A040EAB
:100718002C6E689068A893EF03F095EF03F09EEFB6
:1007280003F069A89AEF03F09CEF03F09EEF03F043
:10073800AAEC12F068ACA3EF03F0A5EF03F0D0EF3A
:1007480003F069ACAAEF03F0ACEF03F0BAEF03F0E3
:10075800000E3F6E730E3E6E000E406E000E416E30
:10076800000E436E010E426E9DEC0CF0689C90ECFE
:1007780012F02550D8B4C3EF03F0C5EF03F0C6EF6D
:1007880003F025062550D8A4CCEF03F0CEEF03F0F4
:10079800D0EF03F0BDEC0BF068AAD5EF03F0D7EF6C
:1007A80003F0E0EF03F069AADCEF03F0DEEF03F0FB
:1007B800E0EF03F0BEEC10F068A2E5EF03F0E7EF1E
:1007C80003F0FCEF03F069A2ECEF03F0EEEF03F0A7
:1007D800FCEF03F07F0E3F6E3E68000E406E000E89
:1007E800416E000E436E010E426E9DEC0CF06A6A7B
:1007F800040E2C6002EF04F004EF04F007EF04F09D
:10080800A19A54EF04F069A60CEF04F00EEF04F07F
:1008180053EF04F04F6A68A614EF04F016EF04F0E3
:1008280053EF04F06CCF2DF02D30E832E8320F0B87
:10083800276E68962DB423EF04F025EF04F02CEF13
:1008480004F02750150FD96EDA6ADF7031EF04F023
:100858002750170FD96EDA6ADF702750D8A437EF00
:1008680004F039EF04F03DEF04F06EEC0DF04AEFC0
:1008780004F0000E3F6E720E3E6E2D0E406E416A01
:10088800000E436E000E426E9DEC0CF04F2A030ED4
:100898004F6451EF04F053EF04F00FEF04F0A19A06
:1008A800120020EE01F01B50D9261C50DA22DF502E
:1008B800346E3450045C000E0558D8B066EF04F06E
:1008C80068EF04F06AEF04F004C034F03450045EBA
:1008D800000E055A336A80EF04F0280E3324D96ECF
:1008E800DA6A040EDA2201C0E1FF02C0E2FFDFCFBC
:1008F800E7FF014A022A332A3450335CD8A087EF35
:1009080004F089EF04F071EF04F004500510D8B436
:1009180090EF04F092EF04F0CBEF04F020EE01F03A
:100928001950D9261A50DA22080EDF6E20EE02F08E
:100938001950D9261A50DA22280EDE6E040EDD6E02
:100948001BC0D9FF1CC0DAFFDFBCADEF04F0AFEF6E
:1009580004F0BDEF04F019C0D9FF1AC0DAFF480E41
:10096800DF6E19C0D9FF1AC0DAFF000EDB8E0CEF5C
:1009780005F019C0D9FF1AC0DAFF080EDF6E19C0DA
:10098800D9FF1AC0DAFF000EDB8E0CEF05F020EE5F
:1009980001F01950D9261A50DA22080EDF6E20EE1F
:1009A80002F01950D9261A50DA22200EDE6E040EF3
:1009B800DD6E19C0D9FF1AC0DAFF040EDF6E19C048
:1009C800D9FF1AC0DAFF000EDB8E06500710D8B424
:1009D800F0EF04F0F2EF04F001EF05F020EE06F07E
:1009E80002D801EF05F00500FA6EDE50FD6EDE500C
:1009F800FE6EF850FF6EFA501200039E2450D8A4E1
:100A080008EF05F00AEF05F00CEF05F0BDEC0BF070
:100A18001200040120511F0BE806D8B416EF05F0A8
:100A280018EF05F01AEF05F0B1EF05F02451D8B42E
:100A380020EF05F022EF05F024EF05F0B1EF05F007
:100A4800060E2119D8A42BEF05F02DEF05F05EEF67
:100A580005F04FEF05F02F04D8A435EF05F037EF78
:100A680005F05EEF05F0B50E086E7F0E096E000EFC
:100A78000C6E090E0B6EC00E0A6E5EEF05F0070EC7
:100A8800086E7F0E096E000E0C6E680E0B6EC00E9F
:100A98000A6E5EEF05F02351210AD8B42FEF05F056
:100AA800030AD8B443EF05F0010AD8B45EEF05F0A5
:100AB8005EEF05F02039E832030BE806D8B467EF9B
:100AC80005F069EF05F096EF05F0B1EF05F0F4ECED
:100AD80012F0B1EF05F08E0E086E096A000E0C6E6A
:100AE800010E0B6EC10E0A6EB1EF05F0800E0A6E94
:100AF80023C48EF08EC030F0225102EC13F0B1EF17
:100B080005F08D0E086E096A000E0C6E010E0B6E54
:100B1800810E0A6EB1EF05F0800E0A6E22C48DF0C8
:100B2800B1EF05F02151010AD8B4B1EF05F0030A7D
:100B3800D8B46FEF05F0010AD8B485EF05F00A0ABA
:100B4800D8B46BEF05F0030AD8B47AEF05F0010AC0
:100B5800D8B490EF05F0B1EF05F01200800E040153
:100B68002019D8A4BAEF05F0BCEF05F054EF06F051
:100B7800C00E0A6E45EF06F0E80E086E7F0E096E8D
:100B8800000E0C6E120E0B6E54EF06F02251D8A414
:100B9800D0EF05F0D2EF05F010EF06F02251020D6C
:100BA800050EF324F66E7F0EF420F76E0900F5CFDC
:100BB80008F00A00F5CF09F0020E0824306E000E86
:100BC8000920316E30C0F6FF31C0F7FFF86A070E12
:100BD800F76403D00800F55005D0F6CFE1FFF7CF52
:100BE800E2FFE7500B6E030E0824306E000E09205A
:100BF800316E30C0F6FF31C0F7FFF86A070EF764B0
:100C080003D00800F55005D0F6CFE1FFF7CFE2FF9B
:100C1800E7500C6E54EF06F00A6A54EF06F0030E24
:100C2800226119EF06F01BEF06F03FEF06F02251A4
:100C3800020DFF0EF324F66E7E0EF420F76E090007
:100C4800F5CF08F00A00F5CF09F008C0F6FF09C093
:100C5800F7FFF86A070EF76403D00800F55005D0CF
:100C6800F6CFE1FFF7CFE2FFE750306E30500B6E62
:100C78000C6A54EF06F00A6A54EF06F00A6A54EF59
:100C880006F02351010AD8B4C0EF05F0030AD8B41E
:100C9800CAEF05F0010AD8B413EF06F042EF06F0E8
:100CA80012006D980ABE5BEF06F05DEF06F0A0EF4C
:100CB80006F003AE62EF06F064EF06F074EF06F09C
:100CC800020E2A6E2050D8A46CEF06F06EEF06F0E4
:100CD80070EF06F0CAEC0DF0226A236AEEEF06F018
:100CE80020EE01F01950D9261A50DA22080EDF6ECC
:100CF80020EE02F01950D9261A50DA22200EDE6EA4
:100D0800040EDD6E19C0D9FF1AC0DAFF0C0EDF6EB3
:100D180019C0D9FF1AC0DAFF000EDB8E0DC0D9FF4B
:100D28000EC0DAFF040EDF6E0DC0D9FF0EC0DAFF69
:100D3800000EDB8EEEEF06F0040120AFA6EF06F002
:100D4800A8EF06F0C2EF06F0010E2A6E2150D8A4D3
:100D5800B0EF06F0B2EF06F0B4EF06F0CAEC0DF013
:100D6800226A236A2450D8A4BCEF06F0BEEF06F02E
:100D7800EEEF06F0BDEC0BF0EEEF06F0020E2A6E79
:100D880020EE01F01950D9261A50DA22080EDF6E2B
:100D980020EE02F01950D9261A50DA22200EDE6E03
:100DA800040EDD6E19C0D9FF1AC0DAFF040EDF6E1B
:100DB80019C0D9FF1AC0DAFF000EDB8E226A236A37
:100DC8002450D8A4EAEF06F0ECEF06F0EEEF06F0B8
:100DD800BEEF06F012000DC0D9FF0EC0DAFF000EFC
:100DE800DFBC010E336E040E0D180D6E0E500E6E24
:100DF800080E2C18D8A403EF07F005EF07F017EF3B
:100E080007F0040122517F0B6E6E6E50D8B40FEFBD
:100E180007F011EF07F015EF07F0100E2C6E17EF23
:100E280007F0040E2C6E2A04D8A41DEF07F01FEF5C
:100E380007F066EF07F020EE02F00D50D9260E50AD
:100E4800DA22280EDE6E040EDD6EC3EC09F0020E07
:100E58002B18D8A432EF07F034EF07F042EF07F071
:100E68000DC0D9FF0EC0DAFF040EDF6E0DC0D9FF2A
:100E78000EC0DAFF000EDB8E87EF07F03350D8A4E0
:100E880048EF07F04AEF07F058EF07F00DC0D9FF19
:100E98000EC0DAFF480EDF6E0DC0D9FF0EC0DAFFB4
:100EA800000EDB8E87EF07F00DC0D9FF0EC0DAFF0A
:100EB800080EDF6E0DC0D9FF0EC0DAFF000EDB8E04
:100EC80087EF07F003AE6BEF07F06DEF07F086EFE3
:100ED80007F006500710D8B474EF07F076EF07F064
:100EE80085EF07F020EE06F002D885EF07F0050041
:100EF800FA6EDE50FD6EDE50FE6EF850FF6EFA5050
:100F08001200039E2A6A12000001976F00018F5198
:100F1800D8B491EF07F093EF07F09FEF07F09751E0
:100F2800020DF3500D0FD96EDA6ADECF98F0DDCFDF
:100F380099F0A9EF07F09751020DF350110FD96EF0
:100F4800DA6ADECF98F0DDCF99F098519911D8A4DC
:100F5800B0EF07F0B2EF07F0B8EF07F0000E8F6FB1
:100F6800000E906F1CEF08F020EE02F09851D92681
:100F78009951DA2290C0DEFF91C0DDFF20EE01F02A
:100F88009851D9269951DA2292C0DFFF98C0D9FF2B
:100F980099C0DAFF400EDF1698C0D9FF99C0DAFF72
:100FA800000EDB8698C0D9FF99C0DAFF000EDB8EF1
:100FB8008F51D8B4E2EF07F0E4EF07F0FFEF07F046
:100FC8009751020DF3500D0FD96EDA6ADECF93F008
:100FD800DDCF94F0040E9319956F9451966F975145
:100FE800020DF3500D0FD96EDA6A95C0DEFF96C078
:100FF800DDFF18EF08F09751020DF350110FD96E6D
:10100800DA6ADECF93F0DDCF94F0040E9319956F72
:101018009451966F9751020DF350110FD96EDA6AF9
:1010280095C0DEFF96C0DDFF98C08FF099C090F0A4
:101038001200386E3050D8B424EF08F026EF08F0CC
:1010480032EF08F03850020DF3500D0FD96EDA6AFE
:10105800DECF39F0DDCF3AF03CEF08F03850020D22
:10106800F350110FD96EDA6ADECF39F0DDCF3AF0DE
:1010780039503A10D8A443EF08F045EF08F04BEF89
:1010880008F0000E306E000E316EAFEF08F020EE63
:1010980002F03950D9263A50DA2231C0DEFF32C088
:1010A800DDFF20EE01F03950D9263A50DA2233C05C
:1010B800DFFF39C0D9FF3AC0DAFF400EDF1639C06A
:1010C800D9FF3AC0DAFF000EDB8639C0D9FF3AC033
:1010D800DAFF000EDB8E3050D8B475EF08F077EFEA
:1010E80008F092EF08F03850020DF3500D0FD96E4A
:1010F800DA6ADECF34F0DDCF35F0040E3418366E00
:101108003550376E3850020DF3500D0FD96EDA6A2C
:1011180036C0DEFF37C0DDFFABEF08F03850020DF8
:10112800F350110FD96EDA6ADECF34F0DDCF35F027
:10113800040E3418366E3550376E3850020DF350A1
:10114800110FD96EDA6A36C0DEFF37C0DDFF39C04D
:1011580030F03AC031F01200A09A6A6A686A706A80
:10116800710E00018F6F0F0E906F000E926F000EC0
:10117800916F000E946F010E936F3AEC12F0160EF9
:101188006F6E9F0E6B6E7B0E696E0001976B9751A9
:10119800040D000EF324D96E040EF420DA6EDE6A14
:1011A800DE6ADE6ADD6A972B070E9765DEEF08F0C8
:1011B800E0EF08F0CBEF08F06D8C6E6A6D986D9CCF
:1011C80068960A6A036A000E056E000E046E68B619
:1011D800F0EF08F0F2EF08F0E4EF08F0010E236EEC
:1011E800010E226E216A206A286A0001976B9751C6
:1011F800020DF3500D0FD96EDA6ADE6ADD6A975177
:10120800020DF350110FD96EDA6ADE6ADD6A975162
:10121800170FD96EDA6ADF6A9751150FD96EDA6A35
:10122800DF6A972B010E97651CEF09F01EEF09F096
:10123800FBEF08F0080E0D6E040E0E6E160E706EA3
:10124800040E0401036F200E026F080E016F040ED6
:10125800006F008F2F6A000E0001756F000E766F09
:10126800000E776F000E786F1F6A2C6A1200A09A22
:101278006A6A686A706A710E306E0F0E316E000EFF
:10128800336E000E326E000E356E010E346E74EC45
:1012980012F0160E6F6E9F0E6B6E7B0E696E386ABB
:1012A8003850040D000EF324D96E040EF420DA6EC3
:1012B800DE6ADE6ADE6ADD6A382A070E386467EF9E
:1012C80009F069EF09F054EF09F06D8C6E6A6D98BA
:1012D8006D9C68960A6A036A000E056E000E046E1D
:1012E80068B679EF09F07BEF09F06DEF09F0010EB0
:1012F800236E010E226E216A206A286A386A3850E5
:10130800020DF3500D0FD96EDA6ADE6ADD6A3850C5
:10131800020DF350110FD96EDA6ADE6ADD6A3850B1
:10132800170FD96EDA6ADF6A3850150FD96EDA6A84
:10133800DF6A382A010E3864A4EF09F0A6EF09F035
:1013480083EF09F0080E0D6E040E0E6E160E706E09
:10135800040E0401036F200E026F080E016F040EC5
:10136800006F008F2F6A000E0001756F000E766FF8
:10137800000E776F000E786F1F6A2C6A1200080E35
:10138800306E0C5007E1080E0B5CD8B0CEEF09F0B8
:10139800D0EF09F0E8EF09F00BC030F02B50D8A4DB
:1013A800D8EF09F0DAEF09F0DEEF09F0010E2B6E45
:1013B800E8EF09F02B04D8A4E4EF09F0E6EF09F010
:1013C800E8EF09F0020E2B6E30500B5E000E0C5A3F
:1013D80020EE01F00D50D9260E50DA2230C0DFFF82
:1013E800280E0001796F040E7A6F0AB0FEEF09F03B
:1013F80000EF0AF042EF0AF01DEF0AF008C0F6FF0E
:1014080009C0F7FFF86A79C0D9FF7AC0DAFF070E7A
:10141800F76403D00800F55005D0F6CFE1FFF7CF09
:10142800E2FFE750DF6E084A092A0001794B7A2B60
:1014380030063050D8A423EF0AF025EF0AF002EF67
:101448000AF04AEF0AF008C0F6FF09C0F7FFF86A89
:1014580079C0D9FF7AC0DAFF070EF76403D0080015
:10146800F55005D0F6CFE1FFF7CFE2FFE750DF6E8A
:10147800084A092A0001794B7A2B30063050D8A443
:1014880048EF0AF04AEF0AF027EF0AF012000401C9
:101498002039E832030B0009D8B455EF0AF057EFAA
:1014A8000AF09CEF0AF0CBEF0AF00A8E080E2C6EB9
:1014B800CBEF0AF0B2EC05F0CBEF0AF033EC0CF00E
:1014C800CBEF0AF02F0E086E096A0A80010E0B6E28
:1014D8000A8ECBEF0AF046EC0BF0CBEF0AF0C8EC23
:1014E80001F0CBEF0AF024512E0F4D6E4DC008F0DD
:1014F800096A0A80010E0B6E0A8ECBEF0AF00A8E7B
:1015080024512E0FD96EDA6A22C4DFFFCBEF0AF01E
:10151800000E3F6E020E3E6E000E406E000E416ED3
:10152800000E436E000E426E9DEC0CF0CBEF0AF0FD
:101538002151000AD8B46FEF0AF0010AD8B473EF4A
:101548000AF0020AD8B473EF0AF0060AD8B459EFC1
:101558000AF0030AD8B45EEF0AF0010AD8B48CEF97
:101568000AF00F0AD8B466EF0AF0010AD8B462EF9D
:101578000AF0030AD8B477EF0AF0010AD8B483EF67
:101588000AF0070AD8B4CBEF0AF0CBEF0AF0120042
:101598006DA2D1EF0AF0D3EF0AF032EF0BF0010E93
:1015A8008DEC10F045EF0BF01D041E10D8A4DFEFF2
:1015B8000AF0E1EF0AF0E6EF0AF0010E5CEC10F039
:1015C80043EF0BF04B0E1D181E10D8A4EEEF0AF0D7
:1015D800F0EF0AF0F5EF0AF0010E8DEC10F043EF92
:1015E8000BF01E5009E1970E1D5CD8A0FEEF0AF023
:1015F80000EF0BF006EF0BF0000E1E6E000E1D6ED6
:1016080043EF0BF043EF0BF01D041E10D8A40FEFAF
:101618000BF011EF0BF016EF0BF0010E5CEC10F075
:1016280043EF0BF0320E1D181E10D8A41EEF0BF05E
:1016380020EF0BF025EF0BF0010E8DEC10F043EFCF
:101648000BF0B70E1D5C030E1E58D8A02EEF0BF042
:1016580030EF0BF043EF0BF000EF0BF02C50336E34
:10166800346A3450000AD8B43CEF0BF008EF0BF0A2
:101678003350200AD8B4D8EF0AF008EF0BF01D4A0F
:101688001E2A12000401286B296B9EEF0BF00A8EAC
:101698002904D8A452EF0BF054EF0BF0AEEF0BF087
:1016A8002883AEEF0BF00A8EAEEF0BF00A8E2451B2
:1016B8000F0B0009D8B463EF0BF065EF0BF0AEEF3A
:1016C8000BF024BF6AEF0BF06CEF0BF079EF0BF027
:1016D80024510F0B020DF350110FD96EDA6ADECFC9
:1016E80030F0DDCF31F084EF0BF024510F0B020DF9
:1016F800F3500D0FD96EDA6ADECF30F0DDCF31F05E
:1017080030C0D9FF31C0DAFFDFAE8DEF0BF08FEFBD
:101718000BF0AEEF0BF030C0D9FF31C0DAFFDFA419
:1017280098EF0BF09AEF0BF0AEEF0BF0010E286F6D
:10173800AEEF0BF020511F0B000AD8B44BEF0BF0A3
:10174800010AD8B457EF0BF0030AD8B45AEF0BF0DC
:10175800AEEF0BF00AAEB3EF0BF0B5EF0BF0BCEF4A
:101768000BF0280E086E040E096E0A80020E0B6E2E
:1017780012002350D8A4C3EF0BF0C5EF0BF032EFE3
:101788000CF0010E236E2250D8A4CDEF0BF0CFEF52
:101798000BF032EF0CF0010E226E020E2A18D8A4BC
:1017A800D8EF0BF0DAEF0BF0EFEF0BF020EE01F0D3
:1017B8000D50D9260E50DA22DF6A0DC0D9FF0EC0AF
:1017C800DAFF480EDF6E0DC0D9FF0EC0DAFF000E3B
:1017D800DB8E32EF0CF02A04D8A4F5EF0BF0F7EF0C
:1017E8000BF032EF0CF0266A20EE01F01B50D926E0
:1017F8001C50DA22080EDF6E20EE02F01B50D926AC
:101808001C50DA22200EDE6E040EDD6E1BC0D9FFDE
:101818001CC0DAFF040EDF6E1BC0D9FF1CC0DAFF44
:10182800000EDB8E010E266E20EE01F01950D9262F
:101838001A50DA22080EDF6E20EE02F01950D9266F
:101848001A50DA22200EDE6E040EDD6E19C0D9FFA2
:101858001AC0DAFF800EDF6E32EF0CF012000A8E2B
:10186800710E306E0F0E316E000E336E000E326E3A
:10187800000E356E010E346E74EC12F0000E306EF0
:10188800040E316E000E336E000E326E000E356E91
:10189800200E346E74EC12F06D8C466A4650170FA9
:1018A800D96EDA6ADF6A4650150FD96EDA6ADF6ACE
:1018B800462A010E466463EF0CF065EF0CF052EF18
:1018C8000CF02E0E306E316A000E336E000E326E42
:1018D800000E356E010E346E74EC12F06D9C080E1D
:1018E8000D6E040E0E6E000E1B6E040E1C6E1BC0D9
:1018F80019F01CC01AF022C42FF02F50D8A487EF7B
:101908000CF089EF0CF08DEF0CF0100E2C6E9CEFA4
:101918000CF0000E3F6E010E3E6E2F0E406E416AB7
:10192800000E436E010E426E9DEC0CF0200E2C6EE4
:101938001200CDEF0CF0CCEC0AF00001852909E18A
:101948007F0E8619D8B4ABEF0CF0ADEF0CF0B1EF09
:101958000CF0854B862B06EF0DF0000E866F000EFF
:10196800856F06EF0DF0CCEC0AF0010E40EC11F09B
:1019780006EF0DF0CCEC0AF0020E40EC11F006EF89
:101988000DF0B1EC0EF006EF0DF00DEC05F006EFE2
:101998000DF03EC044F03FC045F04550000AD8B4B1
:1019A800DCEF0CF07F0AD8B4FFEF0CF006EF0DF077
:1019B8004450010AD8B4C5EF0CF0030AD8B406EFB6
:1019C8000DF0010AD8B4C9EF0CF0060AD8B406EF36
:1019D8000DF0770AD8B406EF0DF0010AD8B49FEFDE
:1019E8000CF0070AD8B4BEEF0CF0010AD8B4B7EF70
:1019F8000CF006EF0DF04450FF0AD8B406EF0DF0D6
:101A080006EF0DF0120081BA0CEF0DF011EF0DF09A
:101A180000018F6B8F2B13EF0DF000018F6B81B8D6
:101A280018EF0DF01CEF0DF0906B902B1EEF0DF0E2
:101A38000001906BD89090358F11926F8751921951
:101A4800D8A429EF0DF02BEF0DF02EEF0DF0886BD9
:101A58006DEF0DF0882B020E886135EF0DF037EF32
:101A68000DF039EF0DF06DEF0DF0886B8A51040D14
:101A7800EF0EF3248F6F7E0EF420906F92518F2714
:101A8800000E90238FC0F6FF90C0F7FF0800F5CF37
:101A980091F0915189278951800A6B0FD8A057EF8F
:101AA8000DF059EF0DF05DEF0DF0140E896F69EF31
:101AB8000DF08951800A940FD8B065EF0DF067EFEB
:101AC8000DF069EF0DF0EC0E896F92C08AF092C0AC
:101AD80087F012002D0E256E2DC04EF0FD0E4E160D
:101AE800D8A479EF0DF07BEF0DF0BDEF0DF02DC010
:101AF8004EF0D8904E323F0E4E164E50040D000E4A
:101B0800F3241B6E040EF4201C6E1BC019F01CC0BD
:101B18001AF0040E1918196E1A501A6E1BC0D9FF44
:101B28001CC0DAFFDF30E8320F0B0D0AD8A49FEF94
:101B38000DF0A1EF0DF0B9EF0DF0200E306E040E90
:101B4800316E20EE02F01B50D9261C50DA22DECF6F
:101B580032F0DDCF33F0000E356E080E346E18EC1F
:101B680011F072EC0EF0C9EF0DF025EC0FF0C9EF93
:101B78000DF02D50FD0B040AD8A4C5EF0DF0C7EFEA
:101B88000DF0C9EF0DF0EFEC06F01200216A206AA3
:101B9800020E2A18D8A4D3EF0DF0D5EF0DF0F5EF0B
:101BA8000DF020EE01F01950D9261A50DA22080E4D
:101BB800DF6E20EE02F01950D9261A50DA22280ECC
:101BC800DE6E040EDD6E19C0D9FF1AC0DAFF480EAA
:101BD800DF6E19C0D9FF1AC0DAFF000EDB8E1DEFC9
:101BE8000EF00B500401265D0C502759D8B0FFEFBA
:101BF8000DF001EF0EF005EF0EF026C40BF027C430
:101C08000CF0C3EC09F020EE02F00D50D9260E506E
:101C1800DA22280EDE6E040EDD6E0DC0D9FF0EC06E
:101C2800DAFF480EDF6E0DC0D9FF0EC0DAFF000ED6
:101C3800DB8E1200376E000E386E040E396E30508F
:101C4800316E326AD890313632363750336E346A54
:101C5800D89033363436D89033363436315033242E
:101C6800356E32503420366ED89035363636D890A8
:101C780035363636355038263650392238C0D9FFF1
:101C880039C0DAFFDF9E3050D8A44DEF0EF04FEF89
:101C98000EF05BEF0EF03750020DF350110FD96EB6
:101CA800DA6A38C0DEFF39C0DDFF65EF0EF0375065
:101CB800020DF3500D0FD96EDA6A38C0DEFF39C055
:101CC800DDFF38C0D9FF39C0DAFFDF9C20EE04F011
:101CD8003850D9263950DA22DF8C12002B6A246A50
:101CE800216A206A266A2A6A0DC0D9FF0EC0DAFF67
:101CF8007F0EDF16040E0D180D6E0E500E6E0DC001
:101D0800D9FF0EC0DAFF7F0EDF16040E0D180D6E18
:101D18000E500E6E19C0D9FF1AC0DAFF7F0EDF16FB
:101D28000A6A000E0C6E000E0B6E036A000E056E3A
:101D3800000E046E4BEC0AF0000E3F6E030E3E6E72
:101D4800000E406E000E416E000E436E000E426E95
:101D58009DEC0CF055EC06F01200000E00016F6FC0
:101D6800000E706F000E7B6F000E7C6F040E736F99
:101D7800746B8B6B6D6B6E6B000E826F000E816FD8
:101D8800CAEF0EF085C07DF086C07EF085517D19C2
:101D980007E186517E19D8A4D4EF0EF0D6EF0EF0E5
:101DA800C6EF0EF01E0E3A6E010E68EC11F0000E32
:101DB800306E090E316E050E326E010E336E010E55
:101DC8001DEC08F030C071F031C072F019EC12F05F
:101DD80012000001916F0AEF0FF081A8F6EF0EF0E4
:101DE800F9EF0EF0010EFAEF0EF0000E24EF0FF0EF
:101DF80081AA01EF0FF004EF0FF0010E05EF0FF0CD
:101E0800000E24EF0FF0000E24EF0FF000019151A7
:101E18008F6F906B9051000AD8B415EF0FF007EF51
:101E28000FF08F51000AD8B407EF0FF0010AD8B4A9
:101E3800F1EF0EF0030AD8B4FCEF0EF007EF0FF045
:101E48001200020E2A18D8A42CEF0FF02EEF0FF074
:101E580032EF0FF055EC04F05CEF0FF02A6A2650D1
:101E6800D8A439EF0FF03BEF0FF05BEF0FF020EE47
:101E780001F01950D9261A50DA22080EDF6E20EE2A
:101E880002F01950D9261A50DA22200EDE6E040EFE
:101E9800DD6E19C0D9FF1AC0DAFF0C0EDF6E19C04B
:101EA800D9FF1AC0DAFF000EDB8E5CEF0FF0266A4E
:101EB80012000600FACF50F0FBCF51F0E1CF52F0FC
:101EC800E2CF53F0D9CF54F0DACF55F0F3CF56F034
:101ED800F4CF57F0F6CF58F0F7CF59F0F8CF5AF0C3
:101EE800F5CF5BF04BEC03F05BC0F5FF5AC0F8FF91
:101EF80059C0F7FF58C0F6FF57C0F4FF56C0F3FFAC
:101F080055C0DAFF54C0D9FF53C0E2FF52C0E1FF09
:101F180051C0FBFF50C0FAFF5C9211000001916FA5
:101F2800A2EF0FF09296C4EF0FF09292C4EF0FF069
:101F38009294C4EF0FF09296C4EF0FF00001915104
:101F48008F6F906B9051000AD8B4ADEF0FF0C4EFCB
:101F58000FF08F51000AD8B4C4EF0FF0010AD8B4BB
:101F680096EF0FF0030AD8B499EF0FF0010AD8B42E
:101F78009CEF0FF0070AD8B49FEF0FF0C4EF0FF0F3
:101F880012000001916FD5EF0FF08986F7EF0FF07F
:101F98008982F7EF0FF08984F7EF0FF08986F7EF62
:101FA8000FF0000191518F6F906B9051000AD8B4D7
:101FB800E0EF0FF0F7EF0FF08F51000AD8B4F7EF0A
:101FC8000FF0010AD8B4C9EF0FF0030AD8B4CCEF68
:101FD8000FF0010AD8B4CFEF0FF0070AD8B4D2EF48
:101FE8000FF0F7EF0FF012000001916F08EF10F0FB
:101FF80089962AEF10F089922AEF10F089942AEF37
:1020080010F089962AEF10F0000191518F6F906BB4
:102018009051000AD8B413EF10F02AEF10F08F5146
:10202800000AD8B42AEF10F0010AD8B4FCEF0FF078
:10203800030AD8B4FFEF0FF0010AD8B402EF10F08A
:10204800070AD8B405EF10F02AEF10F01200326E2C
:102058003AEF10F092965BEF10F092925BEF10F06F
:1020680092945BEF10F092965BEF10F03250306E66
:10207800316A3150000AD8B444EF10F05BEF10F029
:102088003050000AD8B45BEF10F0010AD8B42EEF34
:1020980010F0030AD8B431EF10F0010AD8B434EFC5
:1020A80010F0070AD8B437EF10F05BEF10F0120009
:1020B800326E6BEF10F089868CEF10F089828CEF0E
:1020C80010F089848CEF10F089868CEF10F0325074
:1020D800306E316A3150000AD8B475EF10F08CEFC9
:1020E80010F03050000AD8B48CEF10F0010AD8B4C0
:1020F8005FEF10F0030AD8B462EF10F0010AD8B409
:1021080065EF10F0070AD8B468EF10F08CEF10F004
:102118001200326E9CEF10F08996BDEF10F0899294
:10212800BDEF10F08994BDEF10F08996BDEF10F067
:102138003250306E316A3150000AD8B4A6EF10F030
:10214800BDEF10F03050000AD8B4BDEF10F0010A0E
:10215800D8B490EF10F0030AD8B493EF10F0010A46
:10216800D8B496EF10F0070AD8B499EF10F0BDEF85
:1021780010F0120070A0C3EF10F0C5EF10F0ECEFF4
:1021880010F01BC0D9FF1CC0DAFF800EDE18D8A4DF
:10219800D0EF10F0D2EF10F0EBEF10F00DC0D9FF38
:1021A8000EC0DAFF840EDE18D8A4DDEF10F0DFEFE2
:1021B80010F0EBEF10F01BC0D9FF1CC0DAFF0C0EBB
:1021C800DF6E1BC0D9FF1CC0DAFF000EDB8E7090DB
:1021D800689A12000001946FFDEF10F0010E92EC66
:1021E8000FF0020E92EC0FF0030E8EEC11F017EFC9
:1021F80011F000019451926F936B9351000AD8B477
:1022080008EF11F017EF11F09251000AD8B4F2EF6D
:1022180010F0010AD8B417EF11F0030AD8B417EF79
:1022280011F017EF11F0120032C038F033C039F056
:1022380030C036F031C037F032EF11F038C0D9FF76
:1022480039C0DAFFDF503A6E384A392A36C0D9FF2A
:1022580037C0DAFF3AC0DFFF364A372A3406D8A03B
:102268003506342806E13528D8A43DEF11F03FEFB4
:1022780011F022EF11F01200356E4EEF11F0010E41
:102288002BEC10F0020E2BEC10F0030EB3EC11F057
:1022980067EF11F03550336E346A3450000AD8B401
:1022A80058EF11F067EF11F03350000AD8B443EF3C
:1022B80011F0010AD8B467EF11F0030AD8B467EF38
:1022C80011F067EF11F012003D6E3AA46EEF11F0B5
:1022D80070EF11F075EF11F0000E306E3D501EECEE
:1022E8000EF03AA27AEF11F07CEF11F081EF11F0C5
:1022F800010E306E3D501EEC0EF0700E3D243B6E0C
:102308003C6A0F0E3C223BC0D9FF3CC0DAFF3AC002
:10231800DFFF12000001916F98EF11F09388B2EF80
:1023280011F0938AB2EF11F0000191518F6F906B09
:102338009051000AD8B4A3EF11F0B2EF11F08F5109
:10234800000AD8B4B2EF11F0010AD8B492EF11F034
:10235800030AD8B495EF11F0B2EF11F01200326E03
:10236800BCEF11F09388D5EF11F0938AD5EF11F0F7
:102378003250306E316A3150000AD8B4C6EF11F0CD
:10238800D5EF11F03050000AD8B4D5EF11F0010A9A
:10239800D8B4B6EF11F0030AD8B4B9EF11F0D5EFFD
:1023A80011F0120000018F6B8951800A7C0FD8A0B0
:1023B800E0EF11F0E2EF11F0E8EF11F0010E8F6F8E
:1023C800FC0E8927F6EF11F08951800A830FD8B0E7
:1023D800F0EF11F0F2EF11F0F6EF11F0020E8F6F3F
:1023E800040E89278F5112002C50D8A4FEEF11F04B
:1023F80000EF12F018EF12F06D6A696A160E6F6E30
:102408009F0E6B6E7B0E696ED08EA28AA08AF28EAA
:102418000FEF12F06D866DA614EF12F016EF12F0A2
:102428000EEF12F0010E2C6E12009388938AF19E23
:1024380081BA21EF12F025EF12F0306A302A26EF28
:1024480012F0306A81B82BEF12F02FEF12F0316AD8
:10245800312A30EF12F0316AD8903134301000014F
:102468008A6F8AC087F0896B886B12008FC095F0DD
:1024780090C096F048EF12F095C0D9FF96C0DAFFE9
:1024880091C0DFFF954B962B00019307D8A09407C6
:10249800932906E19429D8A454EF12F056EF12F0CC
:1024A80040EF12F01200286A000E3F6E740E3E6E66
:1024B800000E406E000E416E000E436E000E426E1E
:1024C8009DEC0CF06D9269946BEF12F0689468B40F
:1024D80070EF12F072EF12F06AEF12F01F6A12003A
:1024E80030C036F031C037F082EF12F036C0D9FF75
:1024F80037C0DAFF32C0DFFF364A372A3406D8A0A1
:102508003506342806E13528D8A48DEF12F08FEF70
:1025180012F07AEF12F01200010E00017527000E7A
:102528007623772378232850D8A49DEF12F09FEFC5
:1025380012F0A9EF12F01F2A1F50D8A4A6EF12F02C
:10254800A8EF12F0A9EF12F01F68120069846898CA
:102558006D82010E286E1F6A000E3F6E750E3E6E6C
:10256800000E406E000E416E000E436E000E426E6D
:102578009DEC0CF0120000EE60F02F0EEE6AE806FB
:10258800FDE100EE01F02F0EEE6AE806FDE15C9039
:102598005C92000EF86E000110EF13F0050109A31C
:1025A800D8EF12F0DAEF12F0DFEF12F0020EC5ECFE
:1025B8000FF0E2EF12F0020EF8EC0FF01200050136
:1025C80009A3E9EF12F0EBEF12F0F0EF12F0020EB0
:1025D8005CEC10F0F3EF12F0020E8DEC10F012002C
:1025E800280E016E040E026E000E056E080E046EB3
:1025F8003A0E066E260E076E038E1200316E3150AB
:10260800D8A409EF13F00BEF13F00FEF13F030C05D
:1026180081F00001826B1200000EEEEC10F0B0ECBD
:1026280008F0F8EC11F009EC00F017EF13F007EFE1
:0C26380000F028C409F5E3EC12F01200D9
:107EEE000000FF0100010000FFFF0000010001FF84
:107EFE0000FA7F6F7FCC7FA37F05010906A1018564
:107F0E0001050719E029E71500250175019508817E
:107F1E00029501750881039505750105081901295A
:107F2E0005910295017503910395067508150025B7
:107F3E00650507190029658100C0050C0901A1011D
:107F4E008502050C150025017501950709B509B6C1
:107F5E0009B709CD09E209E909EA81029501810112
:107F6E00C034034D006900630072006F0063006847
:107F7E000069007000200054006500630068006E08
:107F8E00006F006C006F0067007900200049006EE2
:107F9E000063002E0009022900010100C03209040D
:107FAE0000000203010100092111010001226800F5
:107FBE0007058103090001070501030100011C03E8
:107FCE0056006F006C0075006D006500000000002B
:107FDE00000000000000000000001201000200007E
:107FEE000008D80455000100010200010403090431
:017FFE000082
:020000040030CA
:0E000000240E3F1EFF8181FF0FC00FE00F4056
:00000001FF
