:0400000007EF00F016
:0A00080056824AED12F07CEF14F06E
:100800000000FF0100010000FFFF0000010001FFE8
:1008100000C215927034034D006900630072006FCE
:1008200000630068006900700020005400650063E8
:100830000068006E006F006C006F00670079002098
:100840000049006E0063002E00050C0901A101851E
:1008500001050C150025017501950709B509B609B3
:10086000B709CD09E209E909EA810295018101C0D0
:1008700009022200010100C0640904000001030014
:100880000000092111010001222700070581030250
:1008900000011E0356006F006C0075006D006500BE
:1008A000200043006F006E00740072006F006C0047
:1008B0001201000200000008D804550001000102E6
:0708C000000104030904001C
:1008C80004012205D8A46BEF04F06DEF04F086EF65
:1008D80004F020511F0B0009D8A475EF04F077EF3E
:1008E80004F086EF04F00A8E030E2119D8A47FEFD6
:1008F80004F081EF04F085EF04F0010E256E86EF19
:1009080004F0256A2251D8A48CEF04F08EEF04F08D
:10091800E6EF05F020511F0B020AD8A496EF04F069
:1009280098EF04F0E6EF05F024510F0B0009D8B456
:10093800A0EF04F0A2EF04F0E6EF05F024510F0B4E
:10094800426E020E4260ABEF04F0ADEF04F0E6EF4A
:1009580005F0200E2818D8A4B4EF04F0B6EF04F080
:10096800E6EF05F00A8E24BFBCEF04F0BEEF04F0FA
:10097800D4EF04F024510F0B020DF350640FD96E1D
:10098800DA6ADECF47F0DDCF48F024510F0B426E14
:100998004250130FD96EDA6ADF50466EE8EF04F062
:1009A80024510F0B020DF3500D0FD96EDA6ADECF0A
:1009B80047F0DDCF48F024510F0B426E4250150F1F
:1009C800D96EDA6ADF50466E46B0EDEF04F0EFEF0D
:1009D80004F0F7EF04F0FB0E4714476EFF0E4814BF
:1009E800486EFCEF04F0040E4710476E4850486EFE
:1009F80024BF01EF05F003EF05F010EF05F02451D7
:100A08000F0B020DF350640FD96EDA6A47C0DEFF90
:100A180048C0DDFF1BEF05F024510F0B020DF3500A
:100A28000D0FD96EDA6A47C0DEFF48C0DDFF030E3E
:100A38002119D8A422EF05F024EF05F056EF05F0B0
:100A480047C0D9FF48C0DAFFDFAE2DEF05F02FEF22
:100A580005F048EF05F024BF34EF05F036EF05F058
:100A680040EF05F024510F0B426E4250130FD96E20
:100A7800DA6ADF8248EF05F024510F0B426E4250CC
:100A8800150FD96EDA6ADF8247C0D9FF48C0DAFF8E
:100A9800000EDB8447C0D9FF48C0DAFF000EDB8EAA
:100AA800E6EF05F0040E4718476E4850486E47C0F9
:100AB800D9FF48C0DAFFDFAE64EF05F066EF05F056
:100AC80082EF05F047C0D9FF48C0DAFF7F0EDF1676
:100AD80047C0D9FF48C0DAFF000EDB8C000E3B6E22
:100AE800050E3A6E47C03CF048C03DF0000E3F6E20
:100AF800020E3E6E0DEC0FF088EF05F047C0D9FFEF
:100B080048C0DAFF000EDB8C040E4718476E4850C9
:100B1800486E46B292EF05F094EF05F09FEF05F0AE
:100B280047C0D9FF48C0DAFFDFAE9DEF05F09FEF61
:100B380005F0CFEF05F0040124BFA5EF05F0A7EFFE
:100B480005F0B1EF05F024510F0B426E4250130F20
:100B5800D96EDA6ADF92B9EF05F024510F0B426EB5
:100B68004250150FD96EDA6ADF9247C0D9FF48C0E4
:100B7800DAFF3B0EDF16000E3B6E050E3A6E47C0DD
:100B88003CF048C03DF0000E3F6E020E3E6E0DEC8C
:100B98000FF0D5EF05F047C0D9FF48C0DAFF3B0E8C
:100BA800DF16040124510F0B426E436A700E422473
:100BB800446E0F0E4320456E44C0D9FF45C0DAFF8E
:100BC800FE0EDF1612002804D8A4EDEF05F0EFEFB3
:100BD80005F0FBEF05F06DBAF4EF05F0F6EF05F060
:100BE800FBEF05F0686A69806988020E286E68A4C0
:100BF80000EF06F002EF06F00CEF06F069A407EF2D
:100C080006F009EF06F00CEF06F06894DBEC13F041
:100C18006DA211EF06F013EF06F016EF06F0A19A99
:100C2800F0EF06F068A01BEF06F01DEF06F02AEFC4
:100C380006F069A022EF06F024EF06F02AEF06F08E
:100C480029EC0BF0A08A040E286E689068A82FEF94
:100C580006F031EF06F03AEF06F069A836EF06F035
:100C680038EF06F03AEF06F066EC14F068AC3FEFA8
:100C780006F041EF06F06CEF06F069AC46EF06F0BF
:100C880048EF06F056EF06F0000E3B6E730E3A6E14
:100C9800000E3C6E000E3D6E000E3F6E010E3E6E65
:100CA8000DEC0FF0689C4CEC14F02150D8B45FEFB9
:100CB80006F061EF06F062EF06F021062150D8A495
:100CC80068EF06F06AEF06F06CEF06F02DEC0EF018
:100CD80068AA71EF06F073EF06F07CEF06F069AAD8
:100CE80078EF06F07AEF06F07CEF06F01AEC12F0D7
:100CF80068A281EF06F083EF06F098EF06F069A28C
:100D080088EF06F08AEF06F098EF06F07F0E3B6E4C
:100D18003A68000E3C6E000E3D6E000E3F6E010EEE
:100D28003E6E0DEC0FF06A6A040E28609EEF06F026
:100D3800A0EF06F0A3EF06F0A19AF0EF06F069A67F
:100D4800A8EF06F0AAEF06F0EFEF06F04B6A68A6E8
:100D5800B0EF06F0B2EF06F0EFEF06F06CCF29F037
:100D68002930E832E8320F0B236E689629B4BFEFBA
:100D780006F0C1EF06F0C8EF06F02350130FD96E46
:100D8800DA6ADF70CDEF06F02350150FD96EDA6AF4
:100D9800DF702350D8A4D3EF06F0D5EF06F0D9EFD3
:100DA80006F0D7EC0FF0E6EF06F0000E3B6E720E81
:100DB8003A6E290E3C6E3D6A000E3F6E000E3E6E86
:100DC8000DEC0FF04B2A030E4B64EDEF06F0EFEF3E
:100DD80006F0ABEF06F0A19A1200800E040120196C
:100DE800D8A4F9EF06F0FBEF06F091EF07F0C00E7C
:100DF8000A6E82EF07F0B00E086E0850D8A4080EED
:100E0800096E000E0C6E120E0B6E91EF07F0225158
:100E1800D8A411EF07F013EF07F04FEF07F02251B6
:100E2800140F2C6E2CC0F6FF080EF76E0900F5CFD4
:100E380008F0080E096E020E08242C6E000E092018
:100E48002D6E2CC0F6FF2DC0F7FFF86A070EF76469
:100E580003D00800F55005D0F6CFE1FFF7CFE2FF49
:100E6800E7500B6E030E08242C6E000E09202D6E21
:100E78002CC0F6FF2DC0F7FFF86A070EF76403D001
:100E88000800F55005D0F6CFE1FFF7CFE2FFE750B5
:100E98000C6E91EF07F00A6A91EF07F0030E2261DA
:100EA80058EF07F05AEF07F07CEF07F02251110FC7
:100EB8002C6E2CC0F6FF080EF76E0900F5CF08F06F
:100EC800080E096E08C0F6FF09C0F7FFF86A070E9A
:100ED800F76403D00800F55005D0F6CFE1FFF7CF4F
:100EE800E2FFE7502C6E2C500B6E0C6A91EF07F066
:100EF8000A6A91EF07F00A6A91EF07F02351010A95
:100F0800D8B4FFEF06F0030AD8B40BEF07F0010AD4
:100F1800D8B452EF07F07FEF07F012000401205118
:100F28001F0BE806D8B49BEF07F09DEF07F09FEF83
:100F380007F031EF08F02451D8B4A5EF07F0A7EF78
:100F480007F0A9EF07F031EF08F0060E2119D8A431
:100F5800B0EF07F0B2EF07F0E7EF07F0D8EF07F0D0
:100F68002B04D8A4BAEF07F0BCEF07F0E7EF07F0BF
:100F7800820E086E0850D8A4080E096E000E0C6E7A
:100F8800090E0B6EC00E0A6EE7EF07F0490E086EE9
:100F98000850D8A4080E096E000E0C6E270E0B6EB2
:100FA800C00E0A6EE7EF07F02351210AD8B4B4EF58
:100FB80007F0030AD8B4CAEF07F0010AD8B4E7EF7C
:100FC80007F0E7EF07F02039E832030BE806D8B45A
:100FD800F0EF07F0F2EF07F016EF08F031EF08F046
:100FE800790E086E096A000E0C6E010E0B6EC10EAA
:100FF8000A6E31EF08F0800E0A6E23C479F031EFE3
:1010080008F0780E086E096A000E0C6E010E0B6E61
:10101800810E0A6E31EF08F0800E0A6E22C478F055
:1010280031EF08F02151010AD8B431EF08F0030A72
:10103800D8B4F4EF07F0010AD8B405EF08F00A0AAB
:10104800D8B431EF08F0030AD8B4FFEF07F0010A6B
:10105800D8B410EF08F031EF08F0120020EE01F0DC
:101068001950D9261A50DA22DF502D6E2D50045C03
:10107800000E0558D8B043EF08F045EF08F047EFE9
:1010880008F004C02DF02D50045E000E055A2C6A9D
:101098005DEF08F0280E2C24D96EDA6A040EDA22E5
:1010A80001C0E1FF02C0E2FFDFCFE7FF014A022AE9
:1010B8002C2A2D502C5CD8A064EF08F066EF08F0BD
:1010C8004EEF08F004500510D8B46DEF08F06FEF3C
:1010D80008F0A8EF08F020EE01F01750D9261850B4
:1010E800DA22080EDF6E20EE02F01750D9261850CB
:1010F800DA22280EDE6E040EDD6E19C0D9FF1AC082
:10110800DAFFDFBC8AEF08F08CEF08F09AEF08F0FE
:1011180017C0D9FF18C0DAFF480EDF6E17C0D9FF15
:1011280018C0DAFF000EDB8ED1EF08F017C0D9FF28
:1011380018C0DAFF080EDF6E17C0D9FF18C0DAFF33
:10114800000EDB8ED1EF08F020EE01F01750D92603
:101158001850DA22080EDF6E20EE02F01750D9265A
:101168001850DA22200EDE6E040EDD6E17C0D9FF8D
:1011780018C0DAFF040EDF6E17C0D9FF18C0DAFFF7
:10118800000EDB8E039E2050D8A4CDEF08F0CFEFE1
:1011980008F0D1EF08F02DEC0EF012006D980ABEA1
:1011A800D8EF08F0DAEF08F01EEF09F003AEDFEF32
:1011B80008F0E1EF08F0F2EF08F0020E266E0001E9
:1011C8007651D8A4EAEF08F0ECEF08F0EEEF08F05B
:1011D80033EC10F01E6A1F6A6DEF09F020EE01F083
:1011E8001750D9261850DA22080EDF6E20EE02F0CA
:1011F8001750D9261850DA22200EDE6E040EDD6E46
:1012080017C0D9FF18C0DAFF0C0EDF6E17C0D9FF60
:1012180018C0DAFF000EDB8E0DC0D9FF0EC0DAFF52
:10122800040EDF6E0DC0D9FF0EC0DAFF000EDB8E94
:101238006DEF09F0040120AF24EF09F026EF09F063
:1012480041EF09F0010E266E00017751D8A42FEF67
:1012580009F031EF09F033EF09F033EC10F01E6AB2
:101268001F6A2050D8A43BEF09F03DEF09F06DEF5D
:1012780009F02DEC0EF06DEF09F0020E266E20EE4F
:1012880001F01750D9261850DA22080EDF6E20EE2A
:1012980002F01750D9261850DA22200EDE6E040EFE
:1012A800DD6E17C0D9FF18C0DAFF040EDF6E17C055
:1012B800D9FF18C0DAFF000EDB8E1E6A1F6A2050A5
:1012C800D8A469EF09F06BEF09F06DEF09F03DEF75
:1012D80009F01200200E286074EF09F076EF09F08B
:1012E80078EF09F008EF0AF076EC0FF06DA27FEFC7
:1012F80009F081EF09F083EF09F008EF0AF0000127
:1013080068516911D8B48BEF09F08DEF09F098EFA7
:1013180009F068C0D9FF69C0DAFFDFBE96EF09F0AF
:1013280098EF09F008EF0AF0000E7A6F050E7B6F50
:10133800000E7D6F000E7C6F000E7F6F020E7E6FB9
:10134800F9EC13F0010E0501006F59EC13F00001E0
:10135800886F8805D8A4B3EF09F0B5EF09F0BCEFA2
:1013680009F0010E0501006F016B018BCAEF09F04E
:10137800020E8819D8A4C3EF09F0C5EF09F0CAEF27
:1013880009F0010E0501006F016B018D0001876BEB
:10139800896B000E8925D96EDA6A050EDA22895121
:1013A8006E0FE16EE26ADE50E618D8B4DEEF09F09F
:1013B800E0EF09F0E4EF09F0010E876FEDEF09F0B7
:1013C800892B010E8965EBEF09F0EDEF09F0CDEF00
:1013D80009F08705D8A4F3EF09F0F5EF09F008EF55
:1013E8000AF000C56EF001C56FF0010E7A6F000EAD
:1013F8007B6F050E7C6F020E7D6F010E09EC0AF003
:101408007AC068F07BC069F012000001826F0001A9
:101418007A51D8B412EF0AF014EF0AF020EF0AF06C
:101428008251020DF3500D0FD96EDA6ADECF83F0C8
:10143800DDCF84F02AEF0AF08251020DF350640FD9
:10144800D96EDA6ADECF83F0DDCF84F08351841160
:10145800D8A431EF0AF033EF0AF039EF0AF0000EA2
:101468007A6F000E7B6F9DEF0AF020EE02F0835139
:10147800D9268451DA227BC0DEFF7CC0DDFF20EE56
:1014880001F08351D9268451DA227DC0DFFF83C061
:10149800D9FF84C0DAFF400EDF1683C0D9FF84C0AD
:1014A800DAFF000EDB8683C0D9FF84C0DAFF000EA6
:1014B800DB8E7A51D8B463EF0AF065EF0AF080EF5B
:1014C8000AF08251020DF3500D0FD96EDA6ADECFA1
:1014D8007EF0DDCF7FF0040E7E19806F7F51816F23
:1014E8008251020DF3500D0FD96EDA6A80C0DEFF0B
:1014F80081C0DDFF99EF0AF08251020DF350640FAD
:10150800D96EDA6ADECF7EF0DDCF7FF0040E7E1969
:10151800806F7F51816F8251020DF350640FD96E35
:10152800DA6A80C0DEFF81C0DDFF83C07AF084C044
:101538007BF01200A09A6A6A686A706A710E0001EC
:101548007A6F0F0E7B6F000E7D6F000E7C6F000EA2
:101558007F6F010E7E6FF9EC13F0160E6F6E9F0E03
:101568006B6E7B0E696E0001826B8251040D000E5A
:10157800F324D96E040EF420DA6EDE6ADE6ADE6ABF
:10158800DD6A822B070E8265CCEF0AF0CEEF0AF0F7
:10159800B9EF0AF06D8C6E6A6D986D9C68960A6A50
:1015A800036A000E056E000E046E68B6DEEF0AF0E0
:1015B800E0EF0AF0D2EF0AF0010E1F6E010E1E6E68
:1015C8000001776B766B246A826B8251020DF350AF
:1015D8000D0FD96EDA6ADE6ADD6A8251020DF350A8
:1015E800640FD96EDA6ADE6ADD6A8251150FD96E28
:1015F800DA6ADF6A8251130FD96EDA6ADF6A822BE0
:10160800010E82650AEF0BF00CEF0BF0E9EF0AF020
:10161800080E0D6E040E0E6E160E706E040E04018A
:10162800036F200E026F080E016F040E006F008F0B
:101638002B6A000E0001606F000E616F000E626F72
:10164800000E636F756B286A1200A09A6A6A686A4E
:10165800706A710E2C6E0F0E2D6E000E2F6E000E1E
:101668002E6E000E316E010E306E16EC14F0160E52
:101678006F6E9F0E6B6E7B0E696E346A3450040D6C
:10168800000EF324D96E040EF420DA6EDE6ADE6AE8
:10169800DE6ADD6A342A070E346455EF0BF057EF23
:1016A8000BF042EF0BF06D8C6E6A6D986D9C68962E
:1016B8000A6A036A000E056E000E046E68B667EFCC
:1016C8000BF069EF0BF05BEF0BF0010E1F6E010ED4
:1016D8001E6E0001776B766B246A346A3450020DF3
:1016E800F3500D0FD96EDA6ADE6ADD6A3450020DE6
:1016F800F350640FD96EDA6ADE6ADD6A3450150F6A
:10170800D96EDA6ADF6A3450130FD96EDA6ADF6A83
:10171800342A010E346493EF0BF095EF0BF072EF5F
:101728000BF0080E0D6E040E0E6E160E706E040E83
:101738000401036F200E026F080E016F040E006F84
:10174800008F2B6A000E0001606F000E616F000EA3
:10175800626F000E636F756B286A1200080E2C6E9C
:101768000C5007E1080E0B5CD8B0BDEF0BF0BFEFD3
:101778000BF0D7EF0BF00BC02CF02750D8A4C7EF15
:101788000BF0C9EF0BF0CDEF0BF0010E276ED7EF82
:101798000BF02704D8A4D3EF0BF0D5EF0BF0D7EF5D
:1017A8000BF0020E276E2C500B5E000E0C5A20EE2A
:1017B80001F00D50D9260E50DA222CC0DFFF280E7A
:1017C8000001706F040E716F0AB0EDEF0BF0EFEFD0
:1017D8000BF031EF0CF00CEF0CF008C0F6FF09C06D
:1017E800F7FFF86A70C0D9FF71C0DAFF070EF76417
:1017F80003D00800F55005D0F6CFE1FFF7CFE2FFA0
:10180800E750DF6E084A092A0001704B712B2C063D
:101818002C50D8A412EF0CF014EF0CF0F1EF0BF0F1
:1018280039EF0CF008C0F6FF09C0F7FFF86A70C07E
:10183800D9FF71C0DAFF070EF76403D00800F5502E
:1018480005D0F6CFE1FFF7CFE2FFE750DF6E084A99
:10185800092A0001704B712B2C062C50D8A437EFA5
:101868000CF039EF0CF016EF0CF0120004012039DF
:10187800E832030B0009D8B444EF0CF046EF0CF043
:101888008BEF0CF0BAEF0CF00A8E080E286EBAEF48
:101898000CF0F1EC06F0BAEF0CF0A3EC0EF0BAEF96
:1018A8000CF02B0E086E096A0A80010E0B6E0A8E68
:1018B800BAEF0CF0B6EC0DF0BAEF0CF064EC04F0F3
:1018C800BAEF0CF024512A0F496E49C008F0096A92
:1018D8000A80010E0B6E0A8EBAEF0CF00A8E2451A4
:1018E8002A0FD96EDA6A22C4DFFFBAEF0CF0000EB5
:1018F8003B6E020E3A6E000E3C6E000E3D6E000E00
:101908003F6E000E3E6E0DEC0FF0BAEF0CF0215159
:10191800000AD8B45EEF0CF0010AD8B462EF0CF0FC
:10192800020AD8B462EF0CF0060AD8B448EF0CF0FB
:10193800030AD8B44DEF0CF0010AD8B47BEF0CF0D1
:101948000F0AD8B455EF0CF0010AD8B451EF0CF0D7
:10195800030AD8B466EF0CF0010AD8B472EF0CF0A1
:10196800070AD8B4BAEF0CF0BAEF0CF012000DC0A9
:10197800D9FF0EC0DAFF000EDFBC010E2D6E040E7B
:101988000D180D6E0E500E6E080E2818D8A4CFEF45
:101998000CF0D1EF0CF0E3EF0CF0040122517F0BB7
:1019A8006E6E6E50D8B4DBEF0CF0DDEF0CF0E1EFAB
:1019B8000CF0100E286EE3EF0CF0040E286E2604CF
:1019C800D8A4E9EF0CF0EBEF0CF032EF0DF020EEBD
:1019D80002F00D50D9260E50DA22280EDE6E040EC3
:1019E800DD6EB2EC0BF0020E2718D8A4FEEF0CF057
:1019F80000EF0DF00EEF0DF00DC0D9FF0EC0DAFFAD
:101A0800040EDF6E0DC0D9FF0EC0DAFF000EDB8EAC
:101A18003BEF0DF02D50D8A414EF0DF016EF0DF09C
:101A280024EF0DF00DC0D9FF0EC0DAFF480EDF6EAF
:101A38000DC0D9FF0EC0DAFF000EDB8E3BEF0DF0B4
:101A48000DC0D9FF0EC0DAFF080EDF6E0DC0D9FF3A
:101A58000EC0DAFF000EDB8E3BEF0DF003AE37EF62
:101A68000DF039EF0DF03AEF0DF0039E266A1200E3
:101A78006DA241EF0DF043EF0DF0A2EF0DF0010E56
:101A8800E9EC11F0B5EF0DF01B041C10D8A44FEFD2
:101A98000DF051EF0DF056EF0DF0010EB8EC11F00E
:101AA800B3EF0DF04B0E1B181C10D8A45EEF0DF011
:101AB80060EF0DF065EF0DF0010EE9EC11F0B3EFFA
:101AC8000DF01C5009E1970E1B5CD8A06EEF0DF0CD
:101AD80070EF0DF076EF0DF0000E1C6E000E1B6E11
:101AE800B3EF0DF0B3EF0DF01B041C10D8A47FEF7B
:101AF8000DF081EF0DF086EF0DF0010EB8EC11F04E
:101B0800B3EF0DF0320E1B181C10D8A48EEF0DF099
:101B180090EF0DF095EF0DF0010EE9EC11F0B3EF39
:101B28000DF0B70E1B5C030E1C58D8A09EEF0DF0ED
:101B3800A0EF0DF0B3EF0DF070EF0DF028502F6E01
:101B4800306A3050000AD8B4ACEF0DF078EF0DF0E1
:101B58002F50200AD8B448EF0DF078EF0DF01B4A4B
:101B68001C2A12000401286B296B0EEF0EF00A8E56
:101B78002504D8A4C2EF0DF0C4EF0DF01EEF0EF04F
:101B880028831EEF0EF00A8E1EEF0EF00A8E2451E7
:101B98000F0B0009D8B4D3EF0DF0D5EF0DF01EEF01
:101BA8000EF024BFDAEF0DF0DCEF0DF0E9EF0DF0E9
:101BB80024510F0B020DF350640FD96EDA6ADECF91
:101BC8002CF0DDCF2DF0F4EF0DF024510F0B020DAA
:101BD800F3500D0FD96EDA6ADECF2CF0DDCF2DF081
:101BE8002CC0D9FF2DC0DAFFDFAEFDEF0DF0FFEFFF
:101BF8000DF01EEF0EF02CC0D9FF2DC0DAFFDFA4C8
:101C080008EF0EF00AEF0EF01EEF0EF0010E286F2F
:101C18001EEF0EF020511F0B000AD8B4BBEF0DF0D9
:101C2800010AD8B4C7EF0DF0030AD8B4CAEF0DF013
:101C38001EEF0EF00AAE23EF0EF025EF0EF02CEF9C
:101C48000EF0280E086E040E096E0A80020E0B6E46
:101C580012001F50D8A433EF0EF035EF0EF0A2EFAC
:101C68000EF0010E1F6E1E50D8A43DEF0EF03FEF90
:101C78000EF0A2EF0EF0010E1E6E020E2618D8A46A
:101C880048EF0EF04AEF0EF05FEF0EF020EE01F095
:101C98000D50D9260E50DA22DF6A0DC0D9FF0EC0CA
:101CA800DAFF480EDF6E0DC0D9FF0EC0DAFF000E56
:101CB800DB8EA2EF0EF02604D8A465EF0EF067EFD6
:101CC8000EF0A2EF0EF0226A20EE01F01950D9268C
:101CD8001A50DA22080EDF6E20EE02F01950D926CB
:101CE8001A50DA22200EDE6E040EDD6E19C0D9FFFE
:101CF8001AC0DAFF040EDF6E19C0D9FF1AC0DAFF66
:101D0800000EDB8E010E226E20EE01F01750D92650
:101D18001850DA22080EDF6E20EE02F01750D9268E
:101D28001850DA22200EDE6E040EDD6E17C0D9FFC1
:101D380018C0DAFF800EDF6EA2EF0EF012000A8ED6
:101D4800710E2C6E0F0E2D6E000E2F6E000E2E6E65
:101D5800000E316E010E306E16EC14F0000E2C6E73
:101D6800040E2D6E000E2F6E000E2E6E000E316EBC
:101D7800200E306E16EC14F06D8C426A4250150F2E
:101D8800D96EDA6ADF6A4250130FD96EDA6ADF6AEF
:101D9800422A010E4264D3EF0EF0D5EF0EF0C2EFE7
:101DA8000EF02A0E2C6E2D6A000E2F6E000E2E6E6F
:101DB800000E316E010E306E16EC14F06D9C080E9C
:101DC8000D6E040E0E6E000E196E040E1A6E19C0FA
:101DD80017F01AC018F022C42BF02B50D8A4F7EF34
:101DE8000EF0F9EF0EF0FDEF0EF0100E286E0CEF6E
:101DF8000FF0000E3B6E010E3A6E2B0E3C6E3D6AE4
:101E0800000E3F6E010E3E6E0DEC0FF0200E286E98
:101E180012003CEF0FF03CEC0DF0112809E17F0EA9
:101E28001218D8B41AEF0FF01CEF0FF020EF0FF0D4
:101E3800114A122A75EF0FF0000E126E000E116E85
:101E480075EF0FF03CEC0DF0010E11EC13F075EF8F
:101E58000FF03CEC0DF0020E11EC13F075EF0FF0E3
:101E6800BCEC13F075EF0FF092EC07F075EF0FF084
:101E78003AC040F03BC041F04150000AD8B44BEFA3
:101E88000FF07F0AD8B46EEF0FF075EF0FF04050E7
:101E9800010AD8B434EF0FF0030AD8B475EF0FF085
:101EA800010AD8B438EF0FF0060AD8B475EF0FF06E
:101EB800770AD8B475EF0FF0010AD8B40FEF0FF016
:101EC800070AD8B42DEF0FF0010AD8B426EF0FF0A7
:101ED80075EF0FF04050FF0AD8B475EF0FF075EFAB
:101EE8000FF0120081B87BEF0FF080EF0FF00001C8
:101EF8007A6B7A2B82EF0FF000017A6B81B687EF4D
:101F08000FF08BEF0FF07B6B7B2B8DEF0FF0000149
:101F18007B6BD8907B357A117D6F72517D19D8A46F
:101F280098EF0FF09AEF0FF09DEF0FF0736BD6EF6D
:101F38000FF0732B020E7361A4EF0FF0A6EF0FF0F2
:101F4800A8EF0FF0D6EF0FF0736B7451040DF35038
:101F5800010F7D257A6F7AC0F6FF080EF76E08002C
:101F6800F5CF7CF07C511D261D50800A6B0FD8A040
:101F7800C0EF0FF0C2EF0FF0C6EF0FF0140E1D6E9A
:101F8800D2EF0FF01D50800A940FD8B0CEEF0FF0AB
:101F9800D0EF0FF0D2EF0FF0EC0E1D6E7DC074F095
:101FA8007DC072F012002D0E216E29C04AF0FD0E80
:101FB8004A16D8A4E2EF0FF0E4EF0FF026EF10F086
:101FC80029C04AF0D8904A323F0E4A164A50040DAA
:101FD800000EF324196E040EF4201A6E19C017F0BF
:101FE8001AC018F0040E1718176E1850186E19C07A
:101FF800D9FF1AC0DAFFDF30E8320F0B0D0AD8A478
:1020080008EF10F00AEF10F022EF10F0200E2C6EFF
:10201800040E2D6E20EE02F01950D9261A50DA223D
:10202800DECF2EF0DDCF2FF0000E316E080E306EB1
:1020380077EC12F0DCEC10F032EF10F01CEC11F041
:1020480032EF10F02950FD0B040AD8A42EEF10F03F
:1020580030EF10F032EF10F0BBEC0CF01200000182
:10206800776B766B020E2618D8A43DEF10F03FEF81
:1020780010F05FEF10F020EE01F01750D92618503D
:10208800DA22080EDF6E20EE02F01750D92618501B
:10209800DA22280EDE6E040EDD6E17C0D9FF18C0D6
:1020A800DAFF480EDF6E17C0D9FF18C0DAFF000E3E
:1020B800DB8E87EF10F00B500401265D0C5027597A
:1020C800D8B069EF10F06BEF10F06FEF10F026C486
:1020D8000BF027C40CF0B2EC0BF020EE02F00D5020
:1020E800D9260E50DA22280EDE6E040EDD6E0DC0E3
:1020F800D9FF0EC0DAFF480EDF6E0DC0D9FF0EC043
:10210800DAFF000EDB8E1200336E000E346E040E02
:10211800356E2C502D6E2E6AD8902D362E363350B3
:102128002F6E306AD8902F363036D8902F3630360A
:102138002D502F24316E2E503020326ED8903136EB
:102148003236D89031363236315034263250352234
:1021580034C0D9FF35C0DAFFDF9E2C50D8A4B7EFC2
:1021680010F0B9EF10F0C5EF10F03350020DF35036
:10217800640FD96EDA6A34C0DEFF35C0DDFFCFEFF9
:1021880010F03350020DF3500D0FD96EDA6A34C0D7
:10219800DEFF35C0DDFF34C0D9FF35C0DAFFDF9C74
:1021A80020EE04F03450D9263550DA22DF8C1200A4
:1021B800276A206A0001776B766B226A266A0DC04F
:1021C800D9FF0EC0DAFF7F0EDF16040E0D180D6E54
:1021D8000E500E6E0DC0D9FF0EC0DAFF7F0EDF164F
:1021E800040E0D180D6E0E500E6E17C0D9FF18C0D4
:1021F800DAFF7F0EDF160A6A000E0C6E000E0B6EF9
:10220800036A000E056E000E046E3AEC0CF0000E28
:102218003B6E030E3A6E000E3C6E000E3D6E000ED5
:102228003F6E000E3E6E0DEC0FF0D2EC08F012007F
:10223800020E2618D8A423EF11F025EF11F029EF8C
:1022480011F032EC08F053EF11F0266A2250D8A4AE
:1022580030EF11F032EF11F052EF11F020EE01F0F3
:102268001750D9261850DA22080EDF6E20EE02F039
:102278001750D9261850DA22200EDE6E040EDD6EB5
:1022880017C0D9FF18C0DAFF0C0EDF6E17C0D9FFD0
:1022980018C0DAFF000EDB8E53EF11F0226A12002D
:1022A80000017C6F64EF11F0929686EF11F0929224
:1022B80086EF11F0929486EF11F0929686EF11F066
:1022C80000017C517A6F7B6B7B51000AD8B46FEFA9
:1022D80011F086EF11F07A51000AD8B486EF11F0A8
:1022E800010AD8B458EF11F0030AD8B45BEF11F023
:1022F800010AD8B45EEF11F0070AD8B461EF11F003
:1023080086EF11F012002E6E96EF11F09296B7EF4D
:1023180011F09292B7EF11F09294B7EF11F09296F4
:10232800B7EF11F02E502C6E2D6A2D50000AD8B43C
:10233800A0EF11F0B7EF11F02C50000AD8B4B7EFA6
:1023480011F0010AD8B48AEF11F0030AD8B48DEF5E
:1023580011F0010AD8B490EF11F0070AD8B493EF3E
:1023680011F0B7EF11F012002E6EC7EF11F0898649
:10237800E8EF11F08982E8EF11F08984E8EF11F0B5
:102388008986E8EF11F02E502C6E2D6A2D50000A28
:10239800D8B4D1EF11F0E8EF11F02C50000AD8B4FE
:1023A800E8EF11F0010AD8B4BBEF11F0030AD8B472
:1023B800BEEF11F0010AD8B4C1EF11F0070AD8B482
:1023C800C4EF11F0E8EF11F012002E6EF8EF11F0E3
:1023D800899619EF12F0899219EF12F0899419EF82
:1023E80012F0899619EF12F02E502C6E2D6A2D508E
:1023F800000AD8B402EF12F019EF12F02C50000ABC
:10240800D8B419EF12F0010AD8B4ECEF11F0030AAE
:10241800D8B4EFEF11F0010AD8B4F2EF11F0070ABF
:10242800D8B4F5EF11F019EF12F0120070A01FEFF9
:1024380012F021EF12F048EF12F019C0D9FF1AC0BC
:10244800DAFF800EDE18D8A42CEF12F02EEF12F06F
:1024580047EF12F00DC0D9FF0EC0DAFF840EDE1868
:10246800D8A439EF12F03BEF12F047EF12F019C081
:10247800D9FF1AC0DAFF0C0EDF6E19C0D9FF1AC0D7
:10248800DAFF000EDB8E7090689A12000600E1CF2A
:102498004CF0E2CF4DF0D9CF4EF0DACF4FF0F3CF7A
:1024A80050F0F4CF51F0F6CF52F0F7CF53F0F8CF09
:1024B80054F0F5CF55F0E7EC05F055C0F5FF54C0E2
:1024C800F8FF53C0F7FF52C0F6FF51C0F4FF50C0E9
:1024D800F3FF4FC0DAFF4EC0D9FF4DC0E2FF4CC03A
:1024E800E1FF569211002EC034F02FC035F02CC0F9
:1024F80032F02DC033F091EF12F034C0D9FF35C05F
:10250800DAFFDF50366E344A352A32C0D9FF33C07D
:10251800DAFF36C0DFFF324A332A3006D8A0310648
:10252800302806E13128D8A49CEF12F09EEF12F073
:1025380081EF12F0120000017F6FABEF12F0010E75
:1025480054EC11F0020EECEC12F0C5EF12F00001A1
:102558007F517D6F7E6B7E51000AD8B4B6EF12F0C2
:10256800C5EF12F07D51000AD8B4A3EF12F0010AAA
:10257800D8B4C5EF12F0030AD8B4C5EF12F0C5EF0E
:1025880012F01200396E36A4CCEF12F0CEEF12F032
:10259800D3EF12F0000E2C6E395088EC10F036A2F2
:1025A800D8EF12F0DAEF12F0DFEF12F0010E2C6E16
:1025B800395088EC10F0700E3924376E386A0F0ED7
:1025C800382237C0D9FF38C0DAFF36C0DFFF120023
:1025D80000017C6FF6EF12F0938610EF13F09388EA
:1025E80010EF13F000017C517A6F7B6B7B51000A6E
:1025F800D8B401EF13F010EF13F07A51000AD8B4F1
:1026080010EF13F0010AD8B4F0EF12F0030AD8B4AF
:10261800F3EF12F010EF13F01200316E1CEF13F00D
:10262800010E87EC11F0020E36EC13F035EF13F0C3
:1026380031502F6E306A3050000AD8B426EF13F0AC
:1026480035EF13F02F50000AD8B414EF13F0010A35
:10265800D8B435EF13F0030AD8B435EF13F035EFDB
:1026680013F012002E6E3FEF13F0938658EF13F01D
:10267800938858EF13F02E502C6E2D6A2D50000AB7
:10268800D8B449EF13F058EF13F02C50000AD8B41F
:1026980058EF13F0010AD8B439EF13F0030AD8B48D
:1026A8003CEF13F058EF13F0120000017A6B1D5045
:1026B800800A7C0FD8A063EF13F065EF13F06BEF7F
:1026C80013F0010E7A6FFC0E1D2679EF13F01D50E2
:1026D800800A830FD8B073EF13F075EF13F079EF1A
:1026E80013F0020E7A6F040E1D267A51120028503C
:1026F800D8A481EF13F083EF13F09BEF13F06D6A0A
:10270800696A160E6F6E9F0E6B6E7B0E696ED08EA9
:10271800A28AA08AF28E92EF13F06D866DA697EFCB
:1027280013F099EF13F091EF13F0010E286E1200D9
:102738009386938881B8A3EF13F0A7EF13F02C6A60
:102748002C2AA8EF13F02C6A81B6ADEF13F0B1EF85
:1027580013F02D6A2D2AB2EF13F02D6AD8902D347C
:102768002C100001746F74C072F01D6A736B120034
:10277800000E0001686F000E696FC7EF13F011C0FB
:102788006AF012C06BF011506A1907E112506B1908
:10279800D8A4D1EF13F0D3EF13F0C3EF13F01A0E50
:1027A800366E010EC6EC12F09CEC13F01200246A8F
:1027B800000E3B6E740E3A6E000E3C6E000E3D6EBF
:1027C800000E3F6E000E3E6E0DEC0FF06D92699498
:1027D800EFEF13F0689468B4F4EF13F0F6EF13F02A
:1027E800EEEF13F00001756B12007AC080F07BC029
:1027F80081F007EF14F080C0D9FF81C0DAFF7CC0F8
:10280800DFFF804B812B00017E07D8A07F077E2940
:1028180006E17F29D8A413EF14F015EF14F0FFEFA9
:1028280013F012002CC032F02DC033F024EF14F056
:1028380032C0D9FF33C0DAFF2EC0DFFF324A332A55
:102848003006D8A03106302806E13128D8A42FEF69
:1028580014F031EF14F01CEF14F01200000E9FEC8E
:1028680012F00D0E00018B6FAF0E8A6FB60EE82EB8
:10287800FED78A2FFCD78B2FFAD700009EEC0AF0E0
:102888007BEC13F06EEC09F046EF14F007EF00F064
:10289800010E00016027000E612362236323245088
:1028A800D8A459EF14F05BEF14F065EF14F0752B12
:1028B8007551D8A462EF14F064EF14F065EF14F0CA
:1028C80075691200698468986D82010E246E000192
:1028D800756B000E3B6E750E3A6E000E3C6E000E68
:1028E8003D6E000E3F6E000E3E6E0DEC0FF01200B6
:1028F80000EE60F01A0EEE6AE806FDE100EE01F067
:102908002B0EEE6AE806FDE156905692000EF86E20
:06291800000132EF14F093
:020000040030CA
:0E000000240E3F1EFF8181FF0FC00FE00F4056
:00000001FF
