:0400000007EF00F016
:100008005C82BDED0EF0DCEF11F0200E2C600FEFDE
:1000180000F011EF00F013EF00F093EF01F06DA284
:1000280018EF00F01AEF00F023EF00F0010E16ECC5
:100038000EF093EF01F07DC079F07EC07AF00001F8
:100048007D51791907E17E517A19D8A42EEF00F075
:1000580030EF00F01FEF00F07751795D906F785125
:100068007A59916F91BF3DEF00F03BEF00F049EFF7
:1000780000F07751795D8D6F78517A598E6FFF0E48
:100088008D25906F7F0E8E21916F91BF55EF00F0F7
:10009800890E905D130E9159D8A055EF00F057EFD7
:1000A80000F05DEF00F0780E7925776FEC0E7A217D
:1000B800786F69516A11D8B464EF00F066EF00F008
:1000C80071EF00F069C0D9FF6AC0DAFFDFBE6FEFD9
:1000D80000F071EF00F06DEF01F0000E826F050E79
:1000E800836F000E856F000E846F000E876F090EF8
:1000F800866F57EC11F0010E0501006F010E16EC2A
:100108000EF0E806D8A48BEF00F08DEF00F0C3EFF7
:1001180000F000016E51D8A494EF00F096EF00F0C3
:10012800AAEF00F0010E6E6F010E0501006F6DC0A1
:1001380003F500016D2B280E6D19D8A4A6EF00F069
:10014800A8EF00F0AAEF00F0040E6D6F05010B5147
:10015800D8A4B1EF00F0B3EF00F0C5EF00F0000154
:100168007F51D8A4BAEF00F0BCEF00F0C5EF00F063
:10017800020E05010A6F0B6B0B8BC5EF00F0000137
:100188006E6B00018F6B926B000E9225D96EDA6A46
:10019800050EDA229251600FE16EE26ADE50E6182F
:1001A800D8B4D9EF00F0DBEF00F0DFEF00F0010E7C
:1001B8008F6FE8EF00F0922B080E9265E6EF00F0E3
:1001C800E8EF00F0C8EF00F07B517C11D8B4EFEFF6
:1001D80000F0F1EF00F002EF01F07B51905D9151DA
:1001E800800A8D6F7C51800A8D59D8A0FEEF00F0EF
:1001F80000EF01F002EF01F0010E8F6F8F05D8A418
:1002080008EF01F00AEF01F026EF01F025EE00F00B
:1002180010EE60F0080EDBCFE3FFE806FCE2010E0B
:10022800826F000E836F050E846F090E856F010EB5
:1002380054EC07F082C069F083C06AF079C077F0A7
:100248007AC078F005010B51D8A42DEF01F02FEFFB
:1002580001F038EF01F000017F51D8B436EF01F01A
:1002680038EF01F06DEF01F0000175517611D8B447
:1002780040EF01F042EF01F04DEF01F075C0D9FFFA
:1002880076C0DAFFDFBE4BEF01F04DEF01F06DEF06
:1002980001F0010E826F0A0E836F050E846F020E45
:1002A800856F010E54EC07F082C075F083C076F0BC
:1002B80005010B51D8B463EF01F065EF01F06BEF66
:1002C80001F00B6B010E00017F6F6DEF01F0000173
:1002D8007F6B6B516C11D8B474EF01F076EF01F0BD
:1002E80081EF01F06BC0D9FF6CC0DAFFDFBE7FEF92
:1002F80001F081EF01F093EF01F0EFEC11F0000E47
:100308000001826F090E836F050E846F010E856FE1
:10031800010E54EC07F082C06BF083C06CF0120041
:1003280004012205D8A49BEF01F09DEF01F0B6EF80
:1003380001F020511F0B0009D8A4A5EF01F0A7EF89
:1003480001F0B6EF01F00A8E030E2119D8A4AFEF21
:1003580001F0B1EF01F0B5EF01F0010E296EB6EF33
:1003680001F0296A2251D8A4BCEF01F0BEEF01F0D8
:1003780016EF03F020511F0B020AD8A4C6EF01F0B4
:10038800C8EF01F016EF03F024510F0B0009D8B4A1
:10039800D0EF01F0D2EF01F016EF03F024510F0B6C
:1003A800466E020E4660DBEF01F0DDEF01F016EF5E
:1003B80003F0200E2C18D8A4E4EF01F0E6EF01F0CA
:1003C80016EF03F00A8E24BFECEF01F0EEEF01F018
:1003D80004EF02F024510F0B020DF350110FD96EE8
:1003E800DA6ADECF4BF0DDCF4CF024510F0B466EAE
:1003F8004650150FD96EDA6ADF504A6E18EF02F0D0
:1004080024510F0B020DF3500D0FD96EDA6ADECFAF
:100418004BF0DDCF4CF024510F0B466E4650170FB2
:10042800D96EDA6ADF504A6E4AB01DEF02F01FEF4C
:1004380002F027EF02F0FB0E4B144B6EFF0E4C142C
:100448004C6E2CEF02F0040E4B104B6E4C504C6E61
:1004580024BF31EF02F033EF02F040EF02F02451F5
:100468000F0B020DF350110FD96EDA6A4BC0DEFF85
:100478004CC0DDFF4BEF02F024510F0B020DF3507F
:100488000D0FD96EDA6A4BC0DEFF4CC0DDFF030EDC
:100498002119D8A452EF02F054EF02F086EF02F0CF
:1004A8004BC0D9FF4CC0DAFFDFAE5DEF02F05FEF63
:1004B80002F078EF02F024BF64EF02F066EF02F07A
:1004C80070EF02F024510F0B466E4650150FD96E8F
:1004D800DA6ADF8278EF02F024510F0B466E46503D
:1004E800170FD96EDA6ADF824BC0D9FF4CC0DAFF2A
:1004F800000EDB844BC0D9FF4CC0DAFF000EDB8E48
:1005080016EF03F0040E4B184B6E4C504C6E4BC05C
:10051800D9FF4CC0DAFFDFAE94EF02F096EF02F09D
:10052800B2EF02F04BC0D9FF4CC0DAFF7F0EDF16E6
:100538004BC0D9FF4CC0DAFF000EDB8C000E3F6EBB
:10054800050E3E6E4BC040F04CC041F0000E436EAD
:10055800020E426E69EC0CF0B8EF02F04BC0D9FF06
:100568004CC0DAFF000EDB8C040E4B184B6E4C505F
:100578004C6E4AB2C2EF02F0C4EF02F0CFEF02F0C5
:100588004BC0D9FF4CC0DAFFDFAECDEF02F0CFEFA2
:1005980002F0FFEF02F0040124BFD5EF02F0D7EF1D
:1005A80002F0E1EF02F024510F0B466E4650150F92
:1005B800D96EDA6ADF92E9EF02F024510F0B466E2A
:1005C8004650170FD96EDA6ADF924BC0D9FF4CC07C
:1005D800DAFF3B0EDF16000E3F6E050E3E6E4BC077
:1005E80040F04CC041F0000E436E020E426E69ECC2
:1005F8000CF005EF03F04BC0D9FF4CC0DAFF3B0EFF
:10060800DF16040124510F0B466E476A700E46240C
:10061800486E0F0E4720496E48C0D9FF49C0DAFF1F
:10062800FE0EDF1612002C04D8A41DEF03F01FEFF6
:1006380003F02BEF03F06DBA24EF03F026EF03F07D
:100648002BEF03F0686A69806988020E2C6E68A433
:1006580030EF03F032EF03F03CEF03F069A437EF1B
:1006680003F039EF03F03CEF03F0689474EC11F0F9
:100678006DA241EF03F043EF03F046EF03F0A19AB8
:1006880020EF04F068A04BEF03F04DEF03F05AEFB2
:1006980003F069A052EF03F054EF03F05AEF03F0B0
:1006A80007EC09F0A08A040E2C6E689068A85FEF2A
:1006B80003F061EF03F06AEF03F069A866EF03F057
:1006C80068EF03F06AEF03F0C7EC11F068AC6FEF66
:1006D80003F071EF03F09CEF03F069AC76EF03F0E1
:1006E80078EF03F086EF03F0000E3F6E730E3E6E58
:1006F800000E406E000E416E000E436E010E426EFB
:1007080069EC0CF0689CADEC11F02550D8B48FEF73
:1007180003F091EF03F092EF03F025062550D8A4DB
:1007280098EF03F09AEF03F09CEF03F089EC0BF0DD
:1007380068AAA1EF03F0A3EF03F0ACEF03F069AAF6
:10074800A8EF03F0AAEF03F0ACEF03F01EEC10F0F3
:1007580068A2B1EF03F0B3EF03F0C8EF03F069A2AA
:10076800B8EF03F0BAEF03F0C8EF03F07F0E3F6E67
:100778003E68000E406E000E416E000E436E010E84
:10078800426E69EC0CF06A6A040E2C60CEEF03F03E
:10079800D0EF03F0D3EF03F0A19A20EF04F069A69D
:1007A800D8EF03F0DAEF03F01FEF04F04F6A68A602
:1007B800E0EF03F0E2EF03F01FEF04F06CCF2DF051
:1007C8002D30E832E8320F0B276E68962DB4EFEF24
:1007D80003F0F1EF03F0F8EF03F02750150FD96E8F
:1007E800DA6ADF70FDEF03F02750170FD96EDA6A67
:1007F800DF702750D8A403EF04F005EF04F009EFE9
:1008080004F0D3EC0CF016EF04F0000E3F6E720EFD
:100818003E6E2D0E406E416A000E436E000E426E13
:1008280069EC0CF04F2A030E4F641DEF04F01FEF24
:1008380004F0DBEF03F0A19A120020EE01F01B5048
:10084800D9261C50DA22DF50346E3450045C000E76
:100858000558D8B032EF04F034EF04F036EF04F066
:1008680004C034F03450045E000E055A336A4CEF6D
:1008780004F0280E3324D96EDA6A040EDA2201C095
:10088800E1FF02C0E2FFDFCFE7FF014A022A332A75
:100898003450335CD8A053EF04F055EF04F03DEF2B
:1008A80004F004500510D8B45CEF04F05EEF04F0D7
:1008B80097EF04F020EE01F01950D9261A50DA22E9
:1008C800080EDF6E20EE02F01950D9261A50DA22EF
:1008D800280EDE6E040EDD6E1BC0D9FF1CC0DAFFC9
:1008E800DFBC79EF04F07BEF04F089EF04F019C066
:1008F800D9FF1AC0DAFF480EDF6E19C0D9FF1AC037
:10090800DAFF000EDB8ED8EF04F019C0D9FF1AC049
:10091800DAFF080EDF6E19C0D9FF1AC0DAFF000E21
:10092800DB8ED8EF04F020EE01F01950D9261A50CA
:10093800DA22080EDF6E20EE02F01950D9261A507E
:10094800DA22200EDE6E040EDD6E19C0D9FF1AC041
:10095800DAFF040EDF6E19C0D9FF1AC0DAFF000EE5
:10096800DB8E06500710D8B4BCEF04F0BEEF04F0DD
:10097800CDEF04F020EE06F002D8CDEF04F005002C
:10098800FA6EDE50FD6EDE50FE6EF850FF6EFA50C5
:100998001200039E2450D8A4D4EF04F0D6EF04F03C
:1009A800D8EF04F089EC0BF01200040120511F0B62
:1009B800E806D8B4E2EF04F0E4EF04F0E6EF04F060
:1009C8007DEF05F02451D8B4ECEF04F0EEEF04F01D
:1009D800F0EF04F07DEF05F0060E2119D8A4F7EF2B
:1009E80004F0F9EF04F02AEF05F01BEF05F02F04EF
:1009F800D8A401EF05F003EF05F02AEF05F0B50ED6
:100A0800086E7F0E096E000E0C6E090E0B6EC00E7E
:100A18000A6E2AEF05F0070E086E7F0E096E000EAB
:100A28000C6E680E0B6EC00E0A6E2AEF05F023518D
:100A3800210AD8B4FBEF04F0030AD8B40FEF05F08D
:100A4800010AD8B42AEF05F02AEF05F02039E83278
:100A5800030BE806D8B433EF05F035EF05F062EF85
:100A680005F07DEF05F011EC12F07DEF05F0810E39
:100A7800086E096A000E0C6E010E0B6EC10E0A6E2E
:100A88007DEF05F0800E0A6E23C481F081C030F03E
:100A980022511FEC12F07DEF05F0800E086E096AF6
:100AA800000E0C6E010E0B6E810E0A6E7DEF05F0C6
:100AB800800E0A6E22C480F07DEF05F02151010AF4
:100AC800D8B47DEF05F0030AD8B43BEF05F0010A6E
:100AD800D8B451EF05F00A0AD8B437EF05F0030A85
:100AE800D8B446EF05F0010AD8B45CEF05F07DEF05
:100AF80005F01200800E04012019D8A486EF05F035
:100B080088EF05F020EF06F0C00E0A6E11EF06F030
:100B1800E80E086E7F0E096E000E0C6E120E0B6E3C
:100B280020EF06F02251D8A49CEF05F09EEF05F0C7
:100B3800DCEF05F02251020D050EF324F66E7F0E50
:100B4800F420F76E0900F5CF08F00A00F5CF09F098
:100B5800020E0824306E000E0920316E30C0F6FFF8
:100B680031C0F7FFF86A070EF76403D00800F550A4
:100B780005D0F6CFE1FFF7CFE2FFE7500B6E030E8B
:100B88000824306E000E0920316E30C0F6FF31C0E7
:100B9800F7FFF86A070EF76403D00800F55005D090
:100BA800F6CFE1FFF7CFE2FFE7500C6E20EF06F03B
:100BB8000A6A20EF06F0030E2261E5EF05F0E7EF81
:100BC80005F00BEF06F02251020DFF0EF324F66E2E
:100BD8007E0EF420F76E0900F5CF08F00A00F5CF75
:100BE80009F008C0F6FF09C0F7FFF86A070EF764B6
:100BF80003D00800F55005D0F6CFE1FFF7CFE2FFAC
:100C0800E750306E30500B6E0C6A20EF06F00A6A1F
:100C180020EF06F00A6A20EF06F02351010AD8B443
:100C28008CEF05F0030AD8B496EF05F0010AD8B4A2
:100C3800DFEF05F00EEF06F012006D980ABE27EF01
:100C480006F029EF06F06CEF06F003AE2EEF06F083
:100C580030EF06F040EF06F0020E2A6E2050D8A4BE
:100C680038EF06F03AEF06F03CEF06F02FEC0DF007
:100C7800226A236ABAEF06F020EE01F01950D9264D
:100C88001A50DA22080EDF6E20EE02F01950D9262B
:100C98001A50DA22200EDE6E040EDD6E19C0D9FF5E
:100CA8001AC0DAFF0C0EDF6E19C0D9FF1AC0DAFFBE
:100CB800000EDB8E0DC0D9FF0EC0DAFF040EDF6E0A
:100CC8000DC0D9FF0EC0DAFF000EDB8EBAEF06F0BA
:100CD800040120AF72EF06F074EF06F08EEF06F015
:100CE800010E2A6E2150D8A47CEF06F07EEF06F0A4
:100CF80080EF06F02FEC0DF0226A236A2450D8A466
:100D080088EF06F08AEF06F0BAEF06F089EC0BF0F0
:100D1800BAEF06F0020E2A6E20EE01F01950D9261D
:100D28001A50DA22080EDF6E20EE02F01950D9268A
:100D38001A50DA22200EDE6E040EDD6E19C0D9FFBD
:100D48001AC0DAFF040EDF6E19C0D9FF1AC0DAFF25
:100D5800000EDB8E226A236A2450D8A4B6EF06F070
:100D6800B8EF06F0BAEF06F08AEF06F012000DC0F1
:100D7800D9FF0EC0DAFF000EDFBC010E336E040E81
:100D88000D180D6E0E500E6E080E2C18D8A4CFEF4D
:100D980006F0D1EF06F0E3EF06F0040122517F0BD5
:100DA8006E6E6E50D8B4DBEF06F0DDEF06F0E1EFC3
:100DB80006F0100E2C6EE3EF06F0040E2C6E2A04DB
:100DC800D8A4E9EF06F0EBEF06F032EF07F020EEDB
:100DD80002F00D50D9260E50DA22280EDE6E040ECF
:100DE800DD6E8FEC09F0020E2B18D8A4FEEF06F08A
:100DF80000EF07F00EEF07F00DC0D9FF0EC0DAFFC5
:100E0800040EDF6E0DC0D9FF0EC0DAFF000EDB8EB8
:100E180053EF07F03350D8A414EF07F016EF07F09C
:100E280024EF07F00DC0D9FF0EC0DAFF480EDF6EC1
:100E38000DC0D9FF0EC0DAFF000EDB8E53EF07F0AE
:100E48000DC0D9FF0EC0DAFF080EDF6E0DC0D9FF46
:100E58000EC0DAFF000EDB8E53EF07F003AE37EF5C
:100E680007F039EF07F052EF07F006500710D8B433
:100E780040EF07F042EF07F051EF07F020EE06F0E1
:100E880002D851EF07F00500FA6EDE50FD6EDE5015
:100E9800FE6EF850FF6EFA501200039E2A6A120086
:100EA80000018A6F00018251D8B45DEF07F05FEF4F
:100EB80007F06BEF07F08A51020DF3500D0FD96E52
:100EC800DA6ADECF8BF0DDCF8CF075EF07F08A5150
:100ED800020DF350110FD96EDA6ADECF8BF0DDCF39
:100EE8008CF08B518C11D8A47CEF07F07EEF07F0C3
:100EF80084EF07F0000E826F000E836FE8EF07F0B3
:100F080020EE02F08B51D9268C51DA2283C0DEFF05
:100F180084C0DDFF20EE01F08B51D9268C51DA22F6
:100F280085C0DFFF8BC0D9FF8CC0DAFF400EDF160B
:100F38008BC0D9FF8CC0DAFF000EDB868BC0D9FFCF
:100F48008CC0DAFF000EDB8E8251D8B4AEEF07F00A
:100F5800B0EF07F0CBEF07F08A51020DF3500D0FF9
:100F6800D96EDA6ADECF86F0DDCF87F0040E8619F7
:100F7800886F8751896F8A51020DF3500D0FD96E12
:100F8800DA6A88C0DEFF89C0DDFFE4EF07F08A5126
:100F9800020DF350110FD96EDA6ADECF86F0DDCF7D
:100FA80087F0040E8619886F8751896F8A51020D60
:100FB800F350110FD96EDA6A88C0DEFF89C0DDFFF1
:100FC8008BC082F08CC083F01200386E3050D8B4D9
:100FD800F0EF07F0F2EF07F0FEEF07F03850020DE0
:100FE800F3500D0FD96EDA6ADECF39F0DDCF3AF063
:100FF80008EF08F03850020DF350110FD96EDA6A75
:10100800DECF39F0DDCF3AF039503A10D8A40FEFDF
:1010180008F011EF08F017EF08F0000E306E000E20
:10102800316E7BEF08F020EE02F03950D9263A50A5
:10103800DA2231C0DEFF32C0DDFF20EE01F0395088
:10104800D9263A50DA2233C0DFFF39C0D9FF3AC077
:10105800DAFF400EDF1639C0D9FF3AC0DAFF000EBA
:10106800DB8639C0D9FF3AC0DAFF000EDB8E30507C
:10107800D8B441EF08F043EF08F05EEF08F03850BD
:10108800020DF3500D0FD96EDA6ADECF34F0DDCFE2
:1010980035F0040E3418366E3550376E3850020D60
:1010A800F3500D0FD96EDA6A36C0DEFF37C0DDFFA8
:1010B80077EF08F03850020DF350110FD96EDA6A45
:1010C800DECF34F0DDCF35F0040E3418366E3550EF
:1010D800376E3850020DF350110FD96EDA6A36C0E8
:1010E800DEFF37C0DDFF39C030F03AC031F0120002
:1010F800A09A6A6A686A706A710E0001826F0F0EA0
:10110800836F000E856F000E846F000E876F010ECF
:10111800866F57EC11F0160E6F6E9F0E6B6E7B0E7E
:10112800696E00018A6B8A51040D000EF324D96E92
:10113800040EF420DA6EDE6ADE6ADE6ADD6A8A2B65
:10114800070E8A65AAEF08F0ACEF08F097EF08F0F1
:101158006D8C6E6A6D986D9C68960A6A036A000EBB
:10116800056E000E046E68B6BCEF08F0BEEF08F01E
:10117800B0EF08F0010E236E010E226E216A206A7C
:10118800286A00018A6B8A51020DF3500D0FD96E3F
:10119800DA6ADE6ADD6A8A51020DF350110FD96EE0
:1011A800DA6ADE6ADD6A8A51170FD96EDA6ADF6A8F
:1011B8008A51150FD96EDA6ADF6A8A2B010E8A65A1
:1011C800E8EF08F0EAEF08F0C7EF08F0080E0D6E38
:1011D800040E0E6E160E706E040E0401036F200EC0
:1011E800026F080E016F040E006F008F2F6A000E49
:1011F80000016F6F000E706F000E716F000E726F3E
:101208001F6A2C6A1200A09A6A6A686A706A710E6C
:10121800306E0F0E316E000E336E000E326E000E01
:10122800356E010E346E91EC11F0160E6F6E9F0E36
:101238006B6E7B0E696E386A3850040D000EF3240D
:10124800D96E040EF420DA6EDE6ADE6ADE6ADD6AC2
:10125800382A070E386433EF09F035EF09F020EF2C
:1012680009F06D8C6E6A6D986D9C68960A6A036ABF
:10127800000E056E000E046E68B645EF09F047EFE4
:1012880009F039EF09F0010E236E010E226E216A72
:10129800206A286A386A3850020DF3500D0FD96E4B
:1012A800DA6ADE6ADD6A3850020DF350110FD96E22
:1012B800DA6ADE6ADD6A3850170FD96EDA6ADF6AD1
:1012C8003850150FD96EDA6ADF6A382A010E386489
:1012D80070EF09F072EF09F04FEF09F0080E0D6E8C
:1012E800040E0E6E160E706E040E0401036F200EAF
:1012F800026F080E016F040E006F008F2F6A000E38
:1013080000016F6F000E706F000E716F000E726F2C
:101318001F6A2C6A1200080E306E0C5007E1080E86
:101328000B5CD8B09AEF09F09CEF09F0B4EF09F024
:101338000BC030F02B50D8A4A4EF09F0A6EF09F0A9
:10134800AAEF09F0010E2B6EB4EF09F02B04D8A414
:10135800B0EF09F0B2EF09F0B4EF09F0020E2B6E0E
:1013680030500B5E000E0C5A20EE01F00D50D926BD
:101378000E50DA2230C0DFFF280E0001736F040E12
:10138800746F0AB0CAEF09F0CCEF09F00EEF0AF05B
:10139800E9EF09F008C0F6FF09C0F7FFF86A73C063
:1013A800D9FF74C0DAFF070EF76403D00800F550C0
:1013B80005D0F6CFE1FFF7CFE2FFE750DF6E084A2E
:1013C800092A0001734B742B30063050D8A4EFEF74
:1013D80009F0F1EF09F0CEEF09F016EF0AF008C0B6
:1013E800F6FF09C0F7FFF86A73C0D9FF74C0DAFFC7
:1013F800070EF76403D00800F55005D0F6CFE1FFDB
:10140800F7CFE2FFE750DF6E084A092A0001734B65
:10141800742B30063050D8A414EF0AF016EF0AF0F7
:10142800F3EF09F0120004012039E832030B000938
:10143800D8B421EF0AF023EF0AF068EF0AF097EF2B
:101448000AF00A8E080E2C6E97EF0AF07EEC05F073
:1014580097EF0AF0FFEC0BF097EF0AF02F0E086EEB
:10146800096A0A80010E0B6E0A8E97EF0AF012ECD9
:101478000BF097EF0AF094EC01F097EF0AF0245183
:101488002E0F4D6E4DC008F0096A0A80010E0B6ED2
:101498000A8E97EF0AF00A8E24512E0FD96EDA6A57
:1014A80022C4DFFF97EF0AF0000E3F6E020E3E6E79
:1014B800000E406E000E416E000E436E000E426E2E
:1014C80069EC0CF097EF0AF02151000AD8B43BEF11
:1014D8000AF0010AD8B43FEF0AF0020AD8B43FEF85
:1014E8000AF0060AD8B425EF0AF0030AD8B42AEF9E
:1014F8000AF0010AD8B458EF0AF00F0AD8B432EF4C
:101508000AF0010AD8B42EEF0AF0030AD8B443EF60
:101518000AF0010AD8B44FEF0AF0070AD8B497EFD7
:101528000AF097EF0AF012006DA29DEF0AF09FEF04
:101538000AF0FEEF0AF0010EEDEC0FF011EF0BF0E0
:101548001D041E10D8A4ABEF0AF0ADEF0AF0B2EFFD
:101558000AF0010EBCEC0FF00FEF0BF04B0E1D184C
:101568001E10D8A4BAEF0AF0BCEF0AF0C1EF0AF0D7
:10157800010EEDEC0FF00FEF0BF01E5009E1970E86
:101588001D5CD8A0CAEF0AF0CCEF0AF0D2EF0AF03F
:10159800000E1E6E000E1D6E0FEF0BF00FEF0BF01E
:1015A8001D041E10D8A4DBEF0AF0DDEF0AF0E2EF0D
:1015B8000AF0010EBCEC0FF00FEF0BF0320E1D1805
:1015C8001E10D8A4EAEF0AF0ECEF0AF0F1EF0AF0E7
:1015D800010EEDEC0FF00FEF0BF0B70E1D5C030ED4
:1015E8001E58D8A0FAEF0AF0FCEF0AF00FEF0BF044
:1015F800CCEF0AF02C50336E346A3450000AD8B459
:1016080008EF0BF0D4EF0AF03350200AD8B4A4EF57
:101618000AF0D4EF0AF01D4A1E2A12000401286BB2
:10162800296B6AEF0BF00A8E2904D8A41EEF0BF081
:1016380020EF0BF07AEF0BF028837AEF0BF00A8E8D
:101648007AEF0BF00A8E24510F0B0009D8B42FEF54
:101658000BF031EF0BF07AEF0BF024BF36EF0BF005
:1016680038EF0BF045EF0BF024510F0B020DF35040
:10167800110FD96EDA6ADECF30F0DDCF31F050EFDE
:101688000BF024510F0B020DF3500D0FD96EDA6ACF
:10169800DECF30F0DDCF31F030C0D9FF31C0DAFF16
:1016A800DFAE59EF0BF05BEF0BF07AEF0BF030C0C9
:1016B800D9FF31C0DAFFDFA464EF0BF066EF0BF05F
:1016C8007AEF0BF0010E286F7AEF0BF020511F0B09
:1016D800000AD8B417EF0BF0010AD8B423EF0BF0C7
:1016E800030AD8B426EF0BF07AEF0BF00AAE7FEFBF
:1016F8000BF081EF0BF088EF0BF0280E086E040E4C
:10170800096E0A80020E0B6E12002350D8A48FEFC8
:101718000BF091EF0BF0FEEF0BF0010E236E225051
:10172800D8A499EF0BF09BEF0BF0FEEF0BF0010E36
:10173800226E020E2A18D8A4A4EF0BF0A6EF0BF025
:10174800BBEF0BF020EE01F00D50D9260E50DA2237
:10175800DF6A0DC0D9FF0EC0DAFF480EDF6E0DC07C
:10176800D9FF0EC0DAFF000EDB8EFEEF0BF02A0465
:10177800D8A4C1EF0BF0C3EF0BF0FEEF0BF0266A15
:1017880020EE01F01B50D9261C50DA22080EDF6E1D
:1017980020EE02F01B50D9261C50DA22200EDE6EF5
:1017A800040EDD6E1BC0D9FF1CC0DAFF040EDF6E0D
:1017B8001BC0D9FF1CC0DAFF000EDB8E010E266E9F
:1017C80020EE01F01950D9261A50DA22080EDF6EE1
:1017D80020EE02F01950D9261A50DA22200EDE6EB9
:1017E800040EDD6E19C0D9FF1AC0DAFF800EDF6E55
:1017F800FEEF0BF012000A8E710E306E0F0E316E76
:10180800000E336E000E326E000E356E010E346E11
:1018180091EC11F0000E306E040E316E000E336E36
:10182800000E326E000E356E200E346E91EC11F003
:101838006D8C466A4650170FD96EDA6ADF6A4650D1
:10184800150FD96EDA6ADF6A462A010E46642FEF51
:101858000CF031EF0CF01EEF0CF02E0E306E316AEA
:10186800000E336E000E326E000E356E010E346EB1
:1018780091EC11F06D9C080E0D6E040E0E6E000EAC
:101888001B6E040E1C6E1BC019F01CC01AF022C47B
:101898002FF02F50D8A453EF0CF055EF0CF059EF60
:1018A8000CF0100E2C6E68EF0CF0000E3F6E010E5F
:1018B8003E6E2F0E406E416A000E436E010E426E60
:1018C80069EC0CF0200E2C6E120099EF0CF098ECDD
:1018D8000AF000017D2909E17F0E7E19D8B477EF5F
:1018E8000CF079EF0CF07DEF0CF07D4B7E2BD2EFF6
:1018F8000CF0000E7E6F000E7D6FD2EF0CF098ECAE
:101908000AF0010EA0EC10F0D2EF0CF098EC0AF0FF
:10191800020EA0EC10F0D2EF0CF086EC0EF0D2EF35
:101928000CF0D9EC04F0D2EF0CF03EC044F03FC00C
:1019380045F04550000AD8B4A8EF0CF07F0AD8B497
:10194800CBEF0CF0D2EF0CF04450010AD8B491EF71
:101958000CF0030AD8B4D2EF0CF0010AD8B495EF12
:101968000CF0060AD8B4D2EF0CF0770AD8B4D2EF4C
:101978000CF0010AD8B46BEF0CF0070AD8B48AEF60
:101988000CF0010AD8B483EF0CF0D2EF0CF04450FD
:10199800FF0AD8B4D2EF0CF0D2EF0CF012002D0EE3
:1019A800256E2DC04EF0FD0E4E16D8A4DEEF0CF0BD
:1019B800E0EF0CF022EF0DF02DC04EF0D8904E3233
:1019C8003F0E4E164E50040D000EF3241B6E040EEF
:1019D800F4201C6E1BC019F01CC01AF0040E191854
:1019E800196E1A501A6E1BC0D9FF1CC0DAFFDF30FF
:1019F800E8320F0B0D0AD8A404EF0DF006EF0DF036
:101A08001EEF0DF0200E306E040E316E20EE02F047
:101A18001B50D9261C50DA22DECF32F0DDCF33F04E
:101A2800000E356E080E346E78EC10F0D7EC0DF021
:101A38002EEF0DF04EEC0EF02EEF0DF02D50FD0BAD
:101A4800040AD8A42AEF0DF02CEF0DF02EEF0DF0BC
:101A5800BBEC06F01200216A206A020E2A18D8A4EC
:101A680038EF0DF03AEF0DF05AEF0DF020EE01F0DF
:101A78001950D9261A50DA22080EDF6E20EE02F02D
:101A88001950D9261A50DA22280EDE6E040EDD6EA1
:101A980019C0D9FF1AC0DAFF480EDF6E19C0D9FF86
:101AA8001AC0DAFF000EDB8E82EF0DF00B50040136
:101AB800265D0C502759D8B064EF0DF066EF0DF095
:101AC8006AEF0DF026C40BF027C40CF08FEC09F078
:101AD80020EE02F00D50D9260E50DA22280EDE6EC6
:101AE800040EDD6E0DC0D9FF0EC0DAFF480EDF6EA2
:101AF8000DC0D9FF0EC0DAFF000EDB8E1200376E64
:101B0800000E386E040E396E3050316E326AD8903D
:101B1800313632363750336E346AD89033363436ED
:101B2800D8903336343631503324356E3250342021
:101B3800366ED89035363636D890353636363550F6
:101B480038263650392238C0D9FF39C0DAFFDF9E2F
:101B58003050D8A4B2EF0DF0B4EF0DF0C0EF0DF097
:101B68003750020DF350110FD96EDA6A38C0DEFF14
:101B780039C0DDFFCAEF0DF03750020DF3500D0FDD
:101B8800D96EDA6A38C0DEFF39C0DDFF38C0D9FF48
:101B980039C0DAFFDF9C20EE04F03850D9263950DE
:101BA800DA22DF8C12002B6A246A216A206A266AEC
:101BB8002A6A0DC0D9FF0EC0DAFF7F0EDF16040EA9
:101BC8000D180D6E0E500E6E0DC0D9FF0EC0DAFF47
:101BD8007F0EDF16040E0D180D6E0E500E6E19C016
:101BE800D9FF1AC0DAFF7F0EDF160A6A000E0C6EE4
:101BF800000E0B6E036A000E056E000E046E17ECE5
:101C08000AF0000E3F6E030E3E6E000E406E000E90
:101C1800416E000E436E000E426E69EC0CF021EC32
:101C280006F012000001846F33EF0EF081A81FEF59
:101C38000EF022EF0EF0010E23EF0EF0000E4DEF26
:101C48000EF081AA2AEF0EF02DEF0EF0010E2EEF06
:101C58000EF0000E4DEF0EF0000E4DEF0EF00001ED
:101C68008451826F836B8351000AD8B43EEF0EF023
:101C780030EF0EF08251000AD8B430EF0EF0010AAE
:101C8800D8B41AEF0EF0030AD8B425EF0EF030EFEF
:101C98000EF01200020E2A18D8A455EF0EF057EFD6
:101CA8000EF05BEF0EF021EC04F085EF0EF02A6ADF
:101CB8002650D8A462EF0EF064EF0EF084EF0EF019
:101CC80020EE01F01950D9261A50DA22080EDF6EDC
:101CD80020EE02F01950D9261A50DA22200EDE6EB4
:101CE800040EDD6E19C0D9FF1AC0DAFF0C0EDF6EC4
:101CF80019C0D9FF1AC0DAFF000EDB8E85EF0EF08F
:101D0800266A1200000E0001696F000E6A6F000E4D
:101D1800756F000E766F040E6D6F6E6B010E7C6F23
:101D2800F40E7B6F9CEF0EF07DC077F07EC078F0EC
:101D38007D51771907E17E517819D8A4A6EF0EF0E6
:101D4800A8EF0EF098EF0EF01E0E3A6E010EC8ECDA
:101D580010F0000E306E090E316E050E326E010E57
:101D6800336E010EE9EC07F030C06BF031C06CF057
:101D780012000600FACF50F0FBCF51F0E1CF52F03D
:101D8800E2CF53F0D9CF54F0DACF55F0F3CF56F075
:101D9800F4CF57F0F6CF58F0F7CF59F0F8CF5AF004
:101DA800F5CF5BF017EC03F05BC0F5FF5AC0F8FF06
:101DB80059C0F7FF58C0F6FF57C0F4FF56C0F3FFED
:101DC80055C0DAFF54C0D9FF53C0E2FF52C0E1FF4B
:101DD80051C0FBFF50C0FAFF5C9211000001846FF4
:101DE80002EF0FF0959624EF0FF0959224EF0FF085
:101DF800959424EF0FF0959624EF0FF0000184518D
:101E0800826F836B8351000AD8B40DEF0FF024EF73
:101E18000FF08251000AD8B424EF0FF0010AD8B4A9
:101E2800F6EF0EF0030AD8B4F9EF0EF0010AD8B4B1
:101E3800FCEF0EF0070AD8B4FFEF0EF024EF0FF016
:101E480012000001846F35EF0FF08C8657EF0FF00A
:101E58008C8257EF0FF08C8457EF0FF08C8657EF7A
:101E68000FF000018451826F836B8351000AD8B44C
:101E780040EF0FF057EF0FF08251000AD8B457EF38
:101E88000FF0010AD8B429EF0FF0030AD8B42CEFE9
:101E98000FF0010AD8B42FEF0FF0070AD8B432EFC9
:101EA8000FF057EF0FF012000001846F68EF0FF08A
:101EB8008C968AEF0FF08C928AEF0FF08C948AEF51
:101EC8000FF08C968AEF0FF000018451826F836BBC
:101ED8008351000AD8B473EF0FF08AEF0FF08251E4
:101EE800000AD8B48AEF0FF0010AD8B45CEF0FF0FB
:101EF800030AD8B45FEF0FF0010AD8B462EF0FF00D
:101F0800070AD8B465EF0FF08AEF0FF01200326EAF
:101F18009AEF0FF09596BBEF0FF09592BBEF0FF08D
:101F28009594BBEF0FF09596BBEF0FF03250306EE3
:101F3800316A3150000AD8B4A4EF0FF0BBEF0FF0AC
:101F48003050000AD8B4BBEF0FF0010AD8B48EEFB6
:101F58000FF0030AD8B491EF0FF0010AD8B494EF48
:101F68000FF0070AD8B497EF0FF0BBEF0FF012008D
:101F7800326ECBEF0FF08C86ECEF0FF08C82ECEF2B
:101F88000FF08C84ECEF0FF08C86ECEF0FF03250F2
:101F9800306E316A3150000AD8B4D5EF0FF0ECEF4B
:101FA8000FF03050000AD8B4ECEF0FF0010AD8B4A3
:101FB800BFEF0FF0030AD8B4C2EF0FF0010AD8B48C
:101FC800C5EF0FF0070AD8B4C8EF0FF0ECEF0FF029
:101FD8001200326EFCEF0FF08C961DEF10F08C9211
:101FE8001DEF10F08C941DEF10F08C961DEF10F083
:101FF8003250306E316A3150000AD8B406EF10F012
:102008001DEF10F03050000AD8B41DEF10F0010A8F
:10201800D8B4F0EF0FF0030AD8B4F3EF0FF0010AC9
:10202800D8B4F6EF0FF0070AD8B4F9EF0FF01DEFA8
:1020380010F0120070A023EF10F025EF10F04CEF15
:1020480010F01BC0D9FF1CC0DAFF800EDE18D8A420
:1020580030EF10F032EF10F04BEF10F00DC0D9FF59
:102068000EC0DAFF840EDE18D8A43DEF10F03FEF63
:1020780010F04BEF10F01BC0D9FF1CC0DAFF0C0E9C
:10208800DF6E1BC0D9FF1CC0DAFF000EDB8E70901C
:10209800689A12000001876F5DEF10F0010EF2ECF4
:1020A8000EF0020EF2EC0EF0010EEEEC10F077EFEF
:1020B80010F000018751856F866B8651000AD8B4ED
:1020C80068EF10F077EF10F08551000AD8B452EF9E
:1020D80010F0010AD8B477EF10F0030AD8B477EFFC
:1020E80010F077EF10F0120032C038F033C039F03A
:1020F80030C036F031C037F092EF10F038C0D9FF59
:1021080039C0DAFFDF503A6E384A392A36C0D9FF6B
:1021180037C0DAFF3AC0DFFF364A372A3406D8A07C
:102128003506342806E13528D8A49DEF10F09FEF36
:1021380010F082EF10F01200356EAEEF10F0010EC5
:102148008BEC0FF0020E8BEC0FF0010E13EC11F07C
:10215800C7EF10F03550336E346A3450000AD8B4E3
:10216800B8EF10F0C7EF10F03350000AD8B4A3EF5F
:1021780010F0010AD8B4C7EF10F0030AD8B4C7EFBB
:1021880010F0C7EF10F012003D6E3AA4CEEF10F039
:10219800D0EF10F0D5EF10F0000E306E3D5083EC0C
:1021A8000DF03AA2DAEF10F0DCEF10F0E1EF10F0EA
:1021B800010E306E3D5083EC0DF0700E3D243B6EE9
:1021C8003C6A0F0E3C223BC0D9FF3CC0DAFF3AC044
:1021D800DFFF12000001846FF8EF10F0938812EF10
:1021E80011F0938A12EF11F000018451826F836B12
:1021F8008351000AD8B403EF11F012EF11F08251A5
:10220800000AD8B412EF11F0010AD8B4F2EF10F0B6
:10221800030AD8B4F5EF10F012EF11F01200326E85
:102228001CEF11F0938835EF11F0938A35EF11F018
:102238003250306E316A3150000AD8B426EF11F0AE
:1022480035EF11F03050000AD8B435EF11F0010A1B
:10225800D8B416EF11F0030AD8B419EF11F035EF1E
:1022680011F012002C50D8A43CEF11F03EEF11F001
:1022780056EF11F06D6A696A160E6F6E9F0E6B6EDF
:102288007B0E696ED08EA28AA08AF28E4DEF11F075
:102298006D866DA652EF11F054EF11F04CEF11F06E
:1022A800010E2C6E120082C088F083C089F065EFA1
:1022B80011F088C0D9FF89C0DAFF84C0DFFF884BDE
:1022C800892B00018607D8A08707862906E1872978
:1022D800D8A471EF11F073EF11F05DEF11F0120057
:1022E800286A000E3F6E740E3E6E000E406E000EA1
:1022F800416E000E436E000E426E69EC0CF06D925A
:10230800699488EF11F0689468B48DEF11F08FEF3D
:1023180011F087EF11F01F6A120030C036F031C09B
:1023280037F09FEF11F036C0D9FF37C0DAFF32C05F
:10233800DFFF364A372A3406D8A03506342806E1A6
:102348003528D8A4AAEF11F0ACEF11F097EF11F0EF
:102358001200010E00016F27000E702371237223F3
:102368002850D8A4BAEF11F0BCEF11F0C6EF11F065
:102378001F2A1F50D8A4C3EF11F0C5EF11F0C6EF04
:1023880011F01F681200698468986D82010E286E2A
:102398001F6A000E3F6E750E3E6E000E406E000EF8
:1023A800416E000E436E000E426E69EC0CF0120096
:1023B80000EE60F0220EEE6AE806FDE100EE01F0A4
:1023C8002F0EEE6AE806FDE15C905C92000EF86E56
:1023D80000012DEF12F0050109A3F5EF11F0F7EF59
:1023E80011F0FCEF11F0020E25EC0FF0FFEF11F0E9
:1023F800020E58EC0FF01200050109A306EF12F0C7
:1024080008EF12F00DEF12F0020EBCEC0FF010EF17
:1024180012F0020EEDEC0FF01200280E016E040E01
:10242800026E000E056E080E046E740E066E240E03
:10243800076E038E1200316E3150D8A426EF12F0C9
:1024480028EF12F02CEF12F030C07BF000017C6B0B
:102458001200000E4EEC10F07CEC08F036EC11F097
:1024680009EC00F034EF12F007EF00F028C409F58A
:0624780000EC12F012005E
:107EFE0000FA7F6F7FCC7FA37F05010906A1018564
:107F0E0001050719E029E71500250175019508817E
:107F1E00029501750881039505750105081901295A
:107F2E0005910295017503910395067508150025B7
:107F3E00650507190029658100C0050C0901A1011D
:107F4E008502050C150025017501950709B509B6C1
:107F5E0009B709CD09E209E909EA81029501810112
:107F6E00C034034D006900630072006F0063006847
:107F7E000069007000200054006500630068006E08
:107F8E00006F006C006F0067007900200049006EE2
:107F9E000063002E0009022900010100C03209040D
:107FAE0000000203010100092111010001226800F5
:107FBE0007058103090001070501030100011C03E8
:107FCE0056006F006C0075006D006500000000002B
:107FDE00000000000000000000001201000200007E
:107FEE000008D80455000100010200010403090431
:017FFE000082
:020000040030CA
:0E000000240E3F1EFF8181FF0FC00FE00F4056
:00000001FF
