:0400000007EF00F016
:100008005C82E5ED0EF004EF12F0200E2C600FEF8D
:1000180000F011EF00F013EF00F0B8EF01F06DA25F
:1000280018EF00F01AEF00F023EF00F0020E75EC65
:100038000EF0B8EF01F085C07FF086C080F00001B7
:1000480085517F1907E186518019D8A42EEF00F059
:1000580030EF00F01FEF00F07D517F5D9A6F7E5109
:1000680080599B6F9BBF3DEF00F03BEF00F049EFDD
:1000780000F07D517F5D966F7E518059976FFF0E1E
:1000880096259A6F7F0E97219B6F9BBF55EF00F0C7
:10009800890E9A5D130E9B59D8A055EF00F057EFC3
:1000A80000F05DEF00F0780E7F257D6FEC0E80216B
:1000B8007E6F6F517011D8B464EF00F066EF00F0F6
:1000C80071EF00F06FC0D9FF70C0DAFFDFBE6FEFCD
:1000D80000F071EF00F091EF01F0000E8B6F050E4C
:1000E8008C6F000E8E6F000E8D6F000E906F090ED4
:1000F8008F6F7FEC11F0010E0501006F010E75EC9A
:100108000EF0E806D8A48BEF00F08DEF00F0ACEF0E
:1001180000F000017451D8A494EF00F096EF00F0BD
:10012800AEEF00F0010E746F010E0501006F73C091
:1001380003F50001732B280E7319D8A4A6EF00F05D
:10014800A8EF00F0AEEF00F0040E736FAEEF00F012
:100158000001746B996B9C6B000E9C25D96EDA6A52
:10016800050EDA229C51600FE16EE26ADE50E61855
:10017800D8B4C1EF00F0C3EF00F0C7EF00F0010EF4
:10018800996FD0EF00F09C2B080E9C65CEEF00F025
:10019800D0EF00F0B0EF00F081518211D8B4D7EF62
:1001A80000F0D9EF00F0EAEF00F081519A5D9B5121
:1001B800800A966F8251800A9659D8A0E6EF00F01F
:1001C800E8EF00F0EAEF00F0010E996F9905D8A466
:1001D800F0EF00F0F2EF00F00EEF01F025EE00F086
:1001E80010EE60F0080EDBCFE3FFE806FCE2010E3C
:1001F8008B6F000E8C6F050E8D6F090E8E6F010EC2
:1002080079EC07F08BC06FF08CC070F07FC07DF088
:1002180080C07EF0000169516A11D8B416EF01F070
:1002280018EF01F023EF01F069C0D9FF6AC0DAFFC7
:10023800DFBE21EF01F023EF01F091EF01F00A0E8C
:100248008B6F050E8C6F000E8E6F000E8D6F000E7B
:10025800906F020E8F6F7FEC11F0020E05010A6F8E
:10026800020E75EC0EF0E806D8A43DEF01F03FEF62
:1002780001F051EF01F000016E51D8A446EF01F0F2
:1002880048EF01F053EF01F0010E6E6F020E050109
:100298000A6F0B6B0B8B53EF01F000016E6B0001C3
:1002A800986B9C6B0A0E9C25D96EDA6A050EDA22C9
:1002B8009C51830FE16EE26ADE50E618D8B467EF0E
:1002C80001F069EF01F06DEF01F0010E986F76EF24
:1002D80001F09C2B010E9C6574EF01F076EF01F0A4
:1002E80056EF01F09805D8A47CEF01F07EEF01F0FD
:1002F80091EF01F00AC583F00BC584F0010E8B6FF6
:100308000A0E8C6F050E8D6F020E8E6F010E79EC42
:1003180007F08BC069F08CC06AF00001715172114E
:10032800D8B499EF01F09BEF01F0A6EF01F071C08E
:10033800D9FF72C0DAFFDFBEA4EF01F0A6EF01F02B
:10034800B8EF01F017EC12F0000E00018B6F090EE8
:100358008C6F050E8D6F010E8E6F010E79EC07F014
:100368008BC071F08CC072F0120004012205D8A471
:10037800C0EF01F0C2EF01F0DBEF01F020511F0BDD
:100388000009D8A4CAEF01F0CCEF01F0DBEF01F0CF
:100398000A8E030E2119D8A4D4EF01F0D6EF01F08C
:1003A800DAEF01F0010E296EDBEF01F0296A225124
:1003B800D8A4E1EF01F0E3EF01F03BEF03F02051A7
:1003C8001F0B020AD8A4EBEF01F0EDEF01F03BEFB1
:1003D80003F024510F0B0009D8B4F5EF01F0F7EF43
:1003E80001F03BEF03F024510F0B466E020E4660FE
:1003F80000EF02F002EF02F03BEF03F0200E2C18A2
:10040800D8A409EF02F00BEF02F03BEF03F00A8EDD
:1004180024BF11EF02F013EF02F029EF02F024518C
:100428000F0B020DF350110FD96EDA6ADECF4BF0C5
:10043800DDCF4CF024510F0B466E4650150FD96E88
:10044800DA6ADF504A6E3DEF02F024510F0B020DBD
:10045800F3500D0FD96EDA6ADECF4BF0DDCF4CF0DA
:1004680024510F0B466E4650170FD96EDA6ADF50CB
:100478004A6E4AB042EF02F044EF02F04CEF02F04D
:10048800FB0E4B144B6EFF0E4C144C6E51EF02F0EA
:10049800040E4B104B6E4C504C6E24BF56EF02F0BE
:1004A80058EF02F065EF02F024510F0B020DF350E4
:1004B800110FD96EDA6A4BC0DEFF4CC0DDFF70EF5A
:1004C80002F024510F0B020DF3500D0FD96EDA6AAA
:1004D8004BC0DEFF4CC0DDFF030E2119D8A477EF17
:1004E80002F079EF02F0ABEF02F04BC0D9FF4CC03D
:1004F800DAFFDFAE82EF02F084EF02F09DEF02F048
:1005080024BF89EF02F08BEF02F095EF02F024513F
:100518000F0B466E4650150FD96EDA6ADF829DEFD3
:1005280002F024510F0B466E4650170FD96EDA6A47
:10053800DF824BC0D9FF4CC0DAFF000EDB844BC012
:10054800D9FF4CC0DAFF000EDB8E3BEF03F0040E40
:100558004B184B6E4C504C6E4BC0D9FF4CC0DAFF59
:10056800DFAEB9EF02F0BBEF02F0D7EF02F04BC0FD
:10057800D9FF4CC0DAFF7F0EDF164BC0D9FF4CC045
:10058800DAFF000EDB8C000E3F6E050E3E6E4BC090
:1005980040F04CC041F0000E436E020E426E8EECED
:1005A8000CF0DDEF02F04BC0D9FF4CC0DAFF000EB3
:1005B800DB8C040E4B184B6E4C504C6E4AB2E7EF76
:1005C80002F0E9EF02F0F4EF02F04BC0D9FF4CC0A3
:1005D800DAFFDFAEF2EF02F0F4EF02F024EF03F0FF
:1005E800040124BFFAEF02F0FCEF02F006EF03F07B
:1005F80024510F0B466E4650150FD96EDA6ADF92FA
:100608000EEF03F024510F0B466E4650170FD96EAC
:10061800DA6ADF924BC0D9FF4CC0DAFF3B0EDF1617
:10062800000E3F6E050E3E6E4BC040F04CC041F0D0
:10063800000E436E020E426E8EEC0CF02AEF03F0B1
:100648004BC0D9FF4CC0DAFF3B0EDF160401245122
:100658000F0B466E476A700E4624486E0F0E4720F1
:10066800496E48C0D9FF49C0DAFFFE0EDF161200F6
:100678002C04D8A442EF03F044EF03F050EF03F04A
:100688006DBA49EF03F04BEF03F050EF03F0686ADF
:1006980069806988020E2C6E68A455EF03F057EF45
:1006A80003F061EF03F069A45CEF03F05EEF03F081
:1006B80061EF03F068949CEC11F06DA266EF03F013
:1006C80068EF03F06BEF03F0A19A45EF04F068A020
:1006D80070EF03F072EF03F07FEF03F069A077EF9C
:1006E80003F079EF03F07FEF03F02CEC09F0A08A18
:1006F800040E2C6E689068A884EF03F086EF03F070
:100708008FEF03F069A88BEF03F08DEF03F08FEF05
:1007180003F0EFEC11F068AC94EF03F096EF03F000
:10072800C1EF03F069AC9BEF03F09DEF03F0ABEF73
:1007380003F0000E3F6E730E3E6E000E406E000E0C
:10074800416E000E436E010E426E8EEC0CF0689CFA
:10075800D5EC11F02550D8B4B4EF03F0B6EF03F0A0
:10076800B7EF03F025062550D8A4BDEF03F0BFEF7F
:1007780003F0C1EF03F0AEEC0BF068AAC6EF03F08C
:10078800C8EF03F0D1EF03F069AACDEF03F0CFEF84
:1007980003F0D1EF03F046EC10F068A2D6EF03F0B7
:1007A800D8EF03F0EDEF03F069A2DDEF03F0DFEF20
:1007B80003F0EDEF03F07F0E3F6E3E68000E406ED3
:1007C800000E416E000E436E010E426E8EEC0CF070
:1007D8006A6A040E2C60F3EF03F0F5EF03F0F8EF0C
:1007E80003F0A19A45EF04F069A6FDEF03F0FFEFCF
:1007F80003F044EF04F04F6A68A605EF04F007EF32
:1008080004F044EF04F06CCF2DF02D30E832E832DC
:100818000F0B276E68962DB414EF04F016EF04F052
:100828001DEF04F02750150FD96EDA6ADF7022EF3A
:1008380004F02750170FD96EDA6ADF702750D8A452
:1008480028EF04F02AEF04F02EEF04F0F8EC0CF097
:100858003BEF04F0000E3F6E720E3E6E2D0E406EA2
:10086800416A000E436E000E426E8EEC0CF04F2A69
:10087800030E4F6442EF04F044EF04F000EF04F07D
:10088800A19A120020EE01F01B50D9261C50DA2242
:10089800DF50346E3450045C000E0558D8B057EF62
:1008A80004F059EF04F05BEF04F004C034F0345066
:1008B800045E000E055A336A71EF04F0280E3324E3
:1008C800D96EDA6A040EDA2201C0E1FF02C0E2FF43
:1008D800DFCFE7FF014A022A332A3450335CD8A01D
:1008E80078EF04F07AEF04F062EF04F0045005109A
:1008F800D8B481EF04F083EF04F0BCEF04F020EEED
:1009080001F01950D9261A50DA22080EDF6E20EEAF
:1009180002F01950D9261A50DA22280EDE6E040E7B
:10092800DD6E1BC0D9FF1CC0DAFFDFBC9EEF04F0F0
:10093800A0EF04F0AEEF04F019C0D9FF1AC0DAFF37
:10094800480EDF6E19C0D9FF1AC0DAFF000EDB8E21
:10095800FDEF04F019C0D9FF1AC0DAFF080EDF6EE8
:1009680019C0D9FF1AC0DAFF000EDB8EFDEF04F0C4
:1009780020EE01F01950D9261A50DA22080EDF6E3F
:1009880020EE02F01950D9261A50DA22200EDE6E17
:10099800040EDD6E19C0D9FF1AC0DAFF040EDF6E2F
:1009A80019C0D9FF1AC0DAFF000EDB8E06500710F7
:1009B800D8B4E1EF04F0E3EF04F0F2EF04F020EE36
:1009C80006F002D8F2EF04F00500FA6EDE50FD6E74
:1009D800DE50FE6EF850FF6EFA501200039E24504F
:1009E800D8A4F9EF04F0FBEF04F0FDEF04F0AEEC4F
:1009F8000BF01200040120511F0BE806D8B407EFD2
:100A080005F009EF05F00BEF05F0A2EF05F0245112
:100A1800D8B411EF05F013EF05F015EF05F0A2EFCC
:100A280005F0060E2119D8A41CEF05F01EEF05F0FD
:100A38004FEF05F040EF05F02F04D8A426EF05F09E
:100A480028EF05F04FEF05F0B50E086E7F0E096E22
:100A5800000E0C6E090E0B6EC00E0A6E4FEF05F0FD
:100A6800070E086E7F0E096E000E0C6E680E0B6E78
:100A7800C00E0A6E4FEF05F02351210AD8B420EFBB
:100A880005F0030AD8B434EF05F0010AD8B44FEFE3
:100A980005F04FEF05F02039E832030BE806D8B42B
:100AA80058EF05F05AEF05F087EF05F0A2EF05F0D3
:100AB80039EC12F0A2EF05F08A0E086E096A000EF2
:100AC8000C6E010E0B6EC10E0A6EA2EF05F0800EC1
:100AD8000A6E23C48AF08AC030F0225147EC12F023
:100AE800A2EF05F0890E086E096A000E0C6E010E61
:100AF8000B6E810E0A6EA2EF05F0800E0A6E22C4FC
:100B080089F0A2EF05F02151010AD8B4A2EF05F04F
:100B1800030AD8B460EF05F0010AD8B476EF05F0FF
:100B28000A0AD8B45CEF05F0030AD8B46BEF05F0F5
:100B3800010AD8B481EF05F0A2EF05F01200800E8B
:100B480004012019D8A4ABEF05F0ADEF05F045EF8F
:100B580006F0C00E0A6E36EF06F0E80E086E7F0E3D
:100B6800096E000E0C6E120E0B6E45EF06F0225148
:100B7800D8A4C1EF05F0C3EF05F001EF06F022514C
:100B8800020D050EF324F66E7F0EF420F76E0900B1
:100B9800F5CF08F00A00F5CF09F0020E0824306EF0
:100BA800000E0920316E30C0F6FF31C0F7FFF86A39
:100BB800070EF76403D00800F55005D0F6CFE1FF23
:100BC800F7CFE2FFE7500B6E030E0824306E000EDD
:100BD8000920316E30C0F6FF31C0F7FFF86A070E02
:100BE800F76403D00800F55005D0F6CFE1FFF7CF42
:100BF800E2FFE7500C6E45EF06F00A6A45EF06F093
:100C0800030E22610AEF06F00CEF06F030EF06F053
:100C18002251020DFF0EF324F66E7E0EF420F76EBD
:100C28000900F5CF08F00A00F5CF09F008C0F6FF73
:100C380009C0F7FFF86A070EF76403D00800F550FB
:100C480005D0F6CFE1FFF7CFE2FFE750306E305026
:100C58000B6E0C6A45EF06F00A6A45EF06F00A6A61
:100C680045EF06F02351010AD8B4B1EF05F0030AA5
:100C7800D8B4BBEF05F0010AD8B404EF06F033EF9F
:100C880006F012006D980ABE4CEF06F04EEF06F023
:100C980091EF06F003AE53EF06F055EF06F065EF5F
:100CA80006F0020E2A6E2050D8A45DEF06F05FEF22
:100CB80006F061EF06F054EC0DF0226A236ADFEFCC
:100CC80006F020EE01F01950D9261A50DA22080E43
:100CD800DF6E20EE02F01950D9261A50DA22200EC3
:100CE800DE6E040EDD6E19C0D9FF1AC0DAFF0C0ED5
:100CF800DF6E19C0D9FF1AC0DAFF000EDB8E0DC0F7
:100D0800D9FF0EC0DAFF040EDF6E0DC0D9FF0EC08A
:100D1800DAFF000EDB8EDFEF06F0040120AF97EF5D
:100D280006F099EF06F0B3EF06F0010E2A6E215097
:100D3800D8A4A1EF06F0A3EF06F0A5EF06F054EC57
:100D48000DF0226A236A2450D8A4ADEF06F0AFEF65
:100D580006F0DFEF06F0AEEC0BF0DFEF06F0020E68
:100D68002A6E20EE01F01950D9261A50DA22080E00
:100D7800DF6E20EE02F01950D9261A50DA22200E22
:100D8800DE6E040EDD6E19C0D9FF1AC0DAFF040E3C
:100D9800DF6E19C0D9FF1AC0DAFF000EDB8E226A97
:100DA800236A2450D8A4DBEF06F0DDEF06F0DFEF6E
:100DB80006F0AFEF06F012000DC0D9FF0EC0DAFF43
:100DC800000EDFBC010E336E040E0D180D6E0E50B2
:100DD8000E6E080E2C18D8A4F4EF06F0F6EF06F005
:100DE80008EF07F0040122517F0B6E6E6E50D8B4E5
:100DF80000EF07F002EF07F006EF07F0100E2C6E79
:100E080008EF07F0040E2C6E2A04D8A40EEF07F0A2
:100E180010EF07F057EF07F020EE02F00D50D9263B
:100E28000E50DA22280EDE6E040EDD6EB4EC09F0E8
:100E3800020E2B18D8A423EF07F025EF07F033EFA5
:100E480007F00DC0D9FF0EC0DAFF040EDF6E0DC02B
:100E5800D9FF0EC0DAFF000EDB8E78EF07F03350B3
:100E6800D8A439EF07F03BEF07F049EF07F00DC0C2
:100E7800D9FF0EC0DAFF480EDF6E0DC0D9FF0EC0D5
:100E8800DAFF000EDB8E78EF07F00DC0D9FF0EC039
:100E9800DAFF080EDF6E0DC0D9FF0EC0DAFF000EB4
:100EA800DB8E78EF07F003AE5CEF07F05EEF07F03C
:100EB80077EF07F006500710D8B465EF07F067EF33
:100EC80007F076EF07F020EE06F002D876EF07F08D
:100ED8000500FA6EDE50FD6EDE50FE6EF850FF6EB5
:100EE800FA501200039E2A6A12000001936F000153
:100EF8008B51D8B482EF07F084EF07F090EF07F03A
:100F08009351020DF3500D0FD96EDA6ADECF94F0CB
:100F1800DDCF95F09AEF07F09351020DF350110FC2
:100F2800D96EDA6ADECF94F0DDCF95F09451951141
:100F3800D8A4A1EF07F0A3EF07F0A9EF07F0000E80
:100F48008B6F000E8C6F0DEF08F020EE02F09451BD
:100F5800D9269551DA228CC0DEFF8DC0DDFF20EE48
:100F680001F09451D9269551DA228EC0DFFF94C042
:100F7800D9FF95C0DAFF400EDF1694C0D9FF95C09F
:100F8800DAFF000EDB8694C0D9FF95C0DAFF000EA9
:100F9800DB8E8B51D8B4D3EF07F0D5EF07F0F0EF25
:100FA80007F09351020DF3500D0FD96EDA6ADECFB8
:100FB8008FF0DDCF90F0040E8F19916F9051926FE2
:100FC8009351020DF3500D0FD96EDA6A91C0DEFF0E
:100FD80092C0DDFF09EF08F09351020DF350110F95
:100FE800D96EDA6ADECF8FF0DDCF90F0040E8F195C
:100FF800916F9051926F9351020DF350110FD96E6A
:10100800DA6A91C0DEFF92C0DDFF94C08BF095C014
:101018008CF01200386E3050D8B415EF08F017EF86
:1010280008F023EF08F03850020DF3500D0FD96E79
:10103800DA6ADECF39F0DDCF3AF02DEF08F038501C
:10104800020DF350110FD96EDA6ADECF39F0DDCF19
:101058003AF039503A10D8A434EF08F036EF08F0D7
:101068003CEF08F0000E306E000E316EA0EF08F075
:1010780020EE02F03950D9263A50DA2231C0DEFF8C
:1010880032C0DDFF20EE01F03950D9263A50DA227D
:1010980033C0DFFF39C0D9FF3AC0DAFF400EDF1690
:1010A80039C0D9FF3AC0DAFF000EDB8639C0D9FF54
:1010B8003AC0DAFF000EDB8E3050D8B466EF08F085
:1010C80068EF08F083EF08F03850020DF3500D0F69
:1010D800D96EDA6ADECF34F0DDCF35F0040E34187D
:1010E800366E3550376E3850020DF3500D0FD96EED
:1010F800DA6A36C0DEFF37C0DDFF9CEF08F03850F3
:10110800020DF350110FD96EDA6ADECF34F0DDCF5D
:1011180035F0040E3418366E3550376E3850020DDF
:10112800F350110FD96EDA6A36C0DEFF37C0DDFF23
:1011380039C030F03AC031F01200A09A6A6A686A81
:10114800706A710E00018B6F0F0E8C6F000E8E6F20
:10115800000E8D6F000E906F010E8F6F7FEC11F0F7
:10116800160E6F6E9F0E6B6E7B0E696E0001936B91
:101178009351040D000EF324D96E040EF420DA6E98
:10118800DE6ADE6ADE6ADD6A932B070E9365CFEFAF
:1011980008F0D1EF08F0BCEF08F06D8C6E6A6D981E
:1011A8006D9C68960A6A036A000E056E000E046E4E
:1011B80068B6E1EF08F0E3EF08F0D5EF08F0010EAC
:1011C800236E010E226E216A206A286A0001936B41
:1011D8009351020DF3500D0FD96EDA6ADE6ADD6A9B
:1011E8009351020DF350110FD96EDA6ADE6ADD6A87
:1011F8009351170FD96EDA6ADF6A9351150FD96EBA
:10120800DA6ADF6A932B010E93650DEF09F00FEF91
:1012180009F0ECEF08F0080E0D6E040E0E6E160EB7
:10122800706E040E0401036F200E026F080E016F2A
:10123800040E006F008F2F6A000E0001756F000EFC
:10124800766F000E776F000E786F1F6A2C6A120097
:10125800A09A6A6A686A706A710E306E0F0E316EF3
:10126800000E336E000E326E000E356E010E346EB7
:10127800B9EC11F0160E6F6E9F0E6B6E7B0E696ED9
:10128800386A3850040D000EF324D96E040EF42089
:10129800DA6EDE6ADE6ADE6ADD6A382A070E3864CC
:1012A80058EF09F05AEF09F045EF09F06D8C6E6AB6
:1012B8006D986D9C68960A6A036A000E056E000EAA
:1012C800046E68B66AEF09F06CEF09F05EEF09F09A
:1012D800010E236E010E226E216A206A286A386A7E
:1012E8003850020DF3500D0FD96EDA6ADE6ADD6AE6
:1012F8003850020DF350110FD96EDA6ADE6ADD6AD2
:101308003850170FD96EDA6ADF6A3850150FD96E60
:10131800DA6ADF6A382A010E386495EF09F097EF28
:1013280009F074EF09F0080E0D6E040E0E6E160E1D
:10133800706E040E0401036F200E026F080E016F19
:10134800040E006F008F2F6A000E0001756F000EEB
:10135800766F000E776F000E786F1F6A2C6A120086
:10136800080E306E0C5007E1080E0B5CD8B0BFEFCA
:1013780009F0C1EF09F0D9EF09F00BC030F02B509C
:10138800D8A4C9EF09F0CBEF09F0CFEF09F0010EAF
:101398002B6ED9EF09F02B04D8A4D5EF09F0D7EFBD
:1013A80009F0D9EF09F0020E2B6E30500B5E000EDB
:1013B8000C5A20EE01F00D50D9260E50DA2230C01A
:1013C800DFFF280E0001796F040E7A6F0AB0EFEF85
:1013D80009F0F1EF09F033EF0AF00EEF0AF008C058
:1013E800F6FF09C0F7FFF86A79C0D9FF7AC0DAFFBB
:1013F800070EF76403D00800F55005D0F6CFE1FFDB
:10140800F7CFE2FFE750DF6E084A092A0001794B5F
:101418007A2B30063050D8A414EF0AF016EF0AF0F1
:10142800F3EF09F03BEF0AF008C0F6FF09C0F7FF39
:10143800F86A79C0D9FF7AC0DAFF070EF76403D0DB
:101448000800F55005D0F6CFE1FFF7CFE2FFE750EF
:10145800DF6E084A092A0001794B7A2B3006305092
:10146800D8A439EF0AF03BEF0AF018EF0AF012009F
:1014780004012039E832030B0009D8B446EF0AF01A
:1014880048EF0AF08DEF0AF0BCEF0AF00A8E080E5A
:101498002C6EBCEF0AF0A3EC05F0BCEF0AF024ECCC
:1014A8000CF0BCEF0AF02F0E086E096A0A80010ED4
:1014B8000B6E0A8EBCEF0AF037EC0BF0BCEF0AF0AB
:1014C800B9EC01F0BCEF0AF024512E0F4D6E4DC05F
:1014D80008F0096A0A80010E0B6E0A8EBCEF0AF04A
:1014E8000A8E24512E0FD96EDA6A22C4DFFFBCEFB0
:1014F8000AF0000E3F6E020E3E6E000E406E000EA9
:10150800416E000E436E000E426E8EEC0CF0BCEF86
:101518000AF02151000AD8B460EF0AF0010AD8B4E1
:1015280064EF0AF0020AD8B464EF0AF0060AD8B4E5
:101538004AEF0AF0030AD8B44FEF0AF0010AD8B408
:101548007DEF0AF00F0AD8B457EF0AF0010AD8B4B1
:1015580053EF0AF0030AD8B468EF0AF0010AD8B4C6
:1015680074EF0AF0070AD8B4BCEF0AF0BCEF0AF02F
:1015780012006DA2C2EF0AF0C4EF0AF023EF0BF0DD
:10158800010E15EC10F036EF0BF01D041E10D8A458
:10159800D0EF0AF0D2EF0AF0D7EF0AF0010EE4EC30
:1015A8000FF034EF0BF04B0E1D181E10D8A4DFEF10
:1015B8000AF0E1EF0AF0E6EF0AF0010E15EC10F080
:1015C80034EF0BF01E5009E1970E1D5CD8A0EFEF29
:1015D8000AF0F1EF0AF0F7EF0AF0000E1E6E000EA7
:1015E8001D6E34EF0BF034EF0BF01D041E10D8A461
:1015F80000EF0BF002EF0BF007EF0BF0010EE4EC3D
:101608000FF034EF0BF0320E1D181E10D8A40FEF98
:101618000BF011EF0BF016EF0BF0010E15EC10F0BC
:1016280034EF0BF0B70E1D5C030E1E58D8A01FEF49
:101638000BF021EF0BF034EF0BF0F1EF0AF02C5028
:10164800336E346A3450000AD8B42DEF0BF0F9EF3A
:101658000AF03350200AD8B4C9EF0AF0F9EF0AF0BB
:101668001D4A1E2A12000401286B296B8FEF0BF00C
:101678000A8E2904D8A443EF0BF045EF0BF09FEF37
:101688000BF028839FEF0BF00A8E9FEF0BF00A8E6A
:1016980024510F0B0009D8B454EF0BF056EF0BF0A0
:1016A8009FEF0BF024BF5BEF0BF05DEF0BF06AEFE1
:1016B8000BF024510F0B020DF350110FD96EDA6A9B
:1016C800DECF30F0DDCF31F075EF0BF024510F0B8A
:1016D800020DF3500D0FD96EDA6ADECF30F0DDCF90
:1016E80031F030C0D9FF31C0DAFFDFAE7EEF0BF04A
:1016F80080EF0BF09FEF0BF030C0D9FF31C0DAFF5D
:10170800DFA489EF0BF08BEF0BF09FEF0BF0010ECE
:10171800286F9FEF0BF020511F0B000AD8B43CEF45
:101728000BF0010AD8B448EF0BF0030AD8B44BEF1A
:101738000BF09FEF0BF00AAEA4EF0BF0A6EF0BF047
:10174800ADEF0BF0280E086E040E096E0A80020E2B
:101758000B6E12002350D8A4B4EF0BF0B6EF0BF0C9
:1017680023EF0CF0010E236E2250D8A4BEEF0BF02D
:10177800C0EF0BF023EF0CF0010E226E020E2A18B8
:10178800D8A4C9EF0BF0CBEF0BF0E0EF0BF020EE95
:1017980001F00D50D9260E50DA22DF6A0DC0D9FFAC
:1017A8000EC0DAFF480EDF6E0DC0D9FF0EC0DAFF9B
:1017B800000EDB8E23EF0CF02A04D8A4E6EF0BF022
:1017C800E8EF0BF023EF0CF0266A20EE01F01B5037
:1017D800D9261C50DA22080EDF6E20EE02F01B50CC
:1017E800D9261C50DA22200EDE6E040EDD6E1BC0D8
:1017F800D9FF1CC0DAFF040EDF6E1BC0D9FF1CC066
:10180800DAFF000EDB8E010E266E20EE01F0195075
:10181800D9261A50DA22080EDF6E20EE02F019508F
:10182800D9261A50DA22200EDE6E040EDD6E19C09B
:10183800D9FF1AC0DAFF800EDF6E23EF0CF012001A
:101848000A8E710E306E0F0E316E000E336E000E62
:10185800326E000E356E010E346EB9EC11F0000ECA
:10186800306E040E316E000E336E000E326E000EB6
:10187800356E200E346EB9EC11F06D8C466A465008
:10188800170FD96EDA6ADF6A4650150FD96EDA6A11
:10189800DF6A462A010E466454EF0CF056EF0CF04E
:1018A80043EF0CF02E0E306E316A000E336E000ED0
:1018B800326E000E356E010E346EB9EC11F06D9C6F
:1018C800080E0D6E040E0E6E000E1B6E040E1C6EBE
:1018D8001BC019F01CC01AF022C42FF02F50D8A436
:1018E80078EF0CF07AEF0CF07EEF0CF0100E2C6E07
:1018F8008DEF0CF0000E3F6E010E3E6E2F0E406E07
:10190800416A000E436E010E426E8EEC0CF0200E02
:101918002C6E1200BEEF0CF0BDEC0AF00001852918
:1019280009E17F0E8619D8B49CEF0CF09EEF0CF0FD
:10193800A2EF0CF0854B862BF7EF0CF0000E866FAC
:10194800000E856FF7EF0CF0BDEC0AF0010EC8EC45
:1019580010F0F7EF0CF0BDEC0AF0020EC8EC10F036
:10196800F7EF0CF03BEC0EF0F7EF0CF0FEEC04F0A8
:10197800F7EF0CF03EC044F03FC045F04550000A78
:10198800D8B4CDEF0CF07F0AD8B4F0EF0CF0F7EF35
:101998000CF04450010AD8B4B6EF0CF0030AD8B4DE
:1019A800F7EF0CF0010AD8B4BAEF0CF0060AD8B475
:1019B800F7EF0CF0770AD8B4F7EF0CF0010AD8B4B7
:1019C80090EF0CF0070AD8B4AFEF0CF0010AD8B4C6
:1019D800A8EF0CF0F7EF0CF04450FF0AD8B4F7EF7B
:1019E8000CF0F7EF0CF012002D0E256E2DC04EF006
:1019F800FD0E4E16D8A403EF0DF005EF0DF047EFDE
:101A08000DF02DC04EF0D8904E323F0E4E164E506F
:101A1800040D000EF3241B6E040EF4201C6E1BC074
:101A280019F01CC01AF0040E1918196E1A501A6E03
:101A38001BC0D9FF1CC0DAFFDF30E8320F0B0D0ADC
:101A4800D8A429EF0DF02BEF0DF043EF0DF0200E89
:101A5800306E040E316E20EE02F01B50D9261C5059
:101A6800DA22DECF32F0DDCF33F0000E356E080E0D
:101A7800346EA0EC10F0FCEC0DF053EF0DF0ADEC73
:101A88000EF053EF0DF02D50FD0B040AD8A44FEFC4
:101A98000DF051EF0DF053EF0DF0E0EC06F01200F1
:101AA800216A206A020E2A18D8A45DEF0DF05FEFB4
:101AB8000DF07FEF0DF020EE01F01950D9261A50E5
:101AC800DA22080EDF6E20EE02F01950D9261A50DD
:101AD800DA22280EDE6E040EDD6E19C0D9FF1AC098
:101AE800DAFF480EDF6E19C0D9FF1AC0DAFF000E00
:101AF800DB8EA7EF0DF00B500401265D0C50275923
:101B0800D8B089EF0DF08BEF0DF08FEF0DF026C4F4
:101B18000BF027C40CF0B4EC09F020EE02F00D50E5
:101B2800D9260E50DA22280EDE6E040EDD6E0DC0A8
:101B3800D9FF0EC0DAFF480EDF6E0DC0D9FF0EC008
:101B4800DAFF000EDB8E1200376E000E386E040EC0
:101B5800396E3050316E326AD8903136323637505D
:101B6800336E346AD89033363436D89033363436B8
:101B780031503324356E32503420366ED890353695
:101B88003636D890353636363550382636503922DE
:101B980038C0D9FF39C0DAFFDF9E3050D8A4D7EF5C
:101BA8000DF0D9EF0DF0E5EF0DF03750020DF350C1
:101BB800110FD96EDA6A38C0DEFF39C0DDFFEFEFEA
:101BC8000DF03750020DF3500D0FD96EDA6A38C098
:101BD800DEFF39C0DDFF38C0D9FF39C0DAFFDF9C2E
:101BE80020EE04F03850D9263950DA22DF8C120062
:101BF8002B6A246A216A206A266A2A6A0DC0D9FFDC
:101C08000EC0DAFF7F0EDF16040E0D180D6E0E5093
:101C18000E6E0DC0D9FF0EC0DAFF7F0EDF16040E60
:101C28000D180D6E0E500E6E19C0D9FF1AC0DAFFCE
:101C38007F0EDF160A6A000E0C6E000E0B6E036A2A
:101C4800000E056E000E046E3CEC0AF0000E3F6EAE
:101C5800030E3E6E000E406E000E416E000E436E87
:101C6800000E426E8EEC0CF046EC06F01200000EF0
:101C780000016F6F000E706F000E7B6F000E7C6F9F
:101C8800040E736F746B876B6D6B6E6B000E826FD7
:101C9800000E816F54EF0EF085C07DF086C07EF097
:101CA80085517D1907E186517E19D8A45EEF0EF0A3
:101CB80060EF0EF050EF0EF01E0E3A6E010EF0ECD3
:101CC80010F0000E306E090E316E050E326E010EE8
:101CD800336E010E0EEC08F030C071F031C072F0B6
:101CE800120000018D6F92EF0EF081A87EEF0EF0CA
:101CF80081EF0EF0010E82EF0EF0000EACEF0EF049
:101D080081AA89EF0EF08CEF0EF0010E8DEF0EF028
:101D1800000EACEF0EF0000EACEF0EF000018D518E
:101D28008B6F8C6B8C51000AD8B49DEF0EF08FEF3F
:101D38000EF08B51000AD8B48FEF0EF0010AD8B418
:101D480079EF0EF0030AD8B484EF0EF08FEF0EF09F
:101D58001200020E2A18D8A4B4EF0EF0B6EF0EF057
:101D6800BAEF0EF046EC04F0E4EF0EF02A6A2650C3
:101D7800D8A4C1EF0EF0C3EF0EF0E3EF0EF020EEA3
:101D880001F01950D9261A50DA22080EDF6E20EE1B
:101D980002F01950D9261A50DA22200EDE6E040EEF
:101DA800DD6E19C0D9FF1AC0DAFF0C0EDF6E19C03C
:101DB800D9FF1AC0DAFF000EDB8EE4EF0EF0266AB8
:101DC80012000600FACF50F0FBCF51F0E1CF52F0ED
:101DD800E2CF53F0D9CF54F0DACF55F0F3CF56F025
:101DE800F4CF57F0F6CF58F0F7CF59F0F8CF5AF0B4
:101DF800F5CF5BF03CEC03F05BC0F5FF5AC0F8FF91
:101E080059C0F7FF58C0F6FF57C0F4FF56C0F3FF9C
:101E180055C0DAFF54C0D9FF53C0E2FF52C0E1FFFA
:101E280051C0FBFF50C0FAFF5C92110000018D6F9A
:101E38002AEF0FF095964CEF0FF095924CEF0FF0BC
:101E480095944CEF0FF095964CEF0FF000018D51E3
:101E58008B6F8C6B8C51000AD8B435EF0FF04CEFB8
:101E68000FF08B51000AD8B44CEF0FF0010AD8B428
:101E78001EEF0FF0030AD8B421EF0FF0010AD8B40F
:101E880024EF0FF0070AD8B427EF0FF04CEF0FF04C
:101E9800120000018D6F5DEF0FF08C867FEF0FF061
:101EA8008C827FEF0FF08C847FEF0FF08C867FEFB2
:101EB8000FF000018D518B6F8C6B8C51000AD8B4D8
:101EC80068EF0FF07FEF0FF08B51000AD8B47FEF67
:101ED8000FF0010AD8B451EF0FF0030AD8B454EF49
:101EE8000FF0010AD8B457EF0FF0070AD8B45AEF29
:101EF8000FF07FEF0FF0120000018D6F90EF0FF0E1
:101F08008C96B2EF0FF08C92B2EF0FF08C94B2EF88
:101F18000FF08C96B2EF0FF000018D518B6F8C6B28
:101F28008C51000AD8B49BEF0FF0B2EF0FF08B5131
:101F3800000AD8B4B2EF0FF0010AD8B484EF0FF05A
:101F4800030AD8B487EF0FF0010AD8B48AEF0FF06C
:101F5800070AD8B48DEF0FF0B2EF0FF01200326E0F
:101F6800C2EF0FF09596E3EF0FF09592E3EF0FF0C5
:101F78009594E3EF0FF09596E3EF0FF03250306E43
:101F8800316A3150000AD8B4CCEF0FF0E3EF0FF00C
:101F98003050000AD8B4E3EF0FF0010AD8B4B6EF16
:101FA8000FF0030AD8B4B9EF0FF0010AD8B4BCEFA8
:101FB8000FF0070AD8B4BFEF0FF0E3EF0FF01200ED
:101FC800326EF3EF0FF08C8614EF10F08C8214EF62
:101FD80010F08C8414EF10F08C8614EF10F032504F
:101FE800306E316A3150000AD8B4FDEF0FF014EFAB
:101FF80010F03050000AD8B414EF10F0010AD8B429
:10200800E7EF0FF0030AD8B4EAEF0FF0010AD8B4EB
:10201800EDEF0FF0070AD8B4F0EF0FF014EF10F05F
:102028001200326E24EF10F08C9645EF10F08C926F
:1020380045EF10F08C9445EF10F08C9645EF10F0BA
:102048003250306E316A3150000AD8B42EEF10F099
:1020580045EF10F03050000AD8B445EF10F0010AEF
:10206800D8B418EF10F0030AD8B41BEF10F0010A27
:10207800D8B41EEF10F0070AD8B421EF10F045EFDE
:1020880010F0120070A04BEF10F04DEF10F074EF4D
:1020980010F01BC0D9FF1CC0DAFF800EDE18D8A4D0
:1020A80058EF10F05AEF10F073EF10F00DC0D9FF91
:1020B8000EC0DAFF840EDE18D8A465EF10F067EFC3
:1020C80010F073EF10F01BC0D9FF1CC0DAFF0C0E24
:1020D800DF6E1BC0D9FF1CC0DAFF000EDB8E7090CC
:1020E800689A12000001906F85EF10F0010E1AEC4B
:1020F8000FF0020E1AEC0FF0010E16EC11F09FEF24
:1021080010F0000190518E6F8F6B8F51000AD8B478
:1021180090EF10F09FEF10F08E51000AD8B47AEFCC
:1021280010F0010AD8B49FEF10F0030AD8B49FEF5B
:1021380010F09FEF10F0120032C038F033C039F0C1
:1021480030C036F031C037F0BAEF10F038C0D9FFE0
:1021580039C0DAFFDF503A6E384A392A36C0D9FF1B
:1021680037C0DAFF3AC0DFFF364A372A3406D8A02C
:102178003506342806E13528D8A4C5EF10F0C7EF96
:1021880010F0AAEF10F01200356ED6EF10F0010E25
:10219800B3EC0FF0020EB3EC0FF0010E3BEC11F0B4
:1021A800EFEF10F03550336E346A3450000AD8B46B
:1021B800E0EF10F0EFEF10F03350000AD8B4CBEF97
:1021C80010F0010AD8B4EFEF10F0030AD8B4EFEF1B
:1021D80010F0EFEF10F012003D6E3AA4F6EF10F099
:1021E800F8EF10F0FDEF10F0000E306E3D50A8EC47
:1021F8000DF03AA202EF11F004EF11F009EF11F01F
:10220800010E306E3D50A8EC0DF0700E3D243B6E73
:102218003C6A0F0E3C223BC0D9FF3CC0DAFF3AC0F3
:10222800DFFF120000018D6F20EF11F093883AEF65
:1022380011F0938A3AEF11F000018D518B6F8C6B7E
:102248008C51000AD8B42BEF11F03AEF11F08B51F2
:10225800000AD8B43AEF11F0010AD8B41AEF11F015
:10226800030AD8B41DEF11F03AEF11F01200326EE4
:1022780044EF11F093885DEF11F0938A5DEF11F050
:102288003250306E316A3150000AD8B44EEF11F036
:102298005DEF11F03050000AD8B45DEF11F0010A7B
:1022A800D8B43EEF11F0030AD8B441EF11F05DEF56
:1022B80011F012002C50D8A464EF11F066EF11F061
:1022C8007EEF11F06D6A696A160E6F6E9F0E6B6E67
:1022D8007B0E696ED08EA28AA08AF28E75EF11F0FD
:1022E8006D866DA67AEF11F07CEF11F074EF11F0A6
:1022F800010E2C6E12008BC091F08CC092F08DEF05
:1023080011F091C0D9FF92C0DAFF8DC0DFFF914B69
:10231800922B00018F07D8A090078F2906E19029FA
:10232800D8A499EF11F09BEF11F085EF11F012008E
:10233800286A000E3F6E740E3E6E000E406E000E50
:10234800416E000E436E000E426E8EEC0CF06D92E4
:102358006994B0EF11F0689468B4B5EF11F0B7EF75
:1023680011F0AFEF11F01F6A120030C036F031C023
:1023780037F0C7EF11F036C0D9FF37C0DAFF32C0E7
:10238800DFFF364A372A3406D8A03506342806E156
:102398003528D8A4D2EF11F0D4EF11F0BFEF11F027
:1023A8001200010E00017527000E7623772378238B
:1023B8002850D8A4E2EF11F0E4EF11F0EEEF11F09D
:1023C8001F2A1F50D8A4EBEF11F0EDEF11F0EEEF3C
:1023D80011F01F681200698468986D82010E286EDA
:1023E8001F6A000E3F6E750E3E6E000E406E000EA8
:1023F800416E000E436E000E426E8EEC0CF0120021
:1024080000EE60F02B0EEE6AE806FDE100EE01F04A
:102418002F0EEE6AE806FDE15C905C92000EF86E05
:10242800000155EF12F0050109A31DEF12F01FEF8F
:1024380012F024EF12F0020E4DEC0FF027EF12F01D
:10244800020E80EC0FF01200050109A32EEF12F026
:1024580030EF12F035EF12F0020EE4EC0FF038EF27
:1024680012F0020E15EC10F01200280E016E040E88
:10247800026E000E056E080E046EC40E066E240E63
:10248800076E038E1200316E3150D8A44EEF12F051
:1024980050EF12F054EF12F030C081F00001826B5F
:1024A8001200000E76EC10F0A1EC08F05EEC11F0D2
:1024B80009EC00F05CEF12F007EF00F028C409F512
:0624C80028EC12F01200E6
:107EFE0000FA7F6F7FCC7FA37F05010906A1018564
:107F0E0001050719E029E71500250175019508817E
:107F1E00029501750881039505750105081901295A
:107F2E0005910295017503910395067508150025B7
:107F3E00650507190029658100C0050C0901A1011D
:107F4E008502050C150025017501950709B509B6C1
:107F5E0009B709CD09E209E909EA81029501810112
:107F6E00C034034D006900630072006F0063006847
:107F7E000069007000200054006500630068006E08
:107F8E00006F006C006F0067007900200049006EE2
:107F9E000063002E0009022900010100C03209040D
:107FAE0000000203010100092111010001226800F5
:107FBE0007058103090001070501030100011C03E8
:107FCE0056006F006C0075006D006500000000002B
:107FDE00000000000000000000001201000200007E
:107FEE000008D80455000100010200010403090431
:017FFE000082
:020000040030CA
:0E000000240E3F1EFF8181FF0FC00FE00F4056
:00000001FF
