:0400000007EF00F016
:100008005C8252ED0FF0B3EF12F0200E2C600FEF70
:1000180000F011EF00F013EF00F0BCEF01F0FCEC82
:100028000CF06DA21AEF00F01CEF00F025EF00F0C5
:10003800020EE2EC0EF0BCEF01F085C07FF086C046
:1000480080F0000185517F1907E186518019D8A4F5
:1000580030EF00F032EF00F021EF00F07D517F5DCE
:100068009F6F7E518059A06FA0BF3FEF00F03DEF1A
:1000780000F04BEF00F07D517F5D9A6F7E51805903
:100088009B6FFF0E9A259F6F7F0E9B21A06FA0BFCD
:1000980057EF00F0890E9F5D130EA059D8A057EFB7
:1000A80000F059EF00F05FEF00F0780E7F257D6FCC
:1000B800EC0E80217E6F6F517011D8B466EF00F09E
:1000C80068EF00F073EF00F06FC0D9FF70C0DAFF7F
:1000D800DFBE71EF00F073EF00F095EF01F0000E56
:1000E8008F6F050E906F000E926F000E916F000ECD
:1000F800946F090E936F2EEC12F0010E0501006F3C
:10010800010EE2EC0EF0E806D8A48DEF00F08FEFB8
:1001180000F0AEEF00F000017451D8A496EF00F0A3
:1001280098EF00F0B0EF00F0010E746F010E0501BA
:10013800006F73C003F50001732B280E7319D8A440
:10014800A8EF00F0AAEF00F0B0EF00F0040E736F14
:10015800B0EF00F00001746B9D6BA16B000EA12540
:10016800D96EDA6A050EDA22A151600FE16EE26AF1
:10017800DE50E618D8B4C3EF00F0C5EF00F0C9EFC1
:1001880000F0010E9D6FD2EF00F0A12B080EA165C3
:10019800D0EF00F0D2EF00F0B2EF00F08151821101
:1001A800D8B4D9EF00F0DBEF00F0ECEF00F08151AC
:1001B8009F5DA051800A9A6F8251800A9A59D8A0EF
:1001C800E8EF00F0EAEF00F0ECEF00F0010E9D6FB1
:1001D8009D05D8A4F2EF00F0F4EF00F010EF01F065
:1001E80025EE00F010EE60F0080EDBCFE3FFE80626
:1001F800FCE2010E8F6F000E906F050E916F090ED5
:10020800926F010E7DEC07F08FC06FF090C070F018
:100218007FC07DF080C07EF0000169516A11D8B4BA
:1002280018EF01F01AEF01F025EF01F069C0D9FFCE
:100238006AC0DAFFDFBE23EF01F025EF01F095EF8A
:1002480001F00A0E8F6F050E906F000E926F000E70
:10025800916F000E946F020E936F2EEC12F0020E47
:1002680005010A6FCBEC11F000019E6F9E05D8A422
:1002780040EF01F042EF01F049EF01F0020E0501F5
:100288000A6F0B6B0B8B57EF01F0020E9E19D8A467
:1002980050EF01F052EF01F057EF01F0020E0501A7
:1002A8000A6F0B6B0B8D00019C6BA16B0A0EA125CD
:1002B800D96EDA6A050EDA22A151830FE16EE26A7D
:1002C800DE50E618D8B46BEF01F06DEF01F071EF76
:1002D80001F0010E9C6F7AEF01F0A12B010EA165D0
:1002E80078EF01F07AEF01F05AEF01F09C05D8A4FD
:1002F80080EF01F082EF01F095EF01F00AC583F07D
:100308000BC584F0010E8F6F0A0E906F050E916F6A
:10031800020E926F010E7DEC07F08FC069F090C05D
:100328006AF0000171517211D8B49DEF01F09FEF8E
:1003380001F0AAEF01F071C0D9FF72C0DAFFDFBE89
:10034800A8EF01F0AAEF01F0BCEF01F0C6EC12F043
:10035800000E00018F6F090E906F050E916F010E50
:10036800926F010E7DEC07F08FC071F090C072F0B3
:10037800120004012205D8A4C4EF01F0C6EF01F071
:10038800DFEF01F020511F0B0009D8A4CEEF01F0D8
:10039800D0EF01F0DFEF01F00A8E030E2119D8A487
:1003A800D8EF01F0DAEF01F0DEEF01F0010E296E6F
:1003B800DFEF01F0296A2251D8A4E5EF01F0E7EF59
:1003C80001F03FEF03F020511F0B020AD8A4EFEF12
:1003D80001F0F1EF01F03FEF03F024510F0B00099A
:1003E800D8B4F9EF01F0FBEF01F03FEF03F024512F
:1003F8000F0B466E020E466004EF02F006EF02F0A5
:100408003FEF03F0200E2C18D8A40DEF02F00FEFE9
:1004180002F03FEF03F00A8E24BF15EF02F017EF4A
:1004280002F02DEF02F024510F0B020DF350110FC3
:10043800D96EDA6ADECF4BF0DDCF4CF024510F0BCA
:10044800466E4650150FD96EDA6ADF504A6E41EF94
:1004580002F024510F0B020DF3500D0FD96EDA6A1A
:10046800DECF4BF0DDCF4CF024510F0B466E4650DB
:10047800170FD96EDA6ADF504A6E4AB046EF02F0BB
:1004880048EF02F050EF02F0FB0E4B144B6EFF0EDC
:100498004C144C6E55EF02F0040E4B104B6E4C5042
:1004A8004C6E24BF5AEF02F05CEF02F069EF02F0E5
:1004B80024510F0B020DF350110FD96EDA6A4BC09D
:1004C800DEFF4CC0DDFF74EF02F024510F0B020D6C
:1004D800F3500D0FD96EDA6A4BC0DEFF4CC0DDFF5A
:1004E800030E2119D8A47BEF02F07DEF02F0AFEFE5
:1004F80002F04BC0D9FF4CC0DAFFDFAE86EF02F046
:1005080088EF02F0A1EF02F024BF8DEF02F08FEF29
:1005180002F099EF02F024510F0B466E4650150F6A
:10052800D96EDA6ADF82A1EF02F024510F0B466E12
:100538004650170FD96EDA6ADF824BC0D9FF4CC01C
:10054800DAFF000EDB844BC0D9FF4CC0DAFF000E87
:10055800DB8E3FEF03F0040E4B184B6E4C504C6E85
:100568004BC0D9FF4CC0DAFFDFAEBDEF02F0BFEFE2
:1005780002F0DBEF02F04BC0D9FF4CC0DAFF7F0E70
:10058800DF164BC0D9FF4CC0DAFF000EDB8C000E23
:100598003F6E050E3E6E4BC040F04CC041F0000E61
:1005A800436E020E426E92EC0CF0E1EF02F04BC08B
:1005B800D9FF4CC0DAFF000EDB8C040E4B184B6ED3
:1005C8004C504C6E4AB2EBEF02F0EDEF02F0F8EF50
:1005D80002F04BC0D9FF4CC0DAFFDFAEF6EF02F0F5
:1005E800F8EF02F028EF03F0040124BFFEEF02F059
:1005F80000EF03F00AEF03F024510F0B466E46504C
:10060800150FD96EDA6ADF9212EF03F024510F0B3F
:10061800466E4650170FD96EDA6ADF924BC0D9FF83
:100628004CC0DAFF3B0EDF16000E3F6E050E3E6E25
:100638004BC040F04CC041F0000E436E020E426EBB
:1006480092EC0CF02EEF03F04BC0D9FF4CC0DAFF50
:100658003B0EDF16040124510F0B466E476A700EDD
:100668004624486E0F0E4720496E48C0D9FF49C03E
:10067800DAFFFE0EDF1612002C04D8A446EF03F0B2
:1006880048EF03F054EF03F06DBA4DEF03F04FEF6E
:1006980003F054EF03F0686A69806988020E2C6ED3
:1006A80068A459EF03F05BEF03F065EF03F069A46A
:1006B80060EF03F062EF03F065EF03F068944BEC32
:1006C80012F06DA26AEF03F06CEF03F06FEF03F026
:1006D800A19A49EF04F068A074EF03F076EF03F0F5
:1006E80083EF03F069A07BEF03F07DEF03F083EF66
:1006F80003F030EC09F0A08A040E2C6E689068A80C
:1007080088EF03F08AEF03F093EF03F069A88FEF07
:1007180003F091EF03F093EF03F09EEC12F068AC56
:1007280098EF03F09AEF03F0C5EF03F069AC9FEF81
:1007380003F0A1EF03F0AFEF03F0000E3F6E730E6E
:100748003E6E000E406E000E416E000E436E010EAE
:10075800426E92EC0CF0689C84EC12F02550D8B4F0
:10076800B8EF03F0BAEF03F0BBEF03F0250625500E
:10077800D8A4C1EF03F0C3EF03F0C5EF03F0B2EC68
:100788000BF068AACAEF03F0CCEF03F0D5EF03F043
:1007980069AAD1EF03F0D3EF03F0D5EF03F0B3EC80
:1007A80010F068A2DAEF03F0DCEF03F0F1EF03F0EA
:1007B80069A2E1EF03F0E3EF03F0F1EF03F07F0E3E
:1007C8003F6E3E68000E406E000E416E000E436E96
:1007D800010E426E92EC0CF06A6A040E2C60F7EF80
:1007E80003F0F9EF03F0FCEF03F0A19A49EF04F0EE
:1007F80069A601EF04F003EF04F048EF04F04F6A34
:1008080068A609EF04F00BEF04F048EF04F06CCF92
:100818002DF02D30E832E8320F0B276E68962DB494
:1008280018EF04F01AEF04F021EF04F02750150F29
:10083800D96EDA6ADF7026EF04F02750170FD96EE9
:10084800DA6ADF702750D8A42CEF04F02EEF04F0FA
:1008580032EF04F063EC0DF03FEF04F0000E3F6E52
:10086800720E3E6E2D0E406E416A000E436E000EF3
:10087800426E92EC0CF04F2A030E4F6446EF04F0E0
:1008880048EF04F004EF04F0A19A120020EE01F002
:100898001B50D9261C50DA22DF50346E3450045CC9
:1008A800000E0558D8B05BEF04F05DEF04F05FEF81
:1008B80004F004C034F03450045E000E055A336A64
:1008C80075EF04F0280E3324D96EDA6A040EDA22A2
:1008D80001C0E1FF02C0E2FFDFCFE7FF014A022AC1
:1008E800332A3450335CD8A07CEF04F07EEF04F058
:1008F80066EF04F004500510D8B485EF04F087EFD4
:1009080004F0C0EF04F020EE01F01950D9261A5077
:10091800DA22080EDF6E20EE02F01950D9261A509E
:10092800DA22280EDE6E040EDD6E1BC0D9FF1CC055
:10093800DAFFDFBCA2EF04F0A4EF04F0B2EF04F09A
:1009480019C0D9FF1AC0DAFF480EDF6E19C0D9FFE7
:100958001AC0DAFF000EDB8E01EF05F019C0D9FFCF
:100968001AC0DAFF080EDF6E19C0D9FF1AC0DAFF05
:10097800000EDB8E01EF05F020EE01F01950D926AC
:100988001A50DA22080EDF6E20EE02F01950D9262E
:100998001A50DA22200EDE6E040EDD6E19C0D9FF61
:1009A8001AC0DAFF040EDF6E19C0D9FF1AC0DAFFC9
:1009B800000EDB8E06500710D8B4E5EF04F0E7EF21
:1009C80004F0F6EF04F020EE06F002D8F6EF04F09B
:1009D8000500FA6EDE50FD6EDE50FE6EF850FF6EBA
:1009E800FA501200039E2450D8A4FDEF04F0FFEF44
:1009F80004F001EF05F0B2EC0BF0120004012051F5
:100A08001F0BE806D8B40BEF05F00DEF05F00FEF5C
:100A180005F0A6EF05F02451D8B415EF05F017EF4F
:100A280005F019EF05F0A6EF05F0060E2119D8A478
:100A380020EF05F022EF05F053EF05F044EF05F045
:100A48002F04D8A42AEF05F02CEF05F053EF05F09A
:100A5800B50E086E7F0E096E000E0C6E090E0B6E39
:100A6800C00E0A6E53EF05F0070E086E7F0E096E72
:100A7800000E0C6E680E0B6EC00E0A6E53EF05F07A
:100A88002351210AD8B424EF05F0030AD8B438EF6B
:100A980005F0010AD8B453EF05F053EF05F02039FB
:100AA800E832030BE806D8B45CEF05F05EEF05F01A
:100AB8008BEF05F0A6EF05F0E8EC12F0A6EF05F0D5
:100AC8008E0E086E096A000E0C6E010E0B6EC10EBA
:100AD8000A6EA6EF05F0800E0A6E23C48EF08EC053
:100AE80030F02251F6EC12F0A6EF05F08D0E086EEC
:100AF800096A000E0C6E010E0B6E810E0A6EA6EFCF
:100B080005F0800E0A6E22C48DF0A6EF05F0215183
:100B1800010AD8B4A6EF05F0030AD8B464EF05F0CB
:100B2800010AD8B47AEF05F00A0AD8B460EF05F0E4
:100B3800030AD8B46FEF05F0010AD8B485EF05F0C1
:100B4800A6EF05F01200800E04012019D8A4AFEF1B
:100B580005F0B1EF05F049EF06F0C00E0A6E3AEF66
:100B680006F0E80E086E7F0E096E000E0C6E120E6F
:100B78000B6E49EF06F02251D8A4C5EF05F0C7EF78
:100B880005F005EF06F02251020D050EF324F66E6E
:100B98007F0EF420F76E0900F5CF08F00A00F5CFB4
:100BA80009F0020E0824306E000E0920316E30C0A4
:100BB800F6FF31C0F7FFF86A070EF76403D00800A4
:100BC800F55005D0F6CFE1FFF7CFE2FFE7500B6E07
:100BD800030E0824306E000E0920316E30C0F6FF77
:100BE80031C0F7FFF86A070EF76403D00800F55024
:100BF80005D0F6CFE1FFF7CFE2FFE7500C6E49EFE3
:100C080006F00A6A49EF06F0030E22610EEF06F0BD
:100C180010EF06F034EF06F02251020DFF0EF32418
:100C2800F66E7E0EF420F76E0900F5CF08F00A0084
:100C3800F5CF09F008C0F6FF09C0F7FFF86A070EFC
:100C4800F76403D00800F55005D0F6CFE1FFF7CFE1
:100C5800E2FFE750306E30500B6E0C6A49EF06F039
:100C68000A6A49EF06F00A6A49EF06F02351010AB9
:100C7800D8B4B5EF05F0030AD8B4BFEF05F0010A00
:100C8800D8B408EF06F037EF06F012006D980ABEE8
:100C980050EF06F052EF06F095EF06F003AE57EF6F
:100CA80006F059EF06F069EF06F0020E2A6E2050A2
:100CB800D8A461EF06F063EF06F065EF06F0BFEC2D
:100CC8000DF0226A236AE3EF06F020EE01F01950D6
:100CD800D9261A50DA22080EDF6E20EE02F01950DB
:100CE800D9261A50DA22200EDE6E040EDD6E19C0E7
:100CF800D9FF1AC0DAFF0C0EDF6E19C0D9FF1AC06F
:100D0800DAFF000EDB8E0DC0D9FF0EC0DAFF040E2D
:100D1800DF6E0DC0D9FF0EC0DAFF000EDB8EE3EFE9
:100D280006F0040120AF9BEF06F09DEF06F0B7EF49
:100D380006F0010E2A6E2150D8A4A5EF06F0A7EF01
:100D480006F0A9EF06F0BFEC0DF0226A236A2450E2
:100D5800D8A4B1EF06F0B3EF06F0E3EF06F0B2EC7B
:100D68000BF0E3EF06F0020E2A6E20EE01F01950A8
:100D7800D9261A50DA22080EDF6E20EE02F019503A
:100D8800D9261A50DA22200EDE6E040EDD6E19C046
:100D9800D9FF1AC0DAFF040EDF6E19C0D9FF1AC0D6
:100DA800DAFF000EDB8E226A236A2450D8A4DFEF14
:100DB80006F0E1EF06F0E3EF06F0B3EF06F01200FD
:100DC8000DC0D9FF0EC0DAFF000EDFBC010E336E76
:100DD800040E0D180D6E0E500E6E080E2C18D8A4A9
:100DE800F8EF06F0FAEF06F00CEF07F004012251D5
:100DF8007F0B6E6E6E50D8B404EF07F006EF07F065
:100E08000AEF07F0100E2C6E0CEF07F0040E2C6E94
:100E18002A04D8A412EF07F014EF07F05BEF07F0ED
:100E280020EE02F00D50D9260E50DA22280EDE6E82
:100E3800040EDD6EB8EC09F0020E2B18D8A427EFCB
:100E480007F029EF07F037EF07F00DC0D9FF0EC004
:100E5800DAFF040EDF6E0DC0D9FF0EC0DAFF000EF8
:100E6800DB8E7CEF07F03350D8A43DEF07F03FEF5F
:100E780007F04DEF07F00DC0D9FF0EC0DAFF480E9E
:100E8800DF6E0DC0D9FF0EC0DAFF000EDB8E7CEFDF
:100E980007F00DC0D9FF0EC0DAFF080EDF6E0DC0D7
:100EA800D9FF0EC0DAFF000EDB8E7CEF07F003AE31
:100EB80060EF07F062EF07F07BEF07F006500710CE
:100EC800D8B469EF07F06BEF07F07AEF07F020EE80
:100ED80006F002D87AEF07F00500FA6EDE50FD6ED4
:100EE800DE50FE6EF850FF6EFA501200039E2A6A1A
:100EF80012000001976F00018F51D8B486EF07F0F8
:100F080088EF07F094EF07F09751020DF3500D0F9B
:100F1800D96EDA6ADECF98F0DDCF99F09EEF07F050
:100F28009751020DF350110FD96EDA6ADECF98F09F
:100F3800DDCF99F098519911D8A4A5EF07F0A7EF44
:100F480007F0ADEF07F0000E8F6F000E906F11EFF6
:100F580008F020EE02F09851D9269951DA2290C073
:100F6800DEFF91C0DDFF20EE01F09851D92699519E
:100F7800DA2292C0DFFF98C0D9FF99C0DAFF400E8D
:100F8800DF1698C0D9FF99C0DAFF000EDB8698C03B
:100F9800D9FF99C0DAFF000EDB8E8F51D8B4D7EF96
:100FA80007F0D9EF07F0F4EF07F09751020DF3506F
:100FB8000D0FD96EDA6ADECF93F0DDCF94F0040E10
:100FC8009319956F9451966F9751020DF3500D0F29
:100FD800D96EDA6A95C0DEFF96C0DDFF0DEF08F026
:100FE8009751020DF350110FD96EDA6ADECF93F0E4
:100FF800DDCF94F0040E9319956F9451966F975125
:10100800020DF350110FD96EDA6A95C0DEFF96C053
:10101800DDFF98C08FF099C090F01200386E305004
:10102800D8B419EF08F01BEF08F027EF08F0385094
:10103800020DF3500D0FD96EDA6ADECF39F0DDCF2D
:101048003AF031EF08F03850020DF350110FD96E15
:10105800DA6ADECF39F0DDCF3AF039503A10D8A449
:1010680038EF08F03AEF08F040EF08F0000E306E65
:10107800000E316EA4EF08F020EE02F03950D926A8
:101088003A50DA2231C0DEFF32C0DDFF20EE01F037
:101098003950D9263A50DA2233C0DFFF39C0D9FF98
:1010A8003AC0DAFF400EDF1639C0D9FF3AC0DAFF7E
:1010B800000EDB8639C0D9FF3AC0DAFF000EDB8E9E
:1010C8003050D8B46AEF08F06CEF08F087EF08F0FA
:1010D8003850020DF3500D0FD96EDA6ADECF34F0B6
:1010E800DDCF35F0040E3418366E3550376E385073
:1010F800020DF3500D0FD96EDA6A36C0DEFF37C025
:10110800DDFFA0EF08F03850020DF350110FD96E33
:10111800DA6ADECF34F0DDCF35F0040E3418366EDF
:101128003550376E3850020DF350110FD96EDA6A08
:1011380036C0DEFF37C0DDFF39C030F03AC031F0CD
:101148001200A09A6A6A686A706A710E00018F6F4D
:101158000F0E906F000E926F000E916F000E946F3D
:10116800010E936F2EEC12F0160E6F6E9F0E6B6EC3
:101178007B0E696E0001976B9751040D000EF324E6
:10118800D96E040EF420DA6EDE6ADE6ADE6ADD6A83
:10119800972B070E9765D3EF08F0D5EF08F0C0EF4F
:1011A80008F06D8C6E6A6D986D9C68960A6A036A81
:1011B800000E056E000E046E68B6E5EF08F0E7EF66
:1011C80008F0D9EF08F0010E236E010E226E216A95
:1011D800206A286A0001976B9751020DF3500D0F92
:1011E800D96EDA6ADE6ADD6A9751020DF350110F83
:1011F800D96EDA6ADE6ADD6A9751170FD96EDA6A34
:10120800DF6A9751150FD96EDA6ADF6A972B010EDC
:10121800976511EF09F013EF09F0F0EF08F0080EE9
:101228000D6E040E0E6E160E706E040E0401036F22
:10123800200E026F080E016F040E006F008F2F6AD8
:10124800000E0001756F000E766F000E776F000EAE
:10125800786F1F6A2C6A1200A09A6A6A686A706AB4
:10126800710E306E0F0E316E000E336E000E326E40
:10127800000E356E010E346E68EC12F0160E6F6EAD
:101288009F0E6B6E7B0E696E386A3850040D000E27
:10129800F324D96E040EF420DA6EDE6ADE6ADE6AA2
:1012A800DD6A382A070E38645CEF09F05EEF09F052
:1012B80049EF09F06D8C6E6A6D986D9C68960A6AA4
:1012C800036A000E056E000E046E68B66EEF09F034
:1012D80070EF09F062EF09F0010E236E010E226E25
:1012E800216A206A286A386A3850020DF3500D0FB7
:1012F800D96EDA6ADE6ADD6A3850020DF350110FD2
:10130800D96EDA6ADE6ADD6A3850170FD96EDA6A82
:10131800DF6A3850150FD96EDA6ADF6A382A010E8B
:10132800386499EF09F09BEF09F078EF09F0080E9F
:101338000D6E040E0E6E160E706E040E0401036F11
:10134800200E026F080E016F040E006F008F2F6AC7
:10135800000E0001756F000E766F000E776F000E9D
:10136800786F1F6A2C6A1200080E306E0C5007E165
:10137800080E0B5CD8B0C3EF09F0C5EF09F0DDEF3C
:1013880009F00BC030F02B50D8A4CDEF09F0CFEF07
:1013980009F0D3EF09F0010E2B6EDDEF09F02B04F5
:1013A800D8A4D9EF09F0DBEF09F0DDEF09F0020E60
:1013B8002B6E30500B5E000E0C5A20EE01F00D50D3
:1013C800D9260E50DA2230C0DFFF280E0001796FCF
:1013D800040E7A6F0AB0F3EF09F0F5EF09F037EF72
:1013E8000AF012EF0AF008C0F6FF09C0F7FFF86A22
:1013F80079C0D9FF7AC0DAFF070EF76403D0080076
:10140800F55005D0F6CFE1FFF7CFE2FFE750DF6EEA
:10141800084A092A0001794B7A2B30063050D8A4A3
:1014280018EF0AF01AEF0AF0F7EF09F03FEF0AF0A9
:1014380008C0F6FF09C0F7FFF86A79C0D9FF7AC07B
:10144800DAFF070EF76403D00800F55005D0F6CF91
:10145800E1FFF7CFE2FFE750DF6E084A092A0001F3
:10146800794B7A2B30063050D8A43DEF0AF03FEF85
:101478000AF01CEF0AF0120004012039E832030BCD
:101488000009D8B44AEF0AF04CEF0AF091EF0AF0DD
:10149800C0EF0AF00A8E080E2C6EC0EF0AF0A7EC17
:1014A80005F0C0EF0AF028EC0CF0C0EF0AF02F0EA0
:1014B800086E096A0A80010E0B6E0A8EC0EF0AF0E8
:1014C8003BEC0BF0C0EF0AF0BDEC01F0C0EF0AF006
:1014D80024512E0F4D6E4DC008F0096A0A80010E86
:1014E8000B6E0A8EC0EF0AF00A8E24512E0FD96EA9
:1014F800DA6A22C4DFFFC0EF0AF0000E3F6E020E68
:101508003E6E000E406E000E416E000E436E000EE1
:10151800426E92EC0CF0C0EF0AF02151000AD8B4E8
:1015280064EF0AF0010AD8B468EF0AF0020AD8B4E6
:1015380068EF0AF0060AD8B44EEF0AF0030AD8B4E6
:1015480053EF0AF0010AD8B481EF0AF00F0AD8B4B1
:101558005BEF0AF0010AD8B457EF0AF0030AD8B4CF
:101568006CEF0AF0010AD8B478EF0AF0070AD8B489
:10157800C0EF0AF0C0EF0AF012006DA2C6EF0AF041
:10158800C8EF0AF027EF0BF0010E82EC10F03AEFEB
:101598000BF01D041E10D8A4D4EF0AF0D6EF0AF001
:1015A800DBEF0AF0010E51EC10F038EF0BF04B0EA8
:1015B8001D181E10D8A4E3EF0AF0E5EF0AF0EAEFD1
:1015C8000AF0010E82EC10F038EF0BF01E5009E122
:1015D800970E1D5CD8A0F3EF0AF0F5EF0AF0FBEFC9
:1015E8000AF0000E1E6E000E1D6E38EF0BF038EF7D
:1015F8000BF01D041E10D8A404EF0BF006EF0BF03F
:101608000BEF0BF0010E51EC10F038EF0BF0320E2F
:101618001D181E10D8A413EF0BF015EF0BF01AEFDE
:101628000BF0010E82EC10F038EF0BF0B70E1D5CDA
:10163800030E1E58D8A023EF0BF025EF0BF038EF60
:101648000BF0F5EF0AF02C50336E346A3450000A70
:10165800D8B431EF0BF0FDEF0AF03350200AD8B4BC
:10166800CDEF0AF0FDEF0AF01D4A1E2A1200040110
:10167800286B296B93EF0BF00A8E2904D8A447EF47
:101688000BF049EF0BF0A3EF0BF02883A3EF0BF05F
:101698000A8EA3EF0BF00A8E24510F0B0009D8B461
:1016A80058EF0BF05AEF0BF0A3EF0BF024BF5FEFEE
:1016B8000BF061EF0BF06EEF0BF024510F0B020DE6
:1016C800F350110FD96EDA6ADECF30F0DDCF31F08A
:1016D80079EF0BF024510F0B020DF3500D0FD96E5B
:1016E800DA6ADECF30F0DDCF31F030C0D9FF31C05B
:1016F800DAFFDFAE82EF0BF084EF0BF0A3EF0BF015
:1017080030C0D9FF31C0DAFFDFA48DEF0BF08FEFC7
:101718000BF0A3EF0BF0010E286FA3EF0BF0205195
:101728001F0B000AD8B440EF0BF0010AD8B44CEFF5
:101738000BF0030AD8B44FEF0BF0A3EF0BF00AAE8F
:10174800A8EF0BF0AAEF0BF0B1EF0BF0280E086E24
:10175800040E096E0A80020E0B6E12002350D8A4E4
:10176800B8EF0BF0BAEF0BF027EF0CF0010E236E79
:101778002250D8A4C2EF0BF0C4EF0BF027EF0CF007
:10178800010E226E020E2A18D8A4CDEF0BF0CFEF6F
:101798000BF0E4EF0BF020EE01F00D50D9260E50BF
:1017A800DA22DF6A0DC0D9FF0EC0DAFF480EDF6EFD
:1017B8000DC0D9FF0EC0DAFF000EDB8E27EF0CF04C
:1017C8002A04D8A4EAEF0BF0ECEF0BF027EF0CF0AB
:1017D800266A20EE01F01B50D9261C50DA22080E8A
:1017E800DF6E20EE02F01B50D9261C50DA22200EA4
:1017F800DE6E040EDD6E1BC0D9FF1CC0DAFF040EBE
:10180800DF6E1BC0D9FF1CC0DAFF000EDB8E010E95
:10181800266E20EE01F01950D9261A50DA22080E49
:10182800DF6E20EE02F01950D9261A50DA22200E67
:10183800DE6E040EDD6E19C0D9FF1AC0DAFF800E05
:10184800DF6E27EF0CF012000A8E710E306E0F0E4D
:10185800316E000E336E000E326E000E356E010EC4
:10186800346E68EC12F0000E306E040E316E000E0D
:10187800336E000E326E000E356E200E346E68EC3C
:1018880012F06D8C466A4650170FD96EDA6ADF6A15
:101898004650150FD96EDA6ADF6A462A010E466489
:1018A80058EF0CF05AEF0CF047EF0CF02E0E306E9C
:1018B800316A000E336E000E326E000E356E010E68
:1018C800346E68EC12F06D9C080E0D6E040E0E6EF0
:1018D800000E1B6E040E1C6E1BC019F01CC01AF003
:1018E80022C42FF02F50D8A47CEF0CF07EEF0CF020
:1018F80082EF0CF0100E2C6E91EF0CF0000E3F6E84
:10190800010E3E6E2F0E406E416A000E436E010EB0
:10191800426E92EC0CF0200E2C6E1200C2EF0CF00E
:10192800C1EC0AF00001852909E17F0E8619D8B4B7
:10193800A0EF0CF0A2EF0CF0A6EF0CF0854B862B75
:10194800FBEF0CF0000E866F000E856FFBEF0CF0BE
:10195800C1EC0AF0010E35EC11F0FBEF0CF0C1EC14
:101968000AF0020E35EC11F0FBEF0CF0A6EC0EF0CD
:10197800FBEF0CF002EC05F0FBEF0CF03EC044F07E
:101988003FC045F04550000AD8B4D1EF0CF07F0AAB
:10199800D8B4F4EF0CF0FBEF0CF04450010AD8B4C3
:1019A800BAEF0CF0030AD8B4FBEF0CF0010AD8B474
:1019B800BEEF0CF0060AD8B4FBEF0CF0770AD8B4E7
:1019C800FBEF0CF0010AD8B494EF0CF0070AD8B476
:1019D800B3EF0CF0010AD8B4ACEF0CF0FBEF0CF04D
:1019E8004450FF0AD8B4FBEF0CF0FBEF0CF01200E8
:1019F80081BA01EF0DF006EF0DF000018F6B8F2B10
:101A080008EF0DF000018F6B81B80DEF0DF011EFAD
:101A18000DF0906B902B13EF0DF00001906BD890A8
:101A280090358F11926F87519219D8A41EEF0DF03F
:101A380020EF0DF023EF0DF0886B62EF0DF0882B8F
:101A4800020E88612AEF0DF02CEF0DF02EEF0DF04D
:101A580062EF0DF0886B8A51040DEF0EF3248F6F3F
:101A68007E0EF420906F92518F27000E90238FC026
:101A7800F6FF90C0F7FF0800F5CF91F09151892744
:101A88008951800A6B0FD8A04CEF0DF04EEF0DF086
:101A980052EF0DF0140E896F5EEF0DF08951800A38
:101AA800940FD8B05AEF0DF05CEF0DF05EEF0DF02B
:101AB800EC0E896F92C08AF092C087F012002D0E4A
:101AC800256E2DC04EF0FD0E4E16D8A46EEF0DF00B
:101AD80070EF0DF0B2EF0DF02DC04EF0D8904E32F1
:101AE8003F0E4E164E50040D000EF3241B6E040ECE
:101AF800F4201C6E1BC019F01CC01AF0040E191833
:101B0800196E1A501A6E1BC0D9FF1CC0DAFFDF30DD
:101B1800E8320F0B0D0AD8A494EF0DF096EF0DF0F4
:101B2800AEEF0DF0200E306E040E316E20EE02F096
:101B38001B50D9261C50DA22DECF32F0DDCF33F02D
:101B4800000E356E080E346E0DEC11F067EC0EF0D9
:101B5800BEEF0DF01AEC0FF0BEEF0DF02D50FD0B9F
:101B6800040AD8A4BAEF0DF0BCEF0DF0BEEF0DF0EB
:101B7800E4EC06F01200216A206A020E2A18D8A4A2
:101B8800C8EF0DF0CAEF0DF0EAEF0DF020EE01F00E
:101B98001950D9261A50DA22080EDF6E20EE02F00C
:101BA8001950D9261A50DA22280EDE6E040EDD6E80
:101BB80019C0D9FF1AC0DAFF480EDF6E19C0D9FF65
:101BC8001AC0DAFF000EDB8E12EF0EF00B50040184
:101BD800265D0C502759D8B0F4EF0DF0F6EF0DF054
:101BE800FAEF0DF026C40BF027C40CF0B8EC09F09E
:101BF80020EE02F00D50D9260E50DA22280EDE6EA5
:101C0800040EDD6E0DC0D9FF0EC0DAFF480EDF6E80
:101C18000DC0D9FF0EC0DAFF000EDB8E1200376E42
:101C2800000E386E040E396E3050316E326AD8901C
:101C3800313632363750336E346AD89033363436CC
:101C4800D8903336343631503324356E3250342000
:101C5800366ED89035363636D890353636363550D5
:101C680038263650392238C0D9FF39C0DAFFDF9E0E
:101C78003050D8A442EF0EF044EF0EF050EF0EF0C3
:101C88003750020DF350110FD96EDA6A38C0DEFFF3
:101C980039C0DDFF5AEF0EF03750020DF3500D0F2B
:101CA800D96EDA6A38C0DEFF39C0DDFF38C0D9FF27
:101CB80039C0DAFFDF9C20EE04F03850D9263950BD
:101CC800DA22DF8C12002B6A246A216A206A266ACB
:101CD8002A6A0DC0D9FF0EC0DAFF7F0EDF16040E88
:101CE8000D180D6E0E500E6E0DC0D9FF0EC0DAFF26
:101CF8007F0EDF16040E0D180D6E0E500E6E19C0F5
:101D0800D9FF1AC0DAFF7F0EDF160A6A000E0C6EC2
:101D1800000E0B6E036A000E056E000E046E40EC9A
:101D28000AF0000E3F6E030E3E6E000E406E000E6F
:101D3800416E000E436E000E426E92EC0CF04AECBF
:101D480006F01200000E00016F6F000E706F000E9B
:101D58007B6F000E7C6F040E736F746B8B6B6D6BF7
:101D68006E6B000E826F000E816FBFEF0EF085C0A4
:101D78007DF086C07EF085517D1907E186517E1978
:101D8800D8A4C9EF0EF0CBEF0EF0BBEF0EF01E0E8D
:101D98003A6E010E5DEC11F0000E306E090E316ED8
:101DA800050E326E010E336E010E12EC08F030C0D3
:101DB80071F031C072F00EEC12F012000001916F58
:101DC800FFEF0EF081A8EBEF0EF0EEEF0EF0010E34
:101DD800EFEF0EF0000E19EF0FF081AAF6EF0EF0FC
:101DE800F9EF0EF0010EFAEF0EF0000E19EF0FF0FA
:101DF800000E19EF0FF0000191518F6F906B905109
:101E0800000AD8B40AEF0FF0FCEF0EF08F51000A69
:101E1800D8B4FCEF0EF0010AD8B4E6EF0EF0030ACE
:101E2800D8B4F1EF0EF0FCEF0EF01200020E2A18F3
:101E3800D8A421EF0FF023EF0FF027EF0FF04AECB3
:101E480004F051EF0FF02A6A2650D8A42EEF0FF0B5
:101E580030EF0FF050EF0FF020EE01F01950D926B7
:101E68001A50DA22080EDF6E20EE02F01950D92639
:101E78001A50DA22200EDE6E040EDD6E19C0D9FF6C
:101E88001AC0DAFF0C0EDF6E19C0D9FF1AC0DAFFCC
:101E9800000EDB8E51EF0FF0266A12000600FACF13
:101EA80050F0FBCF51F0E1CF52F0E2CF53F0D9CF51
:101EB80054F0DACF55F0F3CF56F0F4CF57F0F6CF11
:101EC80058F0F7CF59F0F8CF5AF0F5CF5BF040EC67
:101ED80003F05BC0F5FF5AC0F8FF59C0F7FF58C0C0
:101EE800F6FF57C0F4FF56C0F3FF55C0DAFF54C0E1
:101EF800D9FF53C0E2FF52C0E1FF51C0FBFF50C001
:101F0800FAFF5C9211000001916F97EF0FF0959620
:101F1800B9EF0FF09592B9EF0FF09594B9EF0FF074
:101F28009596B9EF0FF0000191518F6F906B90511A
:101F3800000AD8B4A2EF0FF0B9EF0FF08F51000AE2
:101F4800D8B4B9EF0FF0010AD8B48BEF0FF0030A39
:101F5800D8B48EEF0FF0010AD8B491EF0FF0070A4A
:101F6800D8B494EF0FF0B9EF0FF012000001916FA1
:101F7800CAEF0FF08C86ECEF0FF08C82ECEF0FF0CD
:101F88008C84ECEF0FF08C86ECEF0FF00001915190
:101F98008F6F906B9051000AD8B4D5EF0FF0ECEF2B
:101FA8000FF08F51000AD8B4ECEF0FF0010AD8B443
:101FB800BEEF0FF0030AD8B4C1EF0FF0010AD8B48E
:101FC800C4EF0FF0070AD8B4C7EF0FF0ECEF0FF02B
:101FD80012000001916FFDEF0FF08C961FEF10F0CB
:101FE8008C921FEF10F08C941FEF10F08C961FEF5F
:101FF80010F0000191518F6F906B9051000AD8B486
:1020080008EF10F01FEF10F08F51000AD8B41FEF3F
:1020180010F0010AD8B4F1EF0FF0030AD8B4F4EFC6
:102028000FF0010AD8B4F7EF0FF0070AD8B4FAEFA7
:102038000FF01FEF10F01200326E2FEF10F0959690
:1020480050EF10F0959250EF10F0959450EF10F07B
:10205800959650EF10F03250306E316A3150000AC8
:10206800D8B439EF10F050EF10F03050000AD8B45F
:1020780050EF10F0010AD8B423EF10F0030AD8B4D7
:1020880026EF10F0010AD8B429EF10F0070AD8B4E7
:102098002CEF10F050EF10F01200326E60EF10F0DD
:1020A8008C8681EF10F08C8281EF10F08C8481EFA8
:1020B80010F08C8681EF10F03250306E316A31505A
:1020C800000AD8B46AEF10F081EF10F03050000A1F
:1020D800D8B481EF10F0010AD8B454EF10F0030A15
:1020E800D8B457EF10F0010AD8B45AEF10F0070A25
:1020F800D8B45DEF10F081EF10F01200326E91EF5E
:1021080010F08C96B2EF10F08C92B2EF10F08C9425
:10211800B2EF10F08C96B2EF10F03250306E316A98
:102128003150000AD8B49BEF10F0B2EF10F03050E5
:10213800000AD8B4B2EF10F0010AD8B485EF10F055
:10214800030AD8B488EF10F0010AD8B48BEF10F066
:10215800070AD8B48EEF10F0B2EF10F0120070A09A
:10216800B8EF10F0BAEF10F0E1EF10F01BC0D9FF94
:102178001CC0DAFF800EDE18D8A4C5EF10F0C7EF38
:1021880010F0E0EF10F00DC0D9FF0EC0DAFF840E9A
:10219800DE18D8A4D2EF10F0D4EF10F0E0EF10F072
:1021A8001BC0D9FF1CC0DAFF0C0EDF6E1BC0D9FFA5
:1021B8001CC0DAFF000EDB8E7090689A12000001D6
:1021C800946FF2EF10F0010E87EC0FF0020E87EC1F
:1021D8000FF0010E83EC11F00CEF11F00001945197
:1021E800926F936B9351000AD8B4FDEF10F00CEF87
:1021F80011F09251000AD8B4E7EF10F0010AD8B4F0
:102208000CEF11F0030AD8B40CEF11F00CEF11F039
:10221800120032C038F033C039F030C036F031C067
:1022280037F027EF11F038C0D9FF39C0DAFFDF5097
:102238003A6E384A392A36C0D9FF37C0DAFF3AC071
:10224800DFFF364A372A3406D8A03506342806E197
:102258003528D8A432EF11F034EF11F017EF11F050
:102268001200356E43EF11F0010E20EC10F0020E53
:1022780020EC10F0010EA8EC11F05CEF11F03550D5
:10228800336E346A3450000AD8B44DEF11F05CEF65
:1022980011F03350000AD8B438EF11F0010AD8B45D
:1022A8005CEF11F0030AD8B45CEF11F05CEF11F0A9
:1022B80012003D6E3AA463EF11F065EF11F06AEF7A
:1022C80011F0000E306E3D5013EC0EF03AA26FEF95
:1022D80011F071EF11F076EF11F0010E306E3D50F4
:1022E80013EC0EF0700E3D243B6E3C6A0F0E3C2240
:1022F8003BC0D9FF3CC0DAFF3AC0DFFF1200000143
:10230800916F8DEF11F09388A7EF11F0938AA7EFE3
:1023180011F0000191518F6F906B9051000AD8B461
:1023280098EF11F0A7EF11F08F51000AD8B4A7EF7A
:1023380011F0010AD8B487EF11F0030AD8B48AEF74
:1023480011F0A7EF11F01200326EB1EF11F093887F
:10235800CAEF11F0938ACAEF11F03250306E316A29
:102368003150000AD8B4BBEF11F0CAEF11F0305069
:10237800000AD8B4CAEF11F0010AD8B4ABEF11F0D3
:10238800030AD8B4AEEF11F0CAEF11F01200000141
:102398008F6B8951800A7C0FD8A0D5EF11F0D7EF49
:1023A80011F0DDEF11F0010E8F6FFC0E8927EBEFB6
:1023B80011F08951800A830FD8B0E5EF11F0E7EFEB
:1023C80011F0EBEF11F0020E8F6F040E89278F5179
:1023D80012002C50D8A4F3EF11F0F5EF11F00DEF27
:1023E80012F06D6A696A160E6F6E9F0E6B6E7B0E29
:1023F800696ED08EA28AA08AF28E04EF12F06D86E2
:102408006DA609EF12F00BEF12F003EF12F0010EB8
:102418002C6E12009388938A81BA15EF12F019EF87
:1024280012F0306A302A1AEF12F0306A81B81FEFC2
:1024380012F023EF12F0316A312A24EF12F0316AD8
:10244800D8903134301000018A6F8AC087F0896BC8
:10245800886B12008FC095F090C096F03CEF12F098
:1024680095C0D9FF96C0DAFF91C0DFFF954B962B38
:1024780000019307D8A09407932906E19429D8A4CA
:1024880048EF12F04AEF12F034EF12F01200286A07
:10249800000E3F6E740E3E6E000E406E000E416ED2
:1024A800000E436E000E426E92EC0CF06D92699431
:1024B8005FEF12F0689468B464EF12F066EF12F000
:1024C8005EEF12F01F6A120030C036F031C037F0EC
:1024D80076EF12F036C0D9FF37C0DAFF32C0DFFF1F
:1024E800364A372A3406D8A03506342806E1352876
:1024F800D8A481EF12F083EF12F06EEF12F0120001
:10250800010E00017527000E7623772378232850C3
:10251800D8A491EF12F093EF12F09DEF12F01F2A5A
:102528001F50D8A49AEF12F09CEF12F09DEF12F012
:102538001F681200698468986D82010E286E1F6AF0
:10254800000E3F6E750E3E6E000E406E000E416E20
:10255800000E436E000E426E92EC0CF0120000EE7C
:1025680060F02F0EEE6AE806FDE100EE01F02F0E96
:10257800EE6AE806FDE15C905C92000EF86E0001E0
:1025880004EF13F0050109A3CCEF12F0CEEF12F01F
:10259800D3EF12F0020EBAEC0FF0D6EF12F0020EE3
:1025A800EDEC0FF01200050109A3DDEF12F0DFEFEB
:1025B80012F0E4EF12F0020E51EC10F0E7EF12F017
:1025C800020E82EC10F01200280E016E040E026E4C
:1025D800000E056E080E046E220E066E260E076E9D
:1025E800038E1200316E3150D8A4FDEF12F0FFEFC8
:1025F80012F003EF13F030C081F00001826B12007B
:10260800000EE3EC10F0A5EC08F0EDEC11F009EC8D
:1026180000F00BEF13F007EF00F028C409F5D7EC32
:0426280012F012009A
:107EEE000000FF0100010000FFFF0000010001FF84
:107EFE0000FA7F6F7FCC7FA37F05010906A1018564
:107F0E0001050719E029E71500250175019508817E
:107F1E00029501750881039505750105081901295A
:107F2E0005910295017503910395067508150025B7
:107F3E00650507190029658100C0050C0901A1011D
:107F4E008502050C150025017501950709B509B6C1
:107F5E0009B709CD09E209E909EA81029501810112
:107F6E00C034034D006900630072006F0063006847
:107F7E000069007000200054006500630068006E08
:107F8E00006F006C006F0067007900200049006EE2
:107F9E000063002E0009022900010100C03209040D
:107FAE0000000203010100092111010001226800F5
:107FBE0007058103090001070501030100011C03E8
:107FCE0056006F006C0075006D006500000000002B
:107FDE00000000000000000000001201000200007E
:107FEE000008D80455000100010200010403090431
:017FFE000082
:020000040030CA
:0E000000240E3F1EFF8181FF0FC00FE00F4056
:00000001FF
